:1000000000800020BD0100003D0E0000F50D000045
:10001000F50D0000F50D0000F50D0000F50D0000D8
:10002000F50D0000F50D0000F50D00003D0E00007F
:100030003D0E0000F50D0000352100008523000075
:100040003D0E00003D0E00003D0E00003D0E000084
:100050003D0E00003D0E00003D0E00003D0E000074
:100060003D0E00003D0E00003D0E00003D0E000064
:100070003D0E00003D0E00003D0E00003D0E000054
:100080003D0E00003D0E00003D0E00003D0E000044
:100090003D0E00003D0E00003D0E00003D0E000034
:1000A0003D0E00003D0E00003D0E00003D0E000024
:1000B0003D0E00003D0E00003D0E00003D0E000014
:1000C0003D0E00003D0E00003D0E00003D0E000004
:1000D0003D0E00003D0E00003D0E00003D0E0000F4
:1000E0003D0E00003D0E00003D0E00003D0E0000E4
:1000F0003D0E0000F12C00003D0E00001D2E000002
:100100003D0E0000492F00003D0E00003D0E000096
:100110003D0E00003D0E00003D0E00003D0E0000B3
:100120003D0E00003D0E00003D0E00003D0E0000A3
:100130003D0E00003D0E00003D0E00003D0E000093
:100140003D0E00003D0E00003D0E00003D0E000083
:10015000C9240000DD240000F12400000525000072
:100160003D0E0000C51300003D0E00003D0E0000D6
:100170003D0E00003D0E00003D0E00003D0E000053
:100180003D0E00003D0E00003D0E00003D0E000043
:100190003D0E00003D0E00003D0E00003D0E000033
:1001A0003D0E00003D0E00003D0E00003D0E000023
:1001B0003D0E00003D0E00003D0E0000564B4CF27F
:1001C000205210B51A804DF628121A8000BF00BFC9
:1001D00000F038FE514B4FF010621A60504A9A609E
:1001E000504ADA60504A136813F4807304D14F49BF
:1001F0000B604FF4A85313604D4B1A78110703D5C9
:100200001A7842F008021A704A4B4B492A221A7097
:100210004A4A4B4B8B4204D252F8040F43F8040B6A
:10022000F8E7484B484900228B4202D243F8042B9E
:10023000FAE74649464A002352F8230041F82300D2
:1002400001336F2BF8D1434B434A802103F8011B44
:100250009342FBD1414B3D4A1A60414B8A221A70AE
:10026000A3F5805324225A70A0221A709A7992071B
:10027000FCD59A79D406FCD43A4A937903F00C035E
:10028000082B384BF9D105221A7143225A719A79F9
:100290009006FCD5334A9179324B4906FBD5324A58
:1002A0004FF0817111600521516020221A709A79F6
:1002B00002F00C020C2AFAD12C4B2D4A1A602D4B5D
:1002C0002D4A1A6000225A60072243F8042C2B4A58
:1002D000C3F80C2D62B600F00DFE144B1B68DA0754
:1002E00005D5274800F0F4FD264B274A1A60274B16
:1002F0001B785B0609D5234C234B22689A4204D114
:100300001F4800F0E5FD0023236003F093F900F09F
:100310009FFD02F001F9FEE70E2005403080044009
:10032000823F04000100002B10D0034014D0034092
:1003300002D0074000E007400497FF1FC0420000C2
:10034000308CFF1F0497FF1F0C9CFF1F0082FF1FB4
:100350000000000000E400E05FE400E008ED00E0E1
:1003600000500640004006404480044004800440A1
:10037000C010050014E000E03F190100000020203B
:100380009944655B1CE00340A5C3945A00F0074004
:10039000FFFFFFFFFFFFFFFFFFFFFFFFFFFFFFFF6D
:1003A000FFFFFFFFFFFFFFFFFFFFFFFFFFFFFFFF5D
:1003B000FFFFFFFFFFFFFFFFFFFFFFFFFFFFFFFF4D
:1003C000FFFFFFFFFFFFFFFFFFFFFFFFFFFFFFFF3D
:1003D000FFFFFFFFFFFFFFFFFFFFFFFFFFFFFFFF2D
:1003E000FFFFFFFFFFFFFFFFFFFFFFFFFFFFFFFF1D
:1003F000FFFFFFFFFFFFFFFFFFFFFFFFFFFFFFFF0D
:10040000FFFFFFFFFFFFFFFFFFFFFFFFDEF9FFFF23
:1004100010B5054C237833B9044B13B10448AFF33E
:1004200000800123237010BD0497FF1F000000000F
:10043000C4420000084B10B51BB108490848AFF38F
:1004400000800848036803B910BD074B002BFBD0A0
:10045000BDE81040184700BF000000000897FF1FCC
:10046000C44200000497FF1F0000000008B50348C5
:1004700000F0C8FA024B01221A7008BD4497FF1F12
:10048000E499FF1F2DE9F041654C664B664A6748C9
:10049000214600F0E7FB002800F0B0816388644F3C
:1004A000644D654E2A78F03BC3EB034387FB0301A1
:1004B000DB17C3EBE1134FF6FF78434528BF4346F4
:1004C0003382002A00F0BC802188A388F039C1EB78
:1004D0000141F03B87FB01E0C3EB0343C917C1EBCC
:1004E000E01187FB03E7DB17C3EBE713414528BFA8
:1004F0004146434528BF43467182B382E388218940
:100500004B48F03BC3EB0343F03980FB03E7C1EBFF
:100510000141DB17C3EBE71380FB010E4FF6FF77BA
:10052000C817C0EBEE11BB4228BF3B46B94228BFFB
:1005300039467383F18263893D49F03BC3EB034342
:1005400081FB0301DB17C3EBE1134FF6FF718B4215
:1005500028BF0B463383A3893849F03B03EB4303A1
:1005600081FB0301DB17D3EB612100F0B581336818
:1005700023F001003060002A00F0D780012900F04C
:10058000CC8123F00303022940F0F78043F00403F9
:100590003360294F002A00F0F780E1892748F039BD
:1005A00001EB410180FB0170C917D1EB602140F0E4
:1005B0002D8143F0080323F0100323F02003336060
:1005C0001D4F002A00F03681218A1C48F03949006D
:1005D00080FB0170C917D1EB602140F0888143F0A6
:1005E000400323F080033360134F002A00F04D8155
:1005F000618A1248F039490080FB0140C917D1EBEC
:10060000602140F0718143F4807323F40073336000
:100610000AB901F08FFCBDE8F04101F08BBC00BFCE
:100620002097FF1F4097FF1F8098FF1F4497FF1FD1
:10063000A94AE914E499FF1FBC9BFF1F9D829753B1
:1006400001F078FC23882A78F03BC3EB034387FB57
:100650000301DB17C3EBE113434528BF4346738215
:10066000002A40F0608101F065FCA3882A78F03B05
:10067000C3EB034387FB0301DB17C3EBE1134345E4
:1006800028BF4346B382002A7FF438AF01F052FC02
:10069000E3882A78F03BC3EB034387FB0301DB17B6
:1006A000C3EBE113434528BF43467383002A40F060
:1006B000508101F03FFC23892A78F03BC3EB0343D0
:1006C00087FB0301DB17C3EBE113434528BF434618
:1006D000F382002A7FF42FAF01F02CFC63892A7883
:1006E000F03BC3EB034387FB0317DB17C3EBE717B1
:1006F000474528BF47463783002A7FF42CAF01F0D7
:1007000019FCA3899F492A78F03B03EB430381FB43
:100710000301DB17D3EB61217FF429AF336843F08A
:1007200001033360002A40F0DA8001F003FCA08965
:100730009449954F33682A78F03800EB400081FBEC
:1007400000E1C017C0EB6121012959D023F0020359
:100750003B60002A7FF417AF01F0ECFBA0898949C8
:1007600033682A78F03800EB400081FB0071C01735
:10077000C0EB612102293FF409AF23F00403336089
:10078000814F002A7FF409AF01F0D4FBE1897D4855
:100790003B682A78F03901EB410180FB01E0C91781
:1007A000D1EB602132D143F008033B60002A7FF493
:1007B00002AF01F0BFFBE0897249734F33682A78BA
:1007C000F03800EB400081FB00E1C017C0EB612175
:1007D000012900F09B8023F010033B6002BB01F075
:1007E000A9FBE089674933682A78F03800EB4000BC
:1007F00081FB0071C017C0EB612111E0BDE8F08101
:1008000043F002033B60002AA6D0B6E723F00800BD
:100810003060002ACDD0012900F0828023F0180337
:1008200002297FF4CAAE43F020033360564F002AFA
:100830007FF4CAAE01F07EFB218A52483B682A78D9
:10084000F039490080FB01E0C917D1EB602157D195
:1008500043F040033B60002A7FF4C3AE01F06AFB23
:10086000208A484933682A78F038400081FB0071BB
:10087000C017C0EB612101297FF4B3AE43F08003C0
:100880003360414F002A7FF4B3AE01F053FB618A1D
:100890003C483B682A78F039490080FB01E0C917E1
:1008A000D1EB602126D143F480733B60002A7FF4B2
:1008B000ACAE01F03FFB608A32492A783368F038E9
:1008C000400081FB0041C017C0EB612101297FF48A
:1008D0009CAE43F400739AE6336843F0010323F0BF
:1008E000020323F004034AE723F48073EEE723F0C6
:1008F0004003C0E723F480733B60002AD9D0E5E7CA
:1009000023F040033B60002AA8D0B4E743F0100373
:100910003B60002A3FF463AF4FE640F002032CE750
:1009200040F0100349E6A388E188F03B40F21F67DE
:10093000F039C3EB034393FBF7F3434528BF43462A
:10094000C1EB014191FBF7F7474528BF4746B3820A
:100950007783238961894FF6FF70F03B40F21F6770
:10096000F039C3EB034393FBF7F3834228BF0346FD
:10097000C1EB014191FBF7F1814228BF0146F382AF
:100980003183E8E59D829753BC9BFF1F10B5064C51
:100990000649204600F016F82046054A0549BDE8FC
:1009A000104002F035BE00BF4497FF1F3C8CFF1F74
:1009B000308CFF1F550B000010B5044601F062FD9E
:1009C000204610BDF0B541F658320F24DFF830E074
:1009D000C0F8381108270021AC2640F21375826058
:1009E0000422C0F800E080F82870468585850471EF
:1009F000C47141714173827180F82720F0BD00BF3E
:100A0000A08601002DE9F843478D002304460373B7
:100A1000384602F055FCA68D8046304602F050FC68
:100A2000414602F09BFB014681464FF0804002F0B8
:100A300053FD4FF07C510546484602F099FC414673
:100A400002F08EFB294600F1004002F091FCE785A0
:100A50000346C4F8B000C4F8B400C4F8B800C4F841
:100A6000BC00C4F8C000A4F84E602786A4F850600B
:100A70006786A4F85260A786A4F85460E786A4F8B5
:100A800056602787A4F8586025676567A567E567FE
:100A9000C4F88050C4F88450C4F8C400C4F8C80036
:100AA000C4F8CC00C4F8D000C4F8D400C4F8D8000E
:100AB000C4F8DC00C4F8E000C4F8E4006787A4F8D8
:100AC0005A60A787A4F85C60E787A4F85E60A4F882
:100AD0004070A4F86060A4F84270A4F86260A4F8C2
:100AE0004470A4F86460A4F84670A4F86660A4F8A2
:100AF0004870A4F86860C4F88850C4F88C50C4F8F2
:100B00009050C4F89450C4F89850C4F89C50C4F85D
:100B1000A050C4F8A450A4F84A70D4F83801A4F83E
:100B20006A60A4F84C70A4F86C60C4F8A850C4F8CB
:100B3000E830C4F8AC50C4F8EC30036821681B6A94
:100B400036229847024BD4F838211A60BDE8F88362
:100B50009498FF1F38B5D0F8F030054663B10024F3
:100B60001859043418B102F095FDD5F8F030402C36
:100B7000F6D1184602F08EFDD5F8F43063B10024AA
:100B80001859043418B102F085FDD5F8F430402C22
:100B9000F6D1184602F07EFD284638BDF8B52F4E36
:100BA0003368DB07044647D52D4D00F0FBFA2B6870
:100BB000A268C01A82423CBF00232373002601278B
:100BC000D4F8380103681B699847002832DD00F02B
:100BD000E9FAD4F8383128601A68184653699847FA
:100BE000237BC0B2A0738BB92379834202D02673D2
:100BF0006073E5E7627B6379934204D0E379A1797E
:100C000013409942F3D127736073D9E7182B04DCA2
:100C1000E2180133DBB290732373192BE8D16379A7
:100C2000834216D0E379A2791840824211D0002085
:100C30002073F8BD0020F8BD304600F021F90028EF
:100C4000B2D000F0AFFA064D2860304600F01EF931
:100C5000ABE7002323730120F8BD00BF8C98FF1F72
:100C60009098FF1F2DE9F0410D461746984604461F
:100C7000FFF794FF002800F0A580002D00F08E8083
:100C8000227CE37B43EA0223C3F30A032B80637CC9
:100C9000227C5B0143EAD203C3F30A036B80A27C8C
:100CA000637CE17C920042EA931343EA8123C3F31D
:100CB0000A03AB80237DE27CDB0143EA5203C3F3EA
:100CC0000A03EB80637D227D1B0143EA1213C3F309
:100CD0000A032B81A27D637DE17D520042EAD3139A
:100CE00043EA4123C3F30A036B81237EE27D9B0128
:100CF00043EA9203C3F30A03AB81637E227EDB00E7
:100D000043EA5213EB81E27EA37E43EA0223C3F35C
:100D10000A032B82237FE27E5B0143EAD203C3F303
:100D20000A036B82217F637FA27F9B0043EA9111BC
:100D300041EA8221C1F30A01A982E37FA27FDB019C
:100D400043EA5203C3F30A03EB8294F82030E27FB4
:100D50001B0143EA1213C3F30A032B8394F82160A7
:100D600094F8201094F82230760046EAD11141EA36
:100D70004321C1F30A01698394F8233094F82220B7
:100D80009B0143EA9203C3F30A03AB8394F8243034
:100D900094F82320DB0043EA5213EB83B8F1000FF1
:100DA00008D094F8253094F82720134018BF012369
:100DB00088F8003037B194F8253094F82820134093
:100DC00002D13B70BDE8F08101233B70BDE8F081AA
:100DD00030B4054B054A0649802400251C711D606E
:100DE000184630BC02F014BC8498FF1F308CFF1FE3
:100DF000B909000008B5104C08E0236859050DD466
:100E000023681A050FD42368DB0411D42368580320
:100E1000F3D500F0D7FA23685905F1D501F068FF42
:100E200023681A05EFD501F0F9FF2368DB04EDD53F
:100E300002F08AF8EAE700BF3480044008B5FFF703
:100E4000D9FF00BF014B10221A80704700200540D7
:100E5000704700BF094908B50B6830B16A461844AD
:100E6000A2F58052904202D20860184608BD02F0F6
:100E7000DBFB0C2303604FF0FF3008BD348CFF1FF9
:100E80000078B0FA80F04009704700BF012303707A
:100E9000704700BFEFF3138070B9EFF310836BB9A5
:100EA000EFF305825AB94FF48070EFF311832BB141
:100EB000984228BF184670474FF0FF3070470F2AFE
:100EC00001D81846F1E7014BD05CEEE7F0E300E013
:100ED00030B4054B054D064C002210211A602A60E3
:100EE0002060196030BC704714D0034004D0034028
:100EF00000D003402DE9F8436C4B6D496D4E6E4DAB
:100F00006E4CDFF8D8C1DFF8D8E16D4A6D4F4FF471
:100F1000000018604FF0807018604FF0007018608B
:100F20004FF0806018604FF000601860002008608B
:100F3000282348F6FF71CCF80010CEF8003033605B
:100F400013602B6023603B60B3629362092245F813
:100F5000242CC4F8D80F05F57F65C7F8D41F07F512
:100F6000FF2707F5FA67C6F8F83F2B6006F5FF265E
:100F7000C4F8D42F05F5FD2504F5FF24386006F2EA
:100F8000F4765148316005F5FF6504F5FD642B608A
:100F90002360026001F018FB72B64C4D4C4B4D4A79
:100FA0001B682C68126862B6510102D5322B88BFCB
:100FB0000134C3F58C33484FDFF81491DFF8148106
:100FC00003F23F134FF47A72A7FB031302FB04F4FE
:100FD00004EB1314192672B6D9F800102A68D8F851
:100FE00000E062B6C1F58C3303F23F13A7FB0303A5
:100FF0001EF0806FC4EB13134FF47A7002D03229C5
:1010000088BF013200FB0233B3F57A7F04D3013E7F
:1010100005D004F57A74DEE701F088FADBE700F02A
:101020002DFF72B62A4B2B4A1B682C68126862B6D9
:10103000520102D5322B88BF0134C3F58C33264FC1
:10104000DFF88C90DFF88C8003F23F134FF47A7254
:10105000A7FB031302FB04F404EB131440F2131672
:1010600072B6D9F800102A68D8F800E062B6C1F567
:101070008C3303F23F13A7FB03031EF0806FC4EB16
:1010800013134FF47A7002D0322988BF013200FB6B
:101090000233B3F57A7F04D3013E05D004F57A74A8
:1010A000DEE701F043FADBE7BDE8F88308E100E0A2
:1010B0000480034014800340248003402C800340BC
:1010C0001C8003403480034000800B409898FF1F31
:1010D00018E000E004ED00E0398EE33808800340BA
:1010E0000C80034021280BD810B40F4B53F830204C
:1010F00092F880422CB1012369B182F8803010BC93
:10110000704703EBC00043681A6841B922F002023D
:101110001A6010BCF4E782F8003110BCF0E742F02E
:1011200003021A6010BCEBE774400000212820D8AD
:101130001B4A02EBC00301295B680FD004291DD0B4
:1011400052F83000002280F8802299B1022922D082
:1011500003290DD14FF481721A60704752F83000A4
:101160004FF4A27280F880121A601A6822F02002EE
:101170001A6070474FF480721A60704752F830104E
:101180004FF4A272012081F880021A601A6842F0BE
:1011900020021A60704740F203121A60704700BFC5
:1011A0007440000072B60D490D4B0E4A1B6808686A
:1011B000126862B6520102D5322B88BF01300A494B
:1011C000C3F58C334FF47A7203F23F13A1FB031380
:1011D00002FB00F000EB1310704700BF9898FF1F50
:1011E00018E000E004ED00E0398EE338013806280D
:1011F0000BD872B6074B53F8203043B100205B6820
:101200000130002BFBD162B67047002070471846B2
:10121000F9E700BF6099FF1F30B472B6434A1378F4
:101220001C0706D5424B196A00295BD0996A002930
:1012300066D05378190706D53D4B196C002969D043
:10124000996C00295ED093781B0706D5384B196E30
:10125000002963D0996E002956D0D3781D0708D590
:10126000334BD3F88010002956D0D3F888100029CA
:101270004CD013791C0708D52D4BD3F8A0100029AA
:101280004ED0D3F8A810002942D05379190707D5BA
:10129000274BD3F8C010002944D0D3F8C81091B11F
:1012A00093791B0708D5224BD3F8E020002A3BD0C6
:1012B000D3F8E8201D243AB162B61E4B00221A7002
:1012C00030BC00F097BE19241A491B4D0A7843F828
:1012D000345003EBC4030830013A58600A7062B618
:1012E00030BC70470422134C144D217843F832501F
:1012F00003EBC20308304A1E5860227062B6EFE763
:101300000524E1E70924DFE70D24DDE71124DBE70D
:101310001524D9E70822E6E71022E4E70C22E2E7E9
:101320001422E0E71822DEE71C22DCE7E44100009B
:101330000080FF1FA199FF1FC800400088004000E7
:10134000431E062B1DD81B4A400140F0100030B44C
:10135000104472B6184CE25C032A1BD8DFE802F096
:101360000212151703220D88E25410F0080F14BF63
:10137000C823882343EA054308310360416062B60D
:1013800030BC704708300222EDE70522EBE7083059
:101390000422E8E7094A52F8230038B1084A52F813
:1013A0002300416042F8231062B6E9E742F82310B7
:1013B000034AF7E70080FF1FB099FF1F6099FF1FE6
:1013C0007C99FF1F2DE9F04FDFF818B3DFF818A361
:1013D00087B044E0AE4F4FEA930807EBC809013CE1
:1013E000D9F8042003F00803E4B2A2F1080003F0E6
:1013F000FF05002B40F00A8157F838301B0C99B2DA
:1014000022F8081C002B00F0F880A24B22F8065CA2
:1014100042F8045C53F82420002A00F01E829E4EFD
:1014200056F8243058609D4D46F8240035F81430A5
:10143000194425F8141000F0BDFD002800F01182B9
:10144000974A984B19F0080F00F1080018BF13468F
:10145000C9F8040047F8383008238BF800309BF8AF
:101460000040E4B265071AD58F4B1B78A3B18F49B2
:101470000A7802F0FF0322B1013BDBB20B7003B923
:1014800000BE8B490A7802F0FF032AB1013BDBB2B0
:101490000B70002B00F0B78104238BF8003004F0B0
:1014A000080303F0FF02002B00F0D4809AF800300C
:1014B000DBB21C098ED19B08754C54F8332004EB29
:1014C000C301C2F38302013A49680C2A00F29180F9
:1014D000DFE802F07F7F8F8F8F8F8F8F468F8F8F08
:1014E00007000868734E744A01924A686C4944F8D0
:1014F0003310724F726040F2816382B26E49306085
:1015000000254FF001099A420D602561A56187F819
:10151000009000F2F080B2F5D06F80F05D82B2F5FD
:10152000817F00F0488200F2FC81802A00F0C982AD
:10153000822A40F0F281B38803F07F03072B00F288
:10154000EC815F4A5F489B001A4405704570137830
:101550009D0740F1358480F800904FF00209E1E0EA
:10156000554B01931B684BB3DFF880E1534F564A4C
:10157000BEF800103878157840290E4645F0020C68
:1015800028BF4026002880F001003870A1EB06013A
:101590000CBF8820C82004EBCC0789B285F0010578
:1015A00040EA06407B60AEF8001044F83C0033444B
:1015B0001570002900F00481019A13603D4B1A88D0
:1015C000B2F5A06F15D100219A7859703F4B1A706F
:1015D0000FE0384E308842F22102904200F05881EC
:1015E00030683B4A334D904200F0EE802C4A44F87C
:1015F0003320384A012313702EE7294A294B19F06A
:10160000080F18BF134647F8383025E700F0F2FC02
:10161000314A324952F82430002B00F029815868B1
:101620000D5D42F8240003F10802C9F80420032DDF
:1016300005D8DFE805F05D02292602220A551A883E
:1016400019F0080F0CBF8823C82343EA024347F868
:10165000383001E7E00700F1D980210600F144812C
:10166000A20706D51E4A1F4913780220DBB2137069
:101670000870E30602D51B4B10221A7007B0BDE8B4
:10168000F08F04220A55DAE705220A55D7E700BF92
:101690000080FF1F0099FF1FA098FF1FAC9BFF1F3A
:1016A000C800400088004000AC99FF1F1D99FF1F33
:1016B000B999FF1F9899FF1F9C98FF1F1C99FF1F46
:1016C000C0200740A499FF1FA099FF1F9820074042
:1016D00021090002942007406099FF1FB099FF1F65
:1016E000882007408020074090200740BC98FF1FBB
:1016F00003220A55A3E740F621239A4200F0CB814A
:1017000000F2FC80B2F5106F00F0AF8140F62113BB
:101710009A4251D0B2F5086F40F0FF80B24BB34807
:101720001B780370F188494580F09083B04A1578A2
:1017300045F0020604EBC60340298E46586028BFD8
:101740004FF0400E002300EB0E08CEEB01014FEAF4
:101750000E4C02934FF00109C8204CEA000C9DF892
:10176000083044F836C085F001003B701070A14E7F
:10177000DFF87CC2002940F0F480BEF1400F1BD19D
:1017800040F0020004EBC004029BC4F80480994EB0
:101790000C04002B40F0FC8044F0880446F83040F4
:1017A00087F80090157008EB0103402904D100214F
:1017B000914A019811800360904A0123137018E741
:1017C000402E18BF0023F7E668688D4A90427FF4E8
:1017D0000DAF874A8B4F10783D788B4E097831706A
:1017E000002D40F0020180F0010616700CBF882227
:1017F000C82244F8312004EBC10185F00105002224
:101800003D704A60F2E600F029FC45E6794B7B48E2
:1018100077491A614FF0020E80F800E07B4F0A70A2
:101820007B49196099607B4E7B4D7C4C9A610D2100
:101830003970FF213170DFF808E229702270784D8D
:10184000784A8EF800109F27012406F8047C5D601A
:101850000470DA6007B0BDE8F08F43F82400724EE0
:10186000E1E5724A47F83800137801331370F3E565
:101870000B5D032B00F2988001A252F823F000BF09
:1018800059140000591400004F19000055190000A8
:10189000674A0D784878157050708D78C8789570C3
:1018A000D0700D79106815714D79557186288D7934
:1018B000957101F1070150D04D4A524F10783D7893
:1018C00080F0010E002D40F0020082F800E00CBF15
:1018D0008822C82244F8302004EBC00085F00105BE
:1018E00000223D7042607BE648494B4B80220D2030
:1018F00008701A70A2077FF5BCAEB3E642F221234E
:101900009A4200F0E48042F221339A4200F0C38010
:1019100042F221039A423FF44FAF3C4A0F23137027
:101920004AE740F202339A4240F0B180B28802F0B6
:101930007F02072AF1D87388002BEED13349029336
:10194000920011440A7842F002020A70A7E00023D4
:101950000B5581E501230B557EE5364A0F201070AB
:10196000AAE740297FF60CAF40F0020006EBC00268
:10197000029BC2F80480ABB12F4A224B8CF8005076
:1019800083F80090403908F1400346F830200FE713
:1019900044F0C80487F80090157008EB010346F87E
:1019A000304002E71A4AE8E719F0080F0CBF02239B
:1019B00003230B5550E5B28802F07F02072AACD80A
:1019C0007388002BA9D111490293920011440A781F
:1019D00022F002020A7062E0184B586800289CD07E
:1019E0007188B58833E000BFAC99FF1FA499FF1F31
:1019F000A099FF1F0080FF1FBC98FF1F9420074085
:101A0000020001001C99FF1FB899FF1FC02007406A
:101A10008800400088200740802007409820074029
:101A2000C098FF1F2099FF1FA098FF1FA199FF1FBB
:101A3000FC9BFF1F1D99FF1FC8004000EC410000E8
:101A40008C2007400C33586800283FF466AF1A8892
:101A50008A42F7D15A88AA42F4D1090A03290CBF55
:101A600090F80090B3F808905CE6AA4BAA4DB278C3
:101A70001A7005F1E00602E00835AE4230D02B6A5C
:101A80001806F9D5686A083800F0B4FAF4E7B2F538
:101A9000A06F7FF442AF002302934FF001090021B1
:101AA00088468C468E4608469C4A157845F00206C4
:101AB00004EBC603B9F1000F58600CBF8820C820A2
:101AC0004BE697484FF00209057045702AE69548A5
:101AD000954B964A0068B178186002951170DEE760
:101AE000934B944A9449954E954D96480395049688
:101AF0004FF0000902908846154605971E4630684B
:101B000028B1476800F076FA3846002FF9D1002353
:101B10003360049B28681A46002342F8293028B114
:101B2000476800F067FA3846002FF9D1029B00227F
:101B30001B782A6048F8042F039A4FF00001023BFB
:101B400022F81910032B07D8DFE803F06D026D02AD
:101B5000029B4FF001021A70029B09F10109013347
:101B6000B9F1070F06F1040605F104050293C6D189
:101B7000754D764E2B78059F00223270744A1907F6
:101B8000137000F1F780734A6B78137000222263A0
:101B9000A2631A07DFF8808177D4AB786E4ADFF84A
:101BA0007881137000221B072265A26558D4EB7858
:101BB0006A4ADFF86481137018074FF00002226749
:101BC000A26700F18F802B79654ADFF84C81137092
:101BD00019074FF00002C4F89020C4F8982069D487
:101BE000604A6B7913700022C4F8B020C4F8B820A2
:101BF0001A07DFF8248100F1CF80AB795A4A464DAD
:101C0000137000221B07C4F8D020C4F8D8200FD4CA
:101C100097F80090002289F001030293C4F8F020A5
:101C2000C4F8F8203BE7029B4FF000021A7093E7DC
:101C300000F0C0F9002800F0E9800830C5F8E400A1
:101C40004A48C4F8E00000F0B5F9334B002800F032
:101C5000D7800830464AC3F8EC00C3F8E820D7E73D
:101C600000F0A8F9002800F0B3800830C8F864003C
:101C70003E48206600F09EF9274B002800F0A38024
:101C800008303B4AD8669A6691E700F093F900283D
:101C900000F0CF800830C8F844003448206400F0D9
:101CA00089F91D4B002800F0BF800830304AD86405
:101CB0009A6472E700F07EF9002800F09380083003
:101CC000C8F8A4002948C4F8A00000F073F9124B2A
:101CD000002800F081800830254AC3F8AC00C3F822
:101CE000A8207DE700F066F9002800F09980083010
:101CF000C8F884001D48C4F8800000F05BF9064B6A
:101D0000002800F087800830194AC3F88C00C3F817
:101D1000882058E7AC99FF1F0080FF1FA099FF1F84
:101D2000A499FF1F9898FF1F049CFF1FC499FF1FD1
:101D30000099FF1F6099FF1F7899FF1FA098FF1F50
:101D4000AC9BFF1FB099FF1FE4410000A199FF1F4A
:101D5000C4200740C8200740CC200740D0200740BF
:101D6000D4200740D8200740DC20074088004000EE
:101D7000C800400000F01EF9002863D008306062FF
:101D80003B48206200F016F93A4B002855D0083045
:101D9000394AD8629A62F6E600F00CF960B308306E
:101DA000C8F8C4003248C4F8C00000F003F9314B51
:101DB000E0B10830304AC3F8CC00C3F8C8201CE7B3
:101DC0004FF00209AEE432789866531C3370EEE6A9
:101DD0003378013333704CE73278C3F8A800531CD2
:101DE0003370FDE63378013333706CE73278C3F833
:101DF000C800531C337000E7337801333370D2E7E7
:101E00003278C3F8E800531C337001E733780133AC
:101E1000337016E73278C3F88800531C3370D2E66B
:101E200033780133337066E732789864531C33702B
:101E3000B3E633780133337030E732789862531C5D
:101E40003370A0E63378013333709AE7B9F1400F6D
:101E5000CE464FF0000328BF4FF0400ECEEB0901F5
:101E60004FEA0E4C00EB0E0802934FF001091BE6FF
:101E7000880040000080FF1FC80040002DE9F843A3
:101E8000204C01F0CDF8002204F1E80023461A604E
:101E90005A60083383424FF00001F8D11A4A1B4FB1
:101EA00013681B4D1B481C4EDFF87880DFF878C0A4
:101EB000DFF87890DFF878E043F480231360C4F310
:101EC00007233B70C4F307432B70240EFF2302F556
:101ED00028320470114D88F8003011488CF8003019
:101EE000D4323370012389F8003070268EF8001048
:101EF0004FF40074102107F8183C2E700460117024
:101F0000BDE8F8830080FF1F348004409C20074018
:101F1000B0200740B42007401020074049E400E00B
:101F200008E100E080200740882007409420074017
:101F300000210740F8B51C4D2B7893B31B4E43F698
:101F4000014407E0013C2AD0337843BB00F0EEFAAD
:101F50002B7833B30620FFF749F90228F2D800F0B6
:101F600029F807460028EDD0DFF844E000230EF101
:101F7000400C337000F1080574460FCC64452860AE
:101F80006960AA60EB60A64605F11005F4D1402314
:101F90003B8039460620FFF7D3F90020F8BD012326
:101FA00033704FF0FF30F8BDAC99FF1FB799FF1F9A
:101FB000BC9BFF1F72B60D480268B2FA82F31D2B5C
:101FC00010DC4FF00041D94022EA0102026062B603
:101FD000074803EBC303DB00C2180021C1501046C1
:101FE0005160704762B60020704700BF388CFF1FF9
:101FF000BC83FF1F0D4B0E4AC31AA2FB03231B0910
:102000001D2B0CD80B4A127852B972B60A484FF001
:102010000041026821FA03F31A43026062B6704776
:10202000064A1278002AF0D0FFF7F6B8BC83FF1FEB
:10203000398EE338A199FF1F388CFF1FAC99FF1F21
:10204000044B054A1B6890881BB11A885B88D31A19
:1020500018447047C099FF1FAC9BFF1F38B50E4B4B
:102060001B7873B90D4C216861B103F0FF054B88F3
:102070000B800420FFF764F9256038BD084B01226E
:102080001A7038BDFFF796FF0028F7D00146BDE86B
:1020900038400420FFF754B9BA99FF1FBC99FF1FBD
:1020A000B999FF1F10B4047F4160022C0346C2603F
:1020B0000FD0EFF3108172B6427F32B9007F012852
:1020C0000AD0032812D001225A7701B962B610BC97
:1020D0007047836810BC1847114C2068A0B11148A4
:1020E0005A6102689A6103605361ECE70E4C206804
:1020F00080B10E485A6102689A61036053610C4ACC
:102100004FF080501060DEE7064A58619861236006
:102110001360D8E7054A5861986123601360EEE7C1
:10212000D899FF1FD499FF1FC899FF1FCC99FF1F93
:1021300004ED00E070B5EFF3108272B60C4C20682D
:1021400080B10C4E00254369236073B19D6102B9D3
:1021500062B6457783689847EFF3108272B62068BD
:102160000028F0D102B962B670BD3360EFE700BF5E
:10217000C899FF1FCC99FF1F2DE9F843794E3468A9
:10218000002C31D02368002B2CD1DFF8EC91764F56
:10219000DFF8E8811D46A36803B1DD602069336084
:1021A000036825751B684B456AD1037F4560022B88
:1021B000C46069D0EFF3108272B6437F43B9017FE8
:1021C000012900F09080032900F0998001234377D2
:1021D00002B962B66368002B3FD1346824B123682A
:1021E000002BD8D0013B2360EFF3108372B65F4A17
:1021F00000211068116003B962B6002800F0AD80BC
:102200004FF000083568C4464FF0020E0EE0CB1ABE
:102210008560C0F80CC001462B60E8604FF00108F3
:1022200080F814E00D463846002F51D08768002D05
:1022300053D0036829688B42E9D32C4603E0116828
:102240008B42144635D3A2685B1A0360002AF6D18C
:102250008260C4602946A060E2E73068414A23609A
:10226000002868D001688B4211D2CB1AA060E560CB
:102270000360C46014602046022323750446AEE761
:10228000224600219847A5E783689847A2E786463B
:1022900003E011688B4296463ED3DEF808205B1AB5
:1022A0002360002AF5D1A260C4F80CE0CEF8084003
:1022B000E2E7D268C2608460E060C268CB1A294657
:1022C00090600D46236080F814E03846002FADD1B1
:1022D000B8F1000F43D1BDE8F8838560C5600146C1
:1022E0004FF001089CE7DFF898E0DEF8001039B302
:1022F0001F4943610B6883610860586166E739686C
:1023000029B31C4943610B688361086058614FF031
:102310008053C8F8003059E7D268E260C4F808E09A
:10232000CEF80C40E268CB1A02219460CEF800305F
:102330002175044653E7A060E060146020469BE7E7
:102340000B4B41618161CEF8000018603EE7094BFC
:102350004161816138601860D9E7BDE8F883316078
:10236000BDE8F883D099FF1FC899FF1FE099FF1FB0
:10237000D499FF1FCC99FF1FA520000004ED00E0B9
:10238000D899FF1F024A136801331360FFF7F4BEA8
:102390009898FF1F0368C9B21B6818470368C9B241
:1023A0001B6818470368C9B21B6818470368C9B29D
:1023B0001B68184708B5084600F03EFB012008BD21
:1023C00008B5084600F038FB012008BD38B50846BE
:1023D0000D4601F035FC04460146284600F084FB1A
:1023E000204638BD10B508461446114600F07CFB67
:1023F000204610BD00F056BC08B5084600F0F4FABF
:10240000003018BF012008BD08B5084600F0CAFA20
:10241000003018BF012008BD0846114600F060BA20
:10242000084600F095BA00BF084600F03DBA00BF6C
:1024300000F0DCB9034B03EB5100B0FBF1F000F00E
:1024400033B900BF0044950810B5064B144603EBA2
:102450005100B0FBF1F000F027F92046BDE8104034
:1024600000F098B90044950800F004BC00F0CEBB21
:1024700000F0BCBB00F09CBB00F0A6BB704700BFE7
:10248000704700BF0168A9B10B4BF0B40B441B119E
:102490000A4E0B4F0B4D46F8237003F1440202F035
:1024A0001F0401235211A340002445F822308C6000
:1024B0000460F0BC704700BF008FFCBF4C8CFF1F56
:1024C0008124000080E100E0024A034B01211160F9
:1024D0001B6818470C7103404C8CFF1F024A034BCA
:1024E000012111605B6818471C7103404C8CFF1F71
:1024F000024A034B012111609B6818472C7103406D
:102500004C8CFF1F024A034B01211160DB68184706
:102510003C7103404C8CFF1F08B5FDF7A7FFFDF78A
:10252000B1FF00F003F8FAE7704700BF38B5224C5E
:10253000237803B138BD01232370FFF781FD70BB01
:1025400000F054FB40BB00F059FC10BB00F0ECFC69
:10255000E0B900232370EFF30583002BEAD1EFF3FA
:10256000108172B6154B1868E0B1154C2278CAB9C3
:1025700045691D6001232370C5B1AA6101B962B626
:1025800000254577836898472570D3E700F0BAFDAA
:10259000DFE700F0B5FDD9E7FFF770FFD3E7FFF7FE
:1025A000C3FFCDE70029C5D162B638BD054B1D601C
:1025B0000029E5D1E3E700BFE599FF1FD899FF1F88
:1025C000DC99FF1FD499FF1F30B42948294A2A4BB0
:1025D0002A4D6024E121047011701B78284C082BCF
:1025E00030D00A2B2748284937D00C2B0CBF152296
:1025F0003D2212232A60236002600B60234B244992
:102600001B78244ABBB101230B601360224B234982
:102610001B78234A012B26D9042B0FD9082B1ED94E
:10262000102B94BF862387230B6013601D4B012260
:102630001A7030BC70470B601360E7E784230B60AF
:102640001360F3E700F58E200F49083001221323B1
:102650002A60236002600B60D0E71922F7E7852328
:102660000B601360E2E780230B601360DEE700BFBE
:1026700000400740014007405C8CFF1F08B003404A
:102680000CB0034008B00B400CB00B40E799FF1FA3
:1026900020B0034020B00B405D8CFF1F24B00340EE
:1026A00024B00B40E699FF1F2B4A2C491368F0B564
:1026B00043F4806313600A78294F2A4E2A4D2B4C2D
:1026C0002B4900233B7033702B7023700B70002A52
:1026D0003DD0152A21D0274B1B78012B25D0052B67
:1026E00030D01F2827D8002002460125224B234C3A
:1026F0001A7023495D7004224FF0020E88273C2691
:10270000402598729A704FF4005083F813E05A7580
:102710001F74DE7025700860F0BD1A4B40F2133252
:102720001A60144B1B78012BD9D1174B4FF45172FF
:102730001F281A60D7D9C0F34432C0F3471500F000
:102740001F00D3E7114B4FF451721A60C9E7104BC9
:1027500040F213321A60BEE734800440309AFF1F03
:10276000749AFF1FED99FF1F7C9AFF1F759AFF1F38
:10277000EC99FF1F5E8CFF1F00A006402DE400E0D7
:1027800004E100E018C0044044A004401CC0044020
:1027900040A00440144B14499B7803F0EC0200F075
:1027A00003031343420700F00F0248BF43F0100336
:1027B000042A8B7013D00C4B0B4A5B79C10603F0D3
:1027C000EF0348BF43F0100353719379820603F07F
:1027D000EF03054A48BF43F01003937170478B79AC
:1027E00043F040038B71E6E700A00640214B1B68D5
:1027F0005B053ED510B5204C237823B1FFF796FE3C
:102800002378002BFAD11D481D4A1E4B4FF400546B
:1028100000210460D1701B78E3B1152B03D11A4B52
:1028200040F203121A60194B1B7803F07F03012B4F
:102830001AD0052B03D1164B40F203121A60154B28
:10284000154816491A68002303700B700AB101235A
:10285000137010BD124B40F203121A600B4B1B7821
:1028600003F07F03012BE4D10E4B40F203121A60F8
:10287000E5E7704734800440EC99FF1F84E100E0F5
:1028800000A00640309AFF1F18C004405E8CFF1F56
:102890001CC00440E899FF1F749AFF1FED99FF1FA9
:1028A00040A0044044A004400A4A38B505461378C5
:1028B00003F0FF04002BFAD101212846FEF736FC75
:1028C00021462846FEF70EFC034A044B52F83520F9
:1028D0001A6038BDEC99FF1F74400000789AFF1F02
:1028E00009B140F08000164A1378984218D010B40D
:1028F000144C2468640511D503F07F03012B1AD012
:10290000052B11D0002900F07F030CBF4FF451714B
:102910004FF45871012B0BD0052B02D0107010BC56
:102920007047094B1960F9E7074B00241C60E9E781
:10293000064B1960F2E7054B00241C60E2E700BF7C
:102940005E8CFF1F348004401CC0044044A004403F
:10295000104B1A7882420AD00F490968490505D5FB
:10296000AAB1152A09D068B1152801D0187070478E
:102970000A4A40F213311160F8E7084A0021116059
:102980000028F1D1064A40F213311160EEE7044904
:102990000A60E8E7309AFF1F3480044018C0044002
:1029A00040A004400D4B1B6813F4806305D0212820
:1029B00005D90B4B00201860704718467047094B2B
:1029C00010B5074C53F8303023600121FEF7AEFB01
:1029D000236800221A70012010BD00BF348004401B
:1029E000E899FF1F744000000F4B1B6813F48063CD
:1029F00008D0122808D0142811D00C4A537B03F0B9
:102A0000FE03537300207047094B40F202321A60F4
:102A1000064A537B43F00103537301207047054B73
:102A200040F202321A60F3E73480044000A006400E
:102A30000CA0044014C004402DE9F84F234B1B6840
:102A40005A053BD5224B1B680BB101221A70DFF8E7
:102A50009090204D99F80040DFF888801E4E013498
:102A60003F2C8ABF4FF0000A5FFA84FA54460746AB
:102A7000AB462B78A34216D1FEF70CFA40281FDC98
:102A800033791B06F5D59BF8003001333F2B86BF09
:102A900000221346DAB218F80330DBB2F3712A7061
:102AA0002B78A342E8D00D490B4BFFB20120BC228A
:102AB00008F80470087089F800A0DA70BDE8F88F93
:102AC000FF28D6DDFFF732FDD3E700BF3480044096
:102AD000789AFF1F759AFF1F00A00640EC99FF1F10
:102AE0007C9AFF1FF099FF1F2DE9F84F294B1B68B7
:102AF0005A0548D5284B1B6805460BB101221A70B0
:102B000005EB010A554540D2DFF89C80234CDFF8E5
:102B10009C90234F0AE015F8012B09F80B20214A5D
:102B20000123AA45137088F800602ED098F8003071
:102B3000227803F1010BBBF13F0F86BF0026B3469D
:102B40005FFA8BF69345E6D1BC22FA7005E03A793C
:102B500013060BD422789345DDD1FEF79BF940286C
:102B6000F5DDFF28F6DDFFF7E1FCF3E7227801321F
:102B70003F2A86BF00210A46D1B219F80220D2B2FC
:102B8000FA712170E6E7BDE8F88F054BBC22DA70D8
:102B9000BDE8F88F34800440789AFF1F759AFF1FB4
:102BA00000A00640EC99FF1F7C9AFF1FF099FF1FC1
:102BB00010B5044C237823B1FFF7B8FC2378002B21
:102BC000FAD110BDEC99FF1F064A074B1B7810780D
:102BD000DBB2C0B283422CBF3F3000F1FF30C01ADD
:102BE000704700BF759AFF1F7C9AFF1F054A064B6E
:102BF00010781B78C0B2DBB2984238BF4030C01AA0
:102C0000704700BF749AFF1FED99FF1F30B4154B3A
:102C1000154C1A782378D2B2DBB29A421ED0013317
:102C20003F2B0ED91149124B087819680023C0B206
:102C3000237021B1D31A1A2B01DC00230B7030BC96
:102C400070470A480A49C05C0968DDB2C0B2257005
:102C50000029F4D09A4238BF4032EBE74FF0FF3002
:102C6000EDE700BF749AFF1FED99FF1F349AFF1F15
:102C7000E899FF1F084A094B12781B78DBB29A4289
:102C800007D00133402B28BF0023054AD05CC0B2D7
:102C900070474FF0FF307047749AFF1FED99FF1F88
:102CA000349AFF1F0D4B1B685B0516D530B40C4BD7
:102CB0000C4CDA780C480D4902F0CB024025DA7052
:102CC0005D74DA7842F03402DA7023780268DBB29D
:102CD0000B700AB10023137030BC7047348004407D
:102CE00000A00640ED99FF1FE899FF1F749AFF1F8F
:102CF000F0B4384B1A7912F0300F2CD072B6997D9F
:102D000001F0FF0200293DD062B6334F33493878D5
:102D10000D78334E1C46C0B2EDB2431C402BE17916
:102D200028BF0023AB4202F1FF32C9B21CBFF154ED
:102D3000184612F0FF02F0D12A4B1B68C2B23A705B
:102D40004BB1A84236BFC5F14005401B40192728AA
:102D5000C4BF01221A701F49CA78D2B2150616D410
:102D600052060DD51B4B1B795B0609D51E4B1F491F
:102D70001B6800220A7003B11A70164B3C22DA70ED
:102D8000F0BC70474022D9795A7462B6E3E70B79F8
:102D90001C06E5D5164B174E1C783378E4B2DBB22F
:102DA0009C420ED0144D01E0A3420AD00133402BC7
:102DB00028BF00230879E85CC0B2C871087D0728E5
:102DC000F2D9DBB2034933700B79180644BF7C2378
:102DD000CB70C5E700A00640749AFF1FED99FF1F56
:102DE000349AFF1FE899FF1F789AFF1FEC99FF1F85
:102DF0007C9AFF1F759AFF1FF099FF1F054A064B2B
:102E000010781B78C0B2DBB2984238BF4030C01A8D
:102E1000704700BFF09AFF1F859AFF1FF0B4384B30
:102E20001A7912F0300F2CD072B6997D01F0FF02A2
:102E300000293DD062B6334F334938780D78334E90
:102E40001C46C0B2EDB2431C402BE17928BF0023E1
:102E5000AB4202F1FF32C9B21CBFF154184612F066
:102E6000FF02F0D12A4B1B68C2B23A704BB1A842A4
:102E700036BFC5F14005401B40192728C4BF0122B9
:102E80001A701F49CA78D2B2150616D452060DD54B
:102E90001B4B1B795B0609D51E4B1F491B68002283
:102EA0000A7003B11A70164B3C22DA70F0BC7047FE
:102EB0004022D9795A7462B6E3E70B791C06E5D54E
:102EC000164B174E1C783378E4B2DBB29C420ED01E
:102ED000144D01E0A3420AD00133282B28BF002360
:102EE0000879E85CC0B2C871087D0728F2D9DBB266
:102EF000034933700B79180644BF7C23CB70C5E7B8
:102F000000B00640F09AFF1F859AFF1FB09AFF1F7E
:102F1000809AFF1FF49AFF1F849AFF1FF89AFF1FE1
:102F2000F19AFF1F889AFF1F054A064B10781B78FD
:102F3000C0B2DBB2984238BF4030C01A704700BF01
:102F40006C9BFF1F019BFF1F30B42B4B1A7994061B
:102F50001FD52A48DA790378294901333F2B0978AC
:102F6000C8BF00238B42D2B203D0264CD9B2E25460
:102F70000170254A116861B1244A1278D2B2934295
:102F800036BFC2F140029B1A9B18272BC4BF0123F6
:102F90000B70194AD378DBB2180611D45A060DD536
:102FA000154B1B795B0609D5194B1A491B68002282
:102FB0000A7003B11A70104B2C22DA7030BC7047C3
:102FC00011790906EAD5144910480C780178C9B27C
:102FD0008C420DD04A1C272A84BF00210A460F4D7F
:102FE000054C98BFD1B2AA5CD2B2E2710170D5E7AC
:102FF0006C21D170D2E700BF00C006406C9BFF1F60
:10300000019BFF1F2C9BFF1FFC9AFF1F6D9BFF1F47
:10301000709BFF1F009BFF1F749BFF1F049BFF1FE4
:1030200070B584B072B6304B304D314870224126B5
:103030000F2480211A702E701A46047019701378AC
:103040001B06FCD52B4B186862B62B4B984298BFD9
:1030500000EB80004FF00A0298BF400001A900F089
:1030600053F89DF80420254B52B39DF805105A8063
:1030700061B39DF80620998052B39DF80710DA805D
:1030800041B39DF80820198132B39DF809105A8187
:1030900021B39DF80A20998112B39DF80B10DA81B3
:1030A00001B39DF80C2019824AB19DF80D105A8287
:1030B000092229B1162299821A7004B070BD082223
:1030C00001325200D2B21A7004B070BD0122F7E78B
:1030D0000222F5E70322F3E70422F1E70522EFE7F6
:1030E0000622EDE70722EBE700000240070002405E
:1030F00006000240080002407F969800B08EFF1F35
:10310000704700BF704700BFF0B44D1E2E4600242C
:1031100000E00134B0FBF2F302FB1300092800F1D8
:1031200030078ABF3730F8B2C0B206F8010F184630
:10313000002BEED10A1953704CB1107815F8016FBD
:1031400028700133E01A834202F80169F5DB084672
:10315000F0BC704780F0004002E000BF81F0004109
:1031600042001FBF5FEA410392EA030F7FEA226C2D
:103170007FEA236C6AD04FEA1262D2EB1363C1BFBD
:10318000D218414048404140B8BF5B42192B88BF2C
:10319000704710F0004F40F4000020F07F4018BF4F
:1031A000404211F0004F41F4000121F07F4118BF6F
:1031B000494292EA030F3FD0A2F1010241FA03FC17
:1031C00010EB0C00C3F1200301FA03F100F00043FF
:1031D00002D5494260EB4000B0F5000F13D3B0F1C7
:1031E000807F06D340084FEA310102F10102FE2A36
:1031F00051D2B1F1004F40EBC25008BF20F00100A6
:1032000040EA03007047490040EB000010F4000F53
:10321000A2F10102EDD1B0FA80FCACF1080CB2EBE6
:103220000C0200FA0CF0AABF00EBC2505242184345
:10323000BCBFD0401843704792F0000F81F40001EA
:1032400006BF80F400000132013BB5E74FEA4103BD
:103250007FEA226C18BF7FEA236C21D092EA030F29
:1032600004D092F0000F08BF0846704790EA010FA3
:103270001CBF0020704712F07F4F04D1400028BFD0
:1032800040F00040704712F100723CBF00F50000B2
:10329000704700F0004343F0FE4040F400007047E8
:1032A0007FEA226216BF08467FEA23630146420294
:1032B00006BF5FEA412390EA010F40F480007047A7
:1032C0004FF0000304E000BF10F0004348BF40424D
:1032D0005FEA000C08BF704743F0964301464FF089
:1032E00000001CE050EA010208BF70474FF00003E5
:1032F0000AE000BF50EA010208BF704711F0004326
:1033000002D5404261EB41015FEA010C02BF8446F5
:103310000146002043F0B64308BFA3F18053A3F554
:103320000003BCFA8CF2083AA3EBC25310DB01FA9B
:1033300002FC634400FA02FCC2F12002BCF1004F1F
:1033400020FA02F243EB020008BF20F001007047B0
:1033500002F1200201FA02FCC2F1200250EA4C0004
:1033600021FA02F243EB020008BF20EADC7070474A
:103370004FF0FF0C1CEAD0521EBF1CEAD15392EA58
:103380000C0F93EA0C0F6FD01A4480EA010C400234
:1033900018BF5FEA41211ED04FF0006343EA50108E
:1033A00043EA5111A0FB01310CF00040B1F5000FD0
:1033B0003EBF490041EAD3715B0040EA010062F17F
:1033C0007F02FD2A1DD8B3F1004F40EBC25008BF69
:1033D00020F00100704790F0000F0CF0004C08BF87
:1033E00049024CEA502040EA51207F3AC2BFD2F154
:1033F000FF0340EAC250704740F400004FF0000362
:10340000013A5DDC12F1190FDCBF00F0004070479B
:10341000C2F10002410021FA02F1C2F1200200FAD9
:1034200002FC5FEA310040F1000053EA4C0308BFA0
:1034300020EADC70704792F0000F00F0004C02BFF1
:10344000400010F4000F013AF9D040EA0C0093F06C
:10345000000F01F0004C02BF490011F4000F013BC6
:10346000F9D041EA0C018FE70CEAD15392EA0C0F34
:1034700018BF93EA0C0F0AD030F0004C18BF31F09F
:10348000004CD8D180EA010000F00040704790F075
:10349000000F17BF90F0004F084691F0000F91F019
:1034A000004F14D092EA0C0F01D142020FD193EADF
:1034B0000C0F03D14B0218BF084608D180EA010067
:1034C00000F0004040F0FE4040F40000704740F043
:1034D000FE4040F4400070474FF0FF0C1CEAD05211
:1034E0001EBF1CEAD15392EA0C0F93EA0C0F69D06D
:1034F000A2EB030280EA010C49024FEA402037D0D8
:103500004FF0805343EA111143EA10130CF00040CE
:103510008B4238BF5B0042F17D024FF4000C8B42BE
:1035200024BF5B1A40EA0C00B3EB510F24BFA3EB9E
:10353000510340EA5C00B3EB910F24BFA3EB91036E
:1035400040EA9C00B3EBD10F24BFA3EBD10340EAC8
:10355000DC001B0118BF5FEA1C1CE0D1FD2A3FF60E
:1035600050AF8B4240EBC25008BF20F001007047C3
:103570000CF0004C4CEA50207F32C2BFD2F1FF0366
:1035800040EAC250704740F400004FF00003013A97
:1035900037E792F0000F00F0004C02BF400010F43B
:1035A000000F013AF9D040EA0C0093F0000F01F04F
:1035B000004C02BF490011F4000F013BF9D041EA71
:1035C0000C0195E70CEAD15392EA0C0F08D14202A4
:1035D0007FF47DAF93EA0C0F7FF470AF084676E777
:1035E00093EA0C0F04D14B023FF44CAF08466EE750
:1035F00030F0004C18BF31F0004CCAD130F000421E
:103600007FF45CAF31F000437FF43CAF5FE700BF75
:103610000B460146184600F001B800BF13460A46A3
:103620000146022000F07ABB014B1868704700BFCA
:10363000F092FF1F70B50F4E0F4D761BB61018BFDE
:10364000002405D0013455F8043B9847A642F9D12F
:103650000A4E0B4D761B00F025FEB61018BF002455
:1036600006D0013455F8043B9847A642F9D170BD05
:1036700070BD00BFB0420000B0420000C042000078
:10368000B0420000024B0146186800F00BB800BFC2
:10369000F092FF1F024B0146186800F003BC00BF08
:1036A000F092FF1F2DE9F04F01F10B05162D83B0AD
:1036B000064640F29F8035F0070500F1BF80A94221
:1036C00000F2BC8000F0A6FAB5F5FC7FC0F09C8249
:1036D0006B0A00F0BA80042B00F28381A80900F184
:1036E000390E4FEA4E033830C44F07EB8303A3F182
:1036F00008015C68A14207D1ACE0002A80F2AC80EE
:10370000E468A14200F0A680636823F003035A1B1B
:103710000F2AF2DDB9493C6901F1080E744500F049
:10372000B381636823F003035A1B0F2A00F39981C6
:10373000002AC1F814E0C1F810E080F29E80B3F5D1
:10374000007F80F06781DB0803F1010C01229B10F0
:1037500002FA03F34A6851F83C80C4F8088001EB90
:10376000CC091A43A9F10803E3604A6041F83C40E0
:10377000C8F80C40831001249C40944200F28A80D7
:10378000144206D120F003006400144200F104004A
:10379000FAD007EBC009CC468046DCF80C108C450B
:1037A00007D173E1002A80F28181C9688C4500F05D
:1037B0006D814B6823F003035A1B0F2AF2DD0C4680
:1037C000D1F80CC054F8088F4B1945F001054D6035
:1037D00042F00101C8F80CC03046CCF808807B618B
:1037E0003B61C3F80CE0C3F808E059609A5000F060
:1037F00013FA1FE0102921D800F00CFA1025062337
:1038000002207E4F07EB8303A3F108025C68944219
:1038100000F045816368E168A56823F00303234451
:1038200030465A68E96042F001028D605A6000F04B
:10383000F3F90834204603B0BDE8F08F00240C23D0
:103840002046336003B0BDE8F08F80234FF0400E78
:103850003F2049E770465DE72344E1685A68A56860
:1038600042F00102E96030468D605A6000F0D4F900
:103870000834204603B0BDE8F08F234430465A6830
:1038800042F001025A6000F0C7F90834204603B044
:10389000BDE8F08FBC68636823F00308A84504D333
:1038A000C5EB08030F2B00F38C80554BDFF86091BC
:1038B0001A68D9F8003001332A4404EB080A00F0F2
:1038C000608102F580520F3222F47F6222F00F02F3
:1038D00011463046019200F0A1F9B0F1FF3F834656
:1038E000019A00F05881824500F2FC80454B19682E
:1038F000DA451144196000F05381D9F80000DFF86F
:1039000010E101301BBFCAEB0B0A5144CEF800B0E6
:1039100019601BF0070100F01781C1F10800C1F523
:103920008051834408315A44C2F30B02C2EB0109AF
:1039300049463046019300F071F9431C019B00F0A9
:103940003F81CBEB00024A4442F001021968C7F8FC
:1039500008B04944BC42CBF804201960DFF8A490B9
:1039600016D0B8F10F0F40F2FD806268A8F10C0389
:1039700023F00703E01802F001024FF0050E1A438E
:103980000F2B6260C0F804E0C0F808E000F21C8170
:103990001D4BBC681A68914288BF19601B4B1A689E
:1039A0009142626888BF196022F003029542A2EB3F
:1039B000050301D80F2B04DC304600F02DF900245C
:1039C00038E7621943F0010345F0010565603046B0
:1039D000BA60536000F020F90834204603B0BDE817
:1039E000F08F142B71D9542B00F2A480280B00F116
:1039F0006F0E4FEA4E036E3076E600BFF492FF1F63
:103A0000809BFF1F849BFF1F7C9BFF1F789BFF1FDA
:103A10000097FF1F5A0A042A5ED9142A00F2B380C5
:103A200002F15C0149005B3207EB810C57F8211071
:103A3000DFF8DC81ACF1080C8C4500F088804A6826
:103A400022F00302934202D289688C45F7D1D1F863
:103A50000CC07A68C4F80CC0A160CCF80840CC60F7
:103A600088E6631942F0010745F0010565603046BC
:103A70004B610B61C3F80CE0C3F808E05F609A503B
:103A8000083400F0C9F8D5E64A6873E608F1010881
:103A900018F0030F0CF1080C7FF47FAE30E0DC6807
:103AA000A34208BF02303FF435AEB3E60B440C46E8
:103AB0005A68C96854F8085F42F001025A603046FB
:103AC000E9608D6000F0A8F8B4E603F15C0E03F144
:103AD0005B004FEA4E0307E69A0902F139014900FB
:103AE0003832A1E7BC424A4B3FF400AF9C686268A1
:103AF00022F003025AE759F80839994540F08280CC
:103B000010F0030F00F1FF30F5D17B6823EA0403C6
:103B10007B6064009C423FF6BDAE002C3FF4BAAE21
:103B20001C4240467FF435AE64001C4200F10400A4
:103B3000FAD02EE6B3F5AA7F18D8E80B00F1780E7C
:103B40004FEA4E037730CFE54FF48051EBE6012189
:103B5000D8F80430921001FA02F21A43C8F804208F
:103B6000614677E70123CBF8043025E740F2545251
:103B7000934220D8A80C00F17D0E4FEA4E037C3012
:103B8000B2E51032A4E6542A26D81A0B02F16F01CE
:103B900049006E3248E7BC68626822F0030205E71C
:103BA000CAF30B0000287FF4A8AE4244BB6842F081
:103BB00001025A60ECE6FE234FF07F0E7E2093E573
:103BC00001224FF00009C1E604F10801304600F07F
:103BD00069F9D9F80010DBE6B2F5AA7F05D8DA0B4F
:103BE00002F17801490077321EE740F254518A42CF
:103BF00005D89A0C02F17D0149007C3214E7FE21C0
:103C00007E2211E77B6884E7E808431C5B00F8E547
:103C1000F492FF1F704700BF704700BF38B5074CD4
:103C20000023054608462360FDF714F9431C00D025
:103C300038BD2368002BFBD02B6038BD089CFF1FCC
:103C400090F800F06DE9024520F007016FF0000CDC
:103C500010F0070491F820F040F049804FF0000484
:103C60006FF00700D1E9002391F840F000F108005F
:103C700082FA4CF2A4FA8CF283FA4CF3A2FA8CF397
:103C80004BBBD1E9022382FA4CF200F10800A4FAFE
:103C90008CF283FA4CF3A2FA8CF3E3B9D1E9042352
:103CA00082FA4CF200F10800A4FA8CF283FA4CF389
:103CB000A2FA8CF37BB9D1E9062301F1200182FA43
:103CC0004CF200F10800A4FA8CF283FA4CF3A2FA49
:103CD0008CF3002BC6D0002A04BF04301A4612BA57
:103CE000B2FA82F2FDE8024500EBD2007047D1E95A
:103CF000002304F00305C4F100004FEAC50514F0E9
:103D0000040F91F840F00CFA05F562EA05021CBFB9
:103D100063EA050362464FF00004A9E72DE9F04786
:103D2000254C2568D5F8484106468846924699466E
:103D3000C4B360681F2817DC431C76B104EB800510
:103D40000122C5F888A0D4F8881182401143022EC0
:103D5000C4F88811C5F808911ED00230636044F899
:103D600020800020BDE8F087144B03B34FF4C870E7
:103D7000FFF788FC0446D0B1D5F84831002780E829
:103D80008800C5F8484138460123C4F88871C4F852
:103D90008C71002EE1D0D1E7D4F88C110A43C4F81D
:103DA0008C21DAE705F5A674C5F84841C1E74FF064
:103DB000FF30BDE8F08700BFA0420000853600005C
:103DC000024B13B1024800F005B870470000000034
:103DD000E13D0000002301461A461846FFF79EBF4A
:103DE00038B5074D074C2C1BA41005D0013C55F8E5
:103DF000043D9847002CF9D1BDE8384000F060BA86
:103E00000000000000000000F8B5234F0C460646F5
:103E1000FFF700FFBB685D6825F00305291B01F66D
:103E2000EF7121F47F6121F00F01A1F58054B4F509
:103E3000805F07DB00213046FFF7F0FEBB682B44B4
:103E4000984204D03046FFF7E7FE0020F8BD6142FB
:103E50003046FFF7E3FE01300DD0104BBA68196809
:103E60002D1B45F001053046091B55601960FFF711
:103E7000D3FE0120F8BD00213046FFF7CFFEBA681F
:103E8000831A0F2BDEDD064C0449246843F001033E
:103E9000001B53600860D5E7F492FF1F849BFF1F4F
:103EA0000097FF1F002945D02DE9F0410D468046BF
:103EB000FFF7B0FE55F8047C6A4927F00103A5F12D
:103EC0000804E2188E685068B24220F0030062D005
:103ED000FE0750600BD455F8087CE41B01F1080E76
:103EE000A56875453B446FD0E768EF60BD60151865
:103EF0006D68ED0742D543F001026260E350B3F50F
:103F0000007F18D2DB085A1C4D6851F83270A76048
:103F100001209B1000FA03F301EBC2001D43083897
:103F2000E0604D6041F83240FC604046BDE8F04141
:103F3000FFF772BE70475A0A042A53D89A0902F151
:103F400039077F0002F1380501EB870051F827207F
:103F50004449083890424DD0516821F003018B420A
:103F600002D292689042F7D1D068E060A26084608B
:103F7000D4604046BDE8F041FFF74EBE95683A4F29
:103F8000BD4203443FD0D068E86043F00102856041
:103F90006260E350B3E7FF07034407D455F8082CE9
:103FA000A41A1344A068E268C26090602F4A1268A5
:103FB00043F00100934260608C60B6D32C4B4046C6
:103FC0001968FFF721FFB0E711184968C90744D401
:103FD0009168D268CA60034443F001009160606058
:103FE000E350A2E7142A17D802F15C077F0002F120
:103FF0005B05A9E7AA104B68012505FA02F21343F5
:104000004B600246B1E743F001024C610C61E56090
:10401000A5606260E35088E7542A06D81A0B02F1C3
:104020006F077F0002F16E058EE7B2F5AA7F06D812
:10403000DA0B02F178077F0002F1770584E740F29E
:104040005450824206D89A0C02F17D077F0002F19B
:104050007C0579E7FE277E2576E743F00102626062
:10406000E35062E7F492FF1FFC92FF1FFC96FF1FD4
:10407000809BFF1F4008FE4340A004404408FE43CD
:1040800044A004400018FE4300C004403000FE433A
:10409000309004403400FE43349004401C18FE432A
:1040A0001CC004401018FE4310C004400818FE4312
:1040B00008C004400C18FE430CC004400C10FE4322
:1040C0000CB004401010FE4310B004401810FE4322
:1040D00018B004401C10FE431CB004401410FE43F2
:1040E00014B004400418FE4304C004400010FE4312
:1040F00000B004400008FE4300A004400408FE4352
:1041000004A004400C08FE430CA004400808FE4331
:1041100008A004401418FE4314C004401818FE43BD
:1041200018C004400410FE4304B004400810FE43CD
:1041300008B004401400FE43149004404C08FE43B1
:104140004CA004400420FE4304D004402410FE434D
:1041500024B004402010FE4320B004402810FE4349
:1041600028B004402C10FE432CB004400020FE4335
:1041700000D004404808FE4348A004401000FE431D
:10418000109004400000000000000000C123000067
:10419000E52300007924000075240000712400004C
:1041A0006D2400006924000035240000492400002B
:1041B00031240000292400002124000019240000DB
:1041C00009240000F9230000F523000095230000D6
:1041D0009D230000A5230000AD230000CD23000097
:1041E000B523000015151915151515FF0001000060
:1041F000B48CFF1F1200000000020000E08CFF1FC3
:10420000AF00000000220200908DFF1F3F00000061
:1042100000210200348DFF1F09000000002203006E
:10422000608CFF1F54000000002103004D8DFF1F14
:104230000900000000220400D08DFF1F7400000060
:1042400000210400668DFF1F090000000022050008
:10425000448EFF1F28000000002105007F8DFF1FF6
:104260000900000000030000AC8EFF1F00000000EA
:1042700001030904C88CFF1F0000000002030904A9
:104280006C8EFF1F0000000003030904B08EFF1FA7
:10429000000000000000000000000000000000001E
:1042A000C88EFF1FF8B500BFF8BC08BC9E4670471B
:1042B000C13D0000350400008D090000D10D000053
:0442C000F8B500BF8E
:1042C400000000000C9CFF1FFFFFFFFF8C4100005B
:1042D40000000000E803000000000000812400004A
:1042E4008124000081240000812400000A040100CC
:1042F40005010902A1018501050919012908150013
:104304002501950875018102050109300931093833
:104314001581257F750895038106050C0A38021559
:1043240081257F750895018106C005010902A10157
:104334008502050109300931150026FF7F751095A6
:10434400028102C012011001EF020140C01687046D
:1043540075020102030100001803540065006500A2
:104364006E00730079006400750069006E006F00D0
:104374000902AF00060100C032080B00020202016C
:1043840004090400000102020100052400100105D3
:104394002401010104240206052406000107058204
:1043A4000310004009040100020A0000000705038D
:1043B40002400000070584024000000904020001D5
:1043C40003010100092111010001223F00070581B9
:1043D400030800010904030001030000000921117E
:1043E40001000122540007058503080002090404A2
:1043F40000010300000009211101000122740007DB
:1044040005860340000109040500010300000009BA
:104414002111010001222800070587030800040078
:1044240005010906A10175019508050719E029E7A9
:104434001500250181029501750881039505750113
:104444000508190129059102950175039103950643
:1044540075081500257F05071900297F8100C00014
:1044640005010904A10115002501750195800509BF
:1044740019012980810205010901A100150027FF06
:10448400FF00007510951709300931093209330905
:104494003409350936093609360936093609360923
:1044A4003609360936093609360936093609360910
:1044B40036093609368102C0150025073500463B0A
:1044C4000175049504651405010939093909390987
:1044D400398142C0050C0901A101750A950419002E
:1044E4002A9C021500269C0281000501750895038B
:1044F400190029B7150026B7008100C03E035300F8
:1045040065007200690061006C002F004B006500BB
:10451400790062006F006100720064002F004D009A
:104524006F007500730065002F004A006F0079006A
:1045340073007400690063006B0000000403090445
:104544000C03000000000000000000000000000058
:10455400000000000000000000000000B491FF1FF4
:104564001C92FF1F8492FF1F000000000000000047
:104574000000000000000000000000000000000037
:104584000000000000000000000000000000000027
:104594000000000000000000000000000000000017
:1045A4000000000000000000000000000000000007
:1045B40000000000000000000000000000000000F7
:1045C40000000000000000000000000000000000E7
:1045D40000000000000000000000000000000000D7
:1045E40000000000000000000000000000000000C7
:1045F40000000000000000000000000000000000B7
:1046040001000000000000000E33CDAB34126DE653
:10461400ECDE05000B0000000000000000000000BC
:104624000000000000000000000000000000000086
:104634000000000000000000000000000000000076
:104644000000000000000000000000000000000066
:104654000000000000000000000000000000000056
:10498400C88EFF1F0000000000000000F492FF1F0B
:10499400F492FF1FFC92FF1FFC92FF1F0493FF1F62
:1049A4000493FF1F0C93FF1F0C93FF1F1493FF1F0F
:1049B4001493FF1F1C93FF1F1C93FF1F2493FF1FBF
:1049C4002493FF1F2C93FF1F2C93FF1F3493FF1F6F
:1049D4003493FF1F3C93FF1F3C93FF1F4493FF1F1F
:1049E4004493FF1F4C93FF1F4C93FF1F5493FF1FCF
:1049F4005493FF1F5C93FF1F5C93FF1F6493FF1F7F
:104A04006493FF1F6C93FF1F6C93FF1F7493FF1F2E
:104A14007493FF1F7C93FF1F7C93FF1F8493FF1FDE
:104A24008493FF1F8C93FF1F8C93FF1F9493FF1F8E
:104A34009493FF1F9C93FF1F9C93FF1FA493FF1F3E
:104A4400A493FF1FAC93FF1FAC93FF1FB493FF1FEE
:104A5400B493FF1FBC93FF1FBC93FF1FC493FF1F9E
:104A6400C493FF1FCC93FF1FCC93FF1FD493FF1F4E
:104A7400D493FF1FDC93FF1FDC93FF1FE493FF1FFE
:104A8400E493FF1FEC93FF1FEC93FF1FF493FF1FAE
:104A9400F493FF1FFC93FF1FFC93FF1F0494FF1F5D
:104AA4000494FF1F0C94FF1F0C94FF1F1494FF1F0A
:104AB4001494FF1F1C94FF1F1C94FF1F2494FF1FBA
:104AC4002494FF1F2C94FF1F2C94FF1F3494FF1F6A
:104AD4003494FF1F3C94FF1F3C94FF1F4494FF1F1A
:104AE4004494FF1F4C94FF1F4C94FF1F5494FF1FCA
:104AF4005494FF1F5C94FF1F5C94FF1F6494FF1F7A
:104B04006494FF1F6C94FF1F6C94FF1F7494FF1F29
:104B14007494FF1F7C94FF1F7C94FF1F8494FF1FD9
:104B24008494FF1F8C94FF1F8C94FF1F9494FF1F89
:104B34009494FF1F9C94FF1F9C94FF1FA494FF1F39
:104B4400A494FF1FAC94FF1FAC94FF1FB494FF1FE9
:104B5400B494FF1FBC94FF1FBC94FF1FC494FF1F99
:104B6400C494FF1FCC94FF1FCC94FF1FD494FF1F49
:104B7400D494FF1FDC94FF1FDC94FF1FE494FF1FF9
:104B8400E494FF1FEC94FF1FEC94FF1FF494FF1FA9
:104B9400F494FF1FFC94FF1FFC94FF1F0495FF1F58
:104BA4000495FF1F0C95FF1F0C95FF1F1495FF1F05
:104BB4001495FF1F1C95FF1F1C95FF1F2495FF1FB5
:104BC4002495FF1F2C95FF1F2C95FF1F3495FF1F65
:104BD4003495FF1F3C95FF1F3C95FF1F4495FF1F15
:104BE4004495FF1F4C95FF1F4C95FF1F5495FF1FC5
:104BF4005495FF1F5C95FF1F5C95FF1F6495FF1F75
:104C04006495FF1F6C95FF1F6C95FF1F7495FF1F24
:104C14007495FF1F7C95FF1F7C95FF1F8495FF1FD4
:104C24008495FF1F8C95FF1F8C95FF1F9495FF1F84
:104C34009495FF1F9C95FF1F9C95FF1FA495FF1F34
:104C4400A495FF1FAC95FF1FAC95FF1FB495FF1FE4
:104C5400B495FF1FBC95FF1FBC95FF1FC495FF1F94
:104C6400C495FF1FCC95FF1FCC95FF1FD495FF1F44
:104C7400D495FF1FDC95FF1FDC95FF1FE495FF1FF4
:104C8400E495FF1FEC95FF1FEC95FF1FF495FF1FA4
:104C9400F495FF1FFC95FF1FFC95FF1F0496FF1F53
:104CA4000496FF1F0C96FF1F0C96FF1F1496FF1F00
:104CB4001496FF1F1C96FF1F1C96FF1F2496FF1FB0
:104CC4002496FF1F2C96FF1F2C96FF1F3496FF1F60
:104CD4003496FF1F3C96FF1F3C96FF1F4496FF1F10
:104CE4004496FF1F4C96FF1F4C96FF1F5496FF1FC0
:104CF4005496FF1F5C96FF1F5C96FF1F6496FF1F70
:104D04006496FF1F6C96FF1F6C96FF1F7496FF1F1F
:104D14007496FF1F7C96FF1F7C96FF1F8496FF1FCF
:104D24008496FF1F8C96FF1F8C96FF1F9496FF1F7F
:104D34009496FF1F9C96FF1F9C96FF1FA496FF1F2F
:104D4400A496FF1FAC96FF1FAC96FF1FB496FF1FDF
:104D5400B496FF1FBC96FF1FBC96FF1FC496FF1F8F
:104D6400C496FF1FCC96FF1FCC96FF1FD496FF1F3F
:104D7400D496FF1FDC96FF1FDC96FF1FE496FF1FEF
:104D8400E496FF1FEC96FF1FEC96FF1F0000020045
:044D9400FFFFFFFF1F
:00000001FF
