:1000000000800020BD0100006D12000025120000DC
:100010002512000025120000251200002512000004
:100020002512000025120000251200006D120000AC
:100030006D120000251200006D26000071260000E0
:100040006D1200006D1200006D1200006D120000B4
:100050006D1200006D1200006D1200006D120000A4
:100060006D1200006D1200006D1200006D12000094
:100070006D1200006D1200006D1200006D12000084
:100080006D1200006D1200006D1200006D12000074
:100090006D1200006D1200006D1200006D12000064
:1000A0006D1200006D1200006D1200006D12000054
:1000B0006D1200006D1200006D1200006D12000044
:1000C0006D1200006D1200006D1200006D12000034
:1000D0006D1200006D1200006D1200006D12000024
:1000E0006D1200006D1200006D1200006D12000014
:1000F0006D1200000D3500006D1200006D12000041
:100100006D1200006D1200006D1200006D120000F3
:100110006D1200006D1200006D1200006D120000E3
:100120006D1200006D1200006D1200006D120000D3
:100130006D1200006D1200006D1200006D120000C3
:100140006D1200006D1200006D1200006D120000B3
:10015000C9270000DD270000F12700000528000066
:100160006D1200008D1700006D1200006D1200006E
:100170006D1200006D1200006D1200006D12000083
:100180006D1200006D1200006D1200006D12000073
:100190006D1200006D1200006D1200006D12000063
:1001A0006D1200006D1200006D1200006D12000053
:1001B0006D1200006D1200006D120000564B4CF2E3
:1001C000205210B51A804DF628121A8000BF00BFC9
:1001D00001F050F8514B4FF010621A60504A9A608B
:1001E000504ADA60504A136813F4807304D14F49BF
:1001F0000B604FF4A85313604D4B1A78110703D5C9
:100200001A7842F008021A704A4B4B492A221A7097
:100210004A4A4B4B8B4204D252F8040F43F8040B6A
:10022000F8E7484B484900228B4202D243F8042B9E
:10023000FAE74649464A002352F8230041F82300D2
:1002400001336F2BF8D1434B434A802103F8011B44
:100250009342FBD1414B3D4A1A60414B8A221A70AE
:10026000A3F5805324225A70A0221A709A7992071B
:10027000FCD59A79D406FCD43A4A937903F00C035E
:10028000082B384BF9D103221A7140225A719A79FE
:100290009006FCD5334A9179324B4906FBD5324A58
:1002A000324911600221516020221A709A7902F0BD
:1002B0000C020C2AFAD12E4B2E4A1A602E4B45F610
:1002C000BF521A6000225A60072243F8042C2B4ABE
:1002D000C3F80C2D62B601F0FFF8144B1B68DA0767
:1002E00005D5274801F06AF8264B274A1A60274BA4
:1002F0001B785B0609D5234C234B22689A4204D114
:100300001F4801F05BF80023236003F04FFC00F06E
:10031000B7FF02F0D1FBFEE70E200540308004401D
:10032000823F04000100002B10D0034014D0034092
:1003300002D0074000E007407C93FF1F104F0000F1
:100340006089FF1F7C93FF1F7097FF1F0082FF1FB4
:100350000000000000E400E05FE400E008ED00E0E1
:100360000050064000400640448004400000333303
:1003700004800440C010050014E000E000002020CC
:10038000F27D13601CE00340A5C3945A00F00740BF
:10039000FFFFFFFFFFFFFFFFFFFFFFFFFFFFFFFF6D
:1003A000FFFFFFFFFFFFFFFFFFFFFFFFFFFFFFFF5D
:1003B000FFFFFFFFFFFFFFFFFFFFFFFFFFFFFFFF4D
:1003C000FFFFFFFFFFFFFFFFFFFFFFFFFFFFFFFF3D
:1003D000FFFFFFFFFFFFFFFFFFFFFFFFFFFFFFFF2D
:1003E000FFFFFFFFFFFFFFFFFFFFFFFFFFFFFFFF1D
:1003F000FFFFFFFFFFFFFFFFFFFFFFFFFFFFFFFF0D
:10040000FFFFFFFFFFFFFFFFFFFFFFFFDEF9FFFF23
:1004100010B5054C237833B9044B13B10448AFF33E
:1004200000800123237010BD7C93FF1F000000009B
:100430000C4F0000084B10B51BB108490848AFF33A
:1004400000800848036803B910BD074B002BFBD0A0
:10045000BDE81040184700BF000000008093FF1F58
:100460000C4F00007C93FF1F0000000008B50348FC
:1004700000F03EFD024B01221A7008BDBC93FF1F25
:100480003D96FF1F30B5204D89B0002402E001F0F9
:10049000CDFF0134E1B2684602F09AFA694604A839
:1004A00002F078FA194904A802F0DEFA0146184869
:1004B00002F0B2F904A802F02DFA684602F02AFA16
:1004C00035F8021F124802F01DFA0F2C4FF00101FF
:1004D0001048DCD10E4802F0C5F90A210E4801F09F
:1004E000A5FF0E4B0A48197802F00CFA0D210C48B2
:1004F00001F09CFF0B4B0648197802F003FA044800
:1005000002F0B0F909B030BD9693FF1F684C0000AF
:100510009489FF1F784C0000604C0000F894FF1F86
:100520006C4C0000B893FF1F2DE9F041CC4DCD4B32
:10053000CD4ACE48294600F0ADFD002800F08C8160
:100540006A88CB4FCB4ECC4C3378DD3AC2EB0242BB
:1005500087FB02011144D217C2EBA1224FF6FF78AC
:10056000424528BF42462282002B00F0898129881B
:10057000AA88DD39C1EB0141DD3AC2EB024287FBBB
:1005800001E0084487FB02E7C917C1EBA02117442B
:10059000D217C2EBA722414528BF4146424528BF9A
:1005A00042466182A2822A896989B148DD3AC2EB5A
:1005B0000242DD39C1EB014180FB027E964480FBA3
:1005C0000170D217C2EBAE2247184FF6FF7EC81754
:1005D000C0EBA721724528BF7246714528BF7146FE
:1005E000E2822183EA88A249DD3AC2EB024281FB22
:1005F00002011144D217C2EBA1224FF6FF718A42C9
:1006000028BF0A466283AA899C49DD3A02EB42026E
:1006100081FB0201D217D2EB212200F08B832168EB
:1006200021F001002060002B00F0A481012A00F0DD
:10063000DA8321F00301AA899048DD3A02EB4202F5
:1006400080FB0270D217C2EB2022022A00F07883CE
:1006500021F004012160002B00F00682EA8987491D
:10066000DD3A02EB420281FB0201D217D2EB2122DA
:1006700040F0E281216841F0080121F01001EA898F
:100680007E48DD3A02EB420280FB0270D217C2EBD9
:100690002022022A00F0708321F020012160002B2B
:1006A00000F0B0822A8A7549DD3A02EB420281FBF2
:1006B0000201D217D2EB212240F0C981216841F01A
:1006C000400121F080012A8A6C48DD3A02EB4202A7
:1006D00080FB0270D217C2EB2022022A00F0448372
:1006E00021F480712160002B00F0F2826A8A634954
:1006F000DD3A02EB420281FB0201D217D2EB21224A
:1007000040F08D81216841F4007121F480616A8A92
:100710005A48DD3A02EB420280FB0270D217C2EB6C
:100720002022022A00F0248321F400612160002BA2
:1007300000F0CC81AA8A5149DD3A02EB420281FBEA
:100740000201D217D2EB212240F05081216841F4FE
:10075000805121F40051AA8A4848DD3A02EB420256
:1007600080FB0270D217C2EB2022022A00F0F8822E
:1007700021F480412160002B00F00D82EA8A3F497C
:10078000DD3A02EB420281FB0201D217D2EB2122B9
:1007900040F01F81216841F4004121F48031EA8A50
:1007A0003648DD3A02EB420280FB0270D217C2EB00
:1007B0002022022A00F0D08221F400312160002B97
:1007C00000F0B6812A8B2D49DD3A02EB420281FB13
:1007D0000201D217D2EB212240F0EE80216841F4D1
:1007E000802121F400212A8B2448DD3A02EB4202C9
:1007F00080FB0270D217C2EB2022022A00F0A882EE
:1008000021F480112160002B00F02F826A8B1B499C
:10081000DD3A02EB420281FB0201D217D2EB212228
:1008200040F0F080216841F4001121F480016A8BCE
:100830001248DD3A02EB420280FB0250D217C2EBB3
:100840002022022A00F0808221F4000121600BB9ED
:1008500001F0EAFC01F0E8FCBDE8F041FFF712BE50
:100860009893FF1FB893FF1FF894FF1FBC93FF1FBF
:10087000438B88A33D96FF1F2C97FF1F699CDB28A5
:1008800001F0D2FC2A883378DD3AC2EB024287FBC2
:1008900002011144D217C2EBA122424528BF4246B1
:1008A0006282002B40F0B48201F0BEFCAA8833784B
:1008B000DD3AC2EB024287FB02011144D217C2EBC0
:1008C000A122424528BF4246A282002B7FF46BAE94
:1008D00001F0AAFC2A893378DD3AC2EB024287FB99
:1008E00002011144D217C2EBA122424528BF424661
:1008F000E282002B40F0A28201F096FC6A893378F4
:10090000DD3AC2EB024287FB02011144D217C2EB6F
:10091000A122424528BF42462283002B7FF462AECB
:1009200001F082FCE9883378DD39C1EB014187FBB6
:1009300001020A44C917C1EBA222424528BF424620
:100940006283002B7FF45FAE01F06EFCAA89AB4995
:100950003378DD3A02EB420281FB0201D217D2EB7F
:1009600021227FF45CAE216841F001012160002B5F
:1009700040F0E38101F058FCAA89A048A04F21680B
:100980003378DD3A02EB420280FB02E0D217C2EB81
:100990002022012A0AD021F002013960002B7FF4C5
:1009A0004AAE01F041FC2168337844E641F002018F
:1009B0003960002BF5D04BE6216821F480202060BF
:1009C000002B00F0CB80012A00F01C8221F4402192
:1009D00009E7216821F400402060002B00F0F1803D
:1009E000012A00F0128221F4C031D8E6216821F4F6
:1009F00080502060002B7ED0012A00F0008221F47C
:100A00004051A8E6216821F400102060002B00F07E
:100A10004281012A00F0EA8121F4C00107E7216840
:100A200021F400702060002B00F06881012A00F0A2
:100A3000E08121F4C0616AE6216821F008002060AD
:100A40003BB3012A00F0D88121F0180117E6216894
:100A500021F040002060002B00F0EA80012A00F025
:100A6000BF8121F0C0012EE601F0DEFBEA89634977
:100A70003378DD3A02EB420281FB0201D217D2EB5E
:100A80002122D9D1216841F008012160002B7FF497
:100A9000F4AD01F0C9FBEA895848594F2168337811
:100AA000DD3A02EB420280FB02E0D217C2EB2022C9
:100AB000012A00F0738121F010013960002B7FF4CE
:100AC000DEAD01F0B1FB21683378D8E501F0ACFB75
:100AD000AA8A4A493378DD3A02EB420281FB0201DD
:100AE000D217D2EB212281D1216841F480512160BB
:100AF000002B7FF42EAE01F097FBAA8A3F48404FAF
:100B000021683378DD3A02EB420280FB02E0D21723
:100B1000C2EB2022012A00F0488121F40051396003
:100B2000002B7FF418AE01F07FFB2168337812E6CA
:100B300001F07AFB2A8B31493378DD3A02EB42022D
:100B400081FB0201D217D2EB21227FF435AF21685D
:100B500041F480212160002B7FF443AE01F064FB5F
:100B60002A8B2648264F21683378DD3A02EB420271
:100B700080FB02E0D217C2EB2022012A00F00081A4
:100B800021F400213960002B7FF42DAE01F04CFBE5
:100B90002168337827E601F047FBEA8A1749337862
:100BA000DD3A02EB420281FB0201D217D2EB212295
:100BB0007FF40FAF216841F400412160002B7FF4E6
:100BC000ECAD01F031FBEA8A0C480D4F2168337817
:100BD000DD3A02EB420280FB02E0D217C2EB202298
:100BE000012A00F0D48021F480313960002B7FF499
:100BF000D6AD01F019FB21683378D0E5699CDB287C
:100C00002C97FF1F01F010FB2A8A99493378DD3AAF
:100C100002EB420281FB0201D217D2EB21227FF4C8
:100C200016AF216841F040012160002B7FF449ADEF
:100C300001F0FAFA2A8A8E488E4F21683378DD3A1D
:100C400002EB420280FB02E0D217C2EB2022012A13
:100C500000F0B28021F080013960002B7FF433ADC9
:100C600001F0E2FA216833782DE501F0DDFA6A8BB4
:100C70007F493378DD3A02EB420281FB0201D21751
:100C8000D2EB21227FF4BEAE216841F40011216035
:100C9000002B7FF4CAAD01F0C7FA6A8B7448754F18
:100CA00021683378DD3A02EB420280FB02E0D21782
:100CB000C2EB2022012A00F0868021F480013960F5
:100CC000002B7FF4B4AD01F0AFFA33782168AEE5C4
:100CD00001F0AAFA6A8A66493378DD3A02EB4202E9
:100CE00081FB0201D217D2EB21227FF498AE21685A
:100CF00041F400712160002B7FF407AD01F094FAFC
:100D00006A8A5B485B4F21683378DD3A02EB420226
:100D100080FB02E0D217C2EB2022012A5AD021F434
:100D200080613960002B7FF4F2AC01F07DFA21681C
:100D30003378ECE4216841F0010121F002017AE40A
:100D400041F00401216086E441F4000121607EE568
:100D500041F48011216056E541F4003121602EE517
:100D600041F48041216006E541F480712160BAE4DC
:100D700041F400612160DAE441F0200121608EE459
:100D800041F400213960002B3FF400AF38E541F415
:100D900080313960002B3FF42CAF0DE541F010019C
:100DA0003960002B3FF48DAE76E441F40051396098
:100DB000002B3FF4B8AEDBE441F080013960002B3A
:100DC0003FF44EAF8CE441F480013960002B3FF4D6
:100DD0007AAF39E541F480613960002BA5D0A3E4F6
:100DE00040F080017CE440F0020131E440F48001F5
:100DF0002AE540F4806197E440F010014CE440F4AF
:100E00000051B5E440F40021FAE440F48031D3E429
:100E1000AA882989DD3ADD39C2EB024240F24367F4
:100E2000C1EB014092FBF7F1414590FBF7F228BF7F
:100E30004146424528BF4246A182E2826A89E9884A
:100E40004FF6FF70DD3A40F24367DD39C2EB0242F4
:100E500092FBF7F2824228BF0246C1EB014191FBAF
:100E6000F7F1814228BF014622836183FFF7CBBBA4
:100E7000699CDB282C97FF1F10B5064C06492046BD
:100E800000F016F82046054A0549BDE8104002F07A
:100E90001DBC00BFBC93FF1F6C89FF1F6089FF1F33
:100EA000850F000010B5044601F06CFC204610BD13
:100EB000F0B541F658320F24DFF830E0C0F83811B1
:100EC00008270021AC2640F2137582600422C0F886
:100ED00000E080F82870468585850471C4714171F1
:100EE0004173827180F82720F0BD00BFA086010009
:100EF0002DE9F84FB0F82A90002480460473054687
:100F0000484602F09FFC35F82C7F8246384602F0B6
:100F100099FC514602F0E4FB014683464FF08040C5
:100F200002F09CFD4FF07C510646584602F0E2FC70
:100F3000514602F0D7FB314600F1004002F0DAFCE6
:100F4000234608F16C0108F14C0408F1AC020233AD
:100F5000202B25F8029F24F8027F41F8046F42F805
:100F6000040FF4D1D8F83801D8F8001003683622FD
:100F70001B6A9847024BD8F838211A60BDE8F88FF1
:100F80000C95FF1F38B5D0F8F030054663B100244A
:100F90001859043418B102F039FED5F8F030402C5D
:100FA000F6D1184602F032FED5F8F43063B10024D1
:100FB0001859043418B102F029FED5F8F430402C49
:100FC000F6D1184602F022FE284638BDF8B52F4E5D
:100FD0003368DB07044647D52D4D00F00DFA2B682A
:100FE000A268C01A82423CBF002323730026012757
:100FF000D4F8380103681B699847002832DD00F0F7
:10100000FBF9D4F8383128601A68184653699847B4
:10101000237BC0B2A0738BB92379834202D026739D
:101020006073E5E7627B6379934204D0E379A17949
:1010300013409942F3D127736073D9E7182B04DC6E
:10104000E2180133DBB290732373192BE8D1637973
:10105000834216D0E379A2791840824211D0002051
:101060002073F8BD0020F8BD304600F021F90028BB
:10107000B2D000F0C1F9064D2860304600F01EF9EC
:10108000ABE7002323730120F8BD00BF0495FF1FC9
:101090000895FF1F2DE9F0410D4617469846044676
:1010A000FFF794FF002800F0A580002D00F08E804F
:1010B000227CE37B43EA0223C3F30A032B80637C95
:1010C000227C5B0143EAD203C3F30A036B80A27C58
:1010D000637CE17C920042EA931343EA8123C3F3E9
:1010E0000A03AB80237DE27CDB0143EA5203C3F3B6
:1010F0000A03EB80637D227D1B0143EA1213C3F3D5
:101100000A032B81A27D637DE17D520042EAD31365
:1011100043EA4123C3F30A036B81237EE27D9B01F3
:1011200043EA9203C3F30A03AB81637E227EDB00B2
:1011300043EA5213EB81E27EA37E43EA0223C3F328
:101140000A032B82237FE27E5B0143EAD203C3F3CF
:101150000A036B82217F637FA27F9B0043EA911188
:1011600041EA8221C1F30A01A982E37FA27FDB0168
:1011700043EA5203C3F30A03EB8294F82030E27F80
:101180001B0143EA1213C3F30A032B8394F8216073
:1011900094F8201094F82230760046EAD11141EA02
:1011A0004321C1F30A01698394F8233094F8222083
:1011B0009B0143EA9203C3F30A03AB8394F8243000
:1011C00094F82320DB0043EA5213EB83B8F1000FBD
:1011D00008D094F8253094F82720134018BF012335
:1011E00088F8003037B194F8253094F8282013405F
:1011F00002D13B70BDE8F08101233B70BDE8F08176
:1012000030B4054B054A0649802400251C711D6039
:10121000184630BC02F05ABAFC94FF1F6089FF1FC9
:10122000A50E000008B5104C08E0236859050DD440
:1012300023681A050FD42368DB0411D423685803EC
:10124000F3D500F0A3FA23685905F1D502F05EF951
:1012500023681A05EFD500F009F82368DB04EDD503
:1012600000F004F8EAE700BF3480044008B5FFF757
:10127000D9FF00BF014B10221A80704700200540A3
:10128000704700BF094908B50B6830B16A46184479
:10129000A2F58052904202D20860184608BD02F0C2
:1012A0007FFC0C2303604FF0FF3008BD6489FF1FF3
:1012B0000078B0FA80F04009704700BF0123037046
:1012C000704700BFEFF3138070B9EFF310836BB971
:1012D000EFF305825AB94FF48070EFF311832BB10D
:1012E000984228BF184670474FF0FF3070470F2ACA
:1012F00001D81846F1E7014BD05CEEE7F0E300E0DF
:1013000010B40F4B53F8302092F880422CB10123D7
:1013100069B182F8803010BC704703EBC0035B6892
:101320001A6841B922F002021A6010BC704782F8B4
:10133000003110BC704742F003021A6010BC7047C5
:101340007C4C00001C4A02EBC00301295B6811D0F1
:1013500004291BD052F83000002280F8802229B1E5
:10136000022920D0032922D01A6070474FF48072DE
:101370001A60704752F830004FF4A27280F8801261
:101380001A601A6822F020021A60704752F8301072
:101390004FF4A272012081F880021A601A6842F0AC
:1013A00020021A60704740F203121A6070474FF42F
:1013B00081721A60704700BF7C4C000030B4054B4E
:1013C000054D064C002210211A602A602060196029
:1013D00030BC704714D0034004D0034000D0034019
:1013E000212801D8FFF78CBF704700BF212801D802
:1013F000FFF7A8BF704700BF72B60C490C4B0D4AEF
:101400001B680868126862B6520102D5322B88BF89
:1014100001300949C3F5BB434FF47A723F33A1FB56
:10142000031302FB00F000EB131070471095FF1F31
:1014300018E000E004ED00E0ABAAAAAA2DE9F84309
:10144000054672B6204F214B214A1B683C68126842
:1014500062B6520102D5322B88BF013495B3C3F571
:10146000BB431C4EDFF86490DFF864803F334FF4D9
:101470007A72A6FB031302FB04F404EB131472B696
:10148000D9F800103A68D8F800E062B6C1F5BB435D
:101490003F33A6FB03031EF0806FC4EB13134FF41E
:1014A0007A7002D0322988BF013200FB0233B3F5D3
:1014B0007A7F04D3013D05D004F57A74DFE701F0AB
:1014C00051FBDCE7BDE8F8831095FF1F18E000E052
:1014D00004ED00E0ABAAAAAAF8B52D4B2D49DFF820
:1014E000D0E0DFF8D0C02C4E2C4D2D4C2D4A2E4F85
:1014F0004FF4000018604FF0807018604FF00070DB
:1015000018604FF0806018604FF000601860002095
:10151000086028234BF6FF71CCF80010CEF800309D
:10152000336013602B6023603B60B36293620822D8
:1015300045F8242CC4F8D80F05F57F65C7F8D41FEB
:1015400007F5FF2707F5FA67C6F8F83F2B6006F5A1
:10155000FF26C4F8D42F05F5FD2504F5FF243860D7
:1015600006F2F4761148316005F5FF6504F5FD6477
:101570002B602360026001F005FC1920FFF75EFF7D
:1015800000F0F6FD40F21310BDE8F840FFF756BF3B
:1015900008E100E0048003401480034024800340FD
:1015A0002C8003401C8003403480034000800B40AB
:1015B0000C80034008800340431E042B14D872B6ED
:1015C0000A4951F8230068B170B4094C058834F811
:1015D0001320466841F82360521B24F8132062B69A
:1015E00070BC704762B67047002070477095FF1F4F
:1015F0002097FF1F013804280BD872B6074B53F809
:10160000203043B100205B680130002BFBD162B673
:101610007047002070471846F9E700BFC895FF1FC4
:1016200030B472B6334A13781B0706D5324B196AA9
:10163000002943D0996A00294ED053781D0706D55A
:101640002D4B196C00294DD0996C002946D0937808
:101650001C0706D5284B196E002945D0996E002924
:101660003ED0D378190707D5234BD3F88010002933
:101670003ED0D3F8881091B113791B0708D51E4BC3
:10168000D3F8A020002A31D0D3F8A82015243AB1ED
:1016900062B61A4B00221A7030BC00F025BE11242D
:1016A0001649174D0A7843F8345003EBC403083049
:1016B000013A58600A7062B630BC704704220F4C81
:1016C000104D217843F8325003EBC20308304A1E14
:1016D0005860227062B6EFE70524E1E70924DFE7EE
:1016E0000D24DDE70822EAE70C22E8E71422E6E70A
:1016F0001022E4E7144E00000080FF1FF995FF1F41
:10170000C800400088004000431E042B1DD81B4A1F
:10171000400140F0100030B4104472B6184CE25C46
:10172000032A1BD8DFE802F00212151703220D88E6
:10173000E25410F0080F14BFC823882343EA05437E
:1017400008310360416062B630BC70470830022245
:10175000EDE70522EBE708300422E8E7094A52F8F2
:10176000230038B1084A52F82300416042F82310A0
:1017700062B6E9E742F82310034AF7E70080FF1F4B
:101780000896FF1FC895FF1FDC95FF1F2DE9F04F3E
:10179000DFF824B3DFF824A387B044E0B04F4FEA6A
:1017A000930807EBC809013ED9F8042003F00803A9
:1017B000F6B2A2F1080003F0FF04002B40F00A810A
:1017C00057F838301B0C99B222F8081C002B00F097
:1017D000F880A44B22F8064C42F8044C53F826201B
:1017E000002A00F07481A04D55F8263058609F4CB7
:1017F00045F8260034F81630194424F8161000F085
:1018000053FD002800F05C81994A9A4B19F0080FAB
:1018100000F1080018BF1346C9F8040047F8383033
:1018200008238BF800309BF80040E4B261071DD517
:10183000914B1B78BBB191490A7802F0FF032AB1A2
:10184000013BDBB20B70002B00F090848C490A78CE
:1018500002F0FF032AB1013BDBB20B70002B00F05A
:10186000FC8001F035F904238BF8003004F0080304
:1018700003F0FF02002B00F0D9809AF80030DBB2B1
:101880001E098BD19A08DFF8D89159F8321009EB6C
:10189000C200C1F38301013940680C297CD8DFE81C
:1018A00001F07F7F7B7B7B7B7B7B457B7B7B0700AA
:1018B000D0F800E0734D41686D4B49F83230724FFB
:1018C000724E696040F281621FFA8EF1002401209D
:1018D0009142C5F800E03C60C9F81040C9F81840D2
:1018E000307000F20781B1F5D06F80F04F83B1F511
:1018F000817F00F0388300F25C81802900F0D18282
:10190000822940F0EC81A98801F07F01052900F2CD
:10191000E6815F4B5F4A89000B441470547019785C
:101920008C0740F14D831070022061E2564F3A68F7
:1019300042B3594B554E5949188834780D78402890
:10194000864645F0020828BF4FF0400E002C84F078
:1019500001043470CEEB00000CBF8824C82409EBCE
:10196000C80680B285F0010544EA0E447260188012
:1019700049F8384072440D7018B9BEF1400F18BFD5
:1019800000223A603F4B1A88B2F5A06F04D10021C3
:101990009A785970424B1A70424A012313703FE7FC
:1019A000384D2C8842F221018C4200F09F812C6836
:1019B0003D49344D8C4200F059812D4949F832108F
:1019C000EAE72B4A2B4B19F0080F18BF134647F8CC
:1019D000383025E700F088FC344A354952F8263083
:1019E000002B78D058688C5D42F8260003F108027D
:1019F000C9F80420032C05D8DFE804F0120F150203
:101A000004228A551A8819F0080F0CBF8823C823AE
:101A100043EA024347F8383002E702228A55F1E7E9
:101A200003228A55EEE705228A55EBE7E00700F12D
:101A30007581210600F19F81A20706D51D4A1E4926
:101A400013780220DBB213700870E30602D51A4B3C
:101A500010221A7007B0BDE8F08F00F0C5FD00E756
:101A60000080FF1F7095FF1F1895FF1F2097FF1F15
:101A7000C8004000880040000496FF1F8595FF1FA6
:101A80001C96FF1FF095FF1F1495FF1F8495FF1FE5
:101A9000C0200740FC95FF1F2C95FF1FF895FF1FE6
:101AA000982007409420074021090003C895FF1F94
:101AB0000896FF1F8820074080200740902007409D
:101AC000B24A47F83800137801331370A8E643F898
:101AD0002600AF4D8BE68B5D032B00F2DB8101A26C
:101AE00052F823F02118000021180000711D000099
:101AF0006B1D000040F62112914200F0B38000F20D
:101B0000E480B1F5086F00F06F81B1F5106F40F01F
:101B1000E680A04AA04CA978117004F1A00502E06B
:101B20000834AC4209D0236A1A06F9D5606A083431
:101B3000083800F0D9FBAC42F5D1984C984A994945
:101B40009948934D01940023984C0294059603956F
:101B500080461C46049716460D46306828B14768F3
:101B600000F0C2FB3846002FF9D100233360039BFD
:101B700028681A46002342F8243028B1476800F04C
:101B8000B3FB3846002FF9D1019B00221B782A6055
:101B900048F8042B029A4FF00001023B22F814107F
:101BA000032B00F28781DFE813F0D9018101D9010D
:101BB000810140F20232914240F03681AA8802F05F
:101BC0007F02052A00F28B806D88002D40F087800F
:101BD00077490290920011440A7842F002020A709A
:101BE0000020019080468646024672490C7844F0F7
:101BF000020C09EBCC030393029B002B039B5A605E
:101C00000CBF8822C82248EA020384F0010249F886
:101C10003C3035700A70DFF880C1674BDFF8948183
:101C2000002840F00981BEF1400F1BD142F0020CA8
:101C300009EBCC03019ADFF860E15A60002D40F017
:101C40001181050445F088059DF808304EF83C5098
:101C5000024433700C701346402803D10020574AC9
:101C60003B601080564A0123137095E66C68554915
:101C70008C427FF4A2AE0178A9297FF49EAE417810
:101C800045297FF49AAE8178C2297FF496AEC17857
:101C90006B297FF492AE4749474E0878347880F03C
:101CA0000105002C40F002000D700CBF8821C821F6
:101CB00084F0010449F8301009EBC0004249347047
:101CC0000025052445600C7077E640F621229142FC
:101CD00000F0AE8042F22122914200F0A980344A05
:101CE0000F231370364A0123137055E63149324EE3
:101CF0000C78377884F0010E002F44F0020481F84C
:101D000000E00CBF8821C82149F8341009EBC40455
:101D100087F0010700213770616048E61E4B2848B4
:101D200024491A614FF0020E80F800E0204F0A703B
:101D3000264919609960264E264D274C9A610D213F
:101D40003970FF213170DFF89CE029702270234D3B
:101D5000234A8EF800109F27012406F8047C5D605A
:101D60000470DA6007B0BDE8F08F01238B5557E5AA
:101D700000238B5554E50E49164B80220D20087028
:101D80001A70A2077FF561AE58E600BFF995FF1FF4
:101D90001895FF1F0496FF1F0080FF1F0896FF1F66
:101DA0007095FF1FC895FF1FDC95FF1F2097FF1F31
:101DB000C0200740F895FF1F8495FF1F2C95FF1F3B
:101DC00094200740010004008595FF1F8800400013
:101DD0008820074080200740982007403095FF1F4B
:101DE0008895FF1F8C200740BA49BB4A09781170BB
:101DF000ED88854280F0AA81B8490C78402DAE4626
:101E000044F0020C28BF4FF0400E02EB0E0309EB2A
:101E1000CC000193012342604FEA0E48CEEB05004F
:101E200002930025C822EEE6B1F5A06F7FF457AF0C
:101E3000012300250293D3E640287FF6F7AE42F057
:101E400002020CEBC201019E4E60BDB19DF808502C
:101E5000A3491D703346403888F8004040334CF8A1
:101E60003210FCE69DF8083033700504019B0C70BD
:101E700045F0C80503444EF83C50EDE69DF8085087
:101E80001D70019B974988F80040403840334CF85A
:101E90003210E4E619F0080F0CBF022303238B5520
:101EA000BEE48D4A022014705470A1E7019B4FF0EC
:101EB00001021A70019B01340133052C06F104065E
:101EC00005F1040501937FF448AE874C874B2278D7
:101ED000874D049F059E002129701A70130700F199
:101EE000878062788349DFF81C820A7010074FF000
:101EF0000001C9F83010C9F8381063D47E49A278BF
:101F00000A700021C9F85010C9F858101107DFF8FD
:101F1000F48100F1AD80E2787849DFF8E8810A7059
:101F200000211207C9F87010C9F8781000F18D80EF
:101F300022797349734C0A7013074FF00001C9F8F6
:101F40009010C9F898106AD433780293002283F075
:101F50000105C9F8B020C9F8B82041E6019B4FF04F
:101F600000021A70A6E7AA8802F07F02052A3FF64F
:101F7000B6AE6D88002D7FF4B2AE63490290920038
:101F800011440A7822F002020A7029E65F494A6881
:101F9000002A3FF4A4AE6C88B5F804E004E00C31EC
:101FA0004A68002A3FF49BAE0B88A342F7D14B88C6
:101FB0007345F4D1240A032C0CBF1078088917E765
:101FC000022015E700F070F9002800F0A180083029
:101FD000444AC8F84400C8F8402000F065F90028D9
:101FE00071D008303E4AC9F84C00C9F8482085E74E
:101FF00000F05AF9002800F097800830394AC9F8F3
:102000002400C9F8202000F04FF9002800F0868055
:102010000830334AC9F82C00C9F8282061E700F0DD
:1020200043F9002800F08C8008302E4AC4F8A40040
:10203000C4F8A02000F038F900287BD00830284AE6
:10204000C9F8AC00C9F8A8207EE700F02DF940B32C
:102050000830244AC8F88400C8F8802000F024F929
:10206000C8B108301E4AC9F88C00C9F888205FE75B
:1020700000F01AF908B308301A4AC8F86400C8F822
:10208000602000F011F990B10830154AC9F86C00D1
:10209000C9F868203FE72A78C9F8880001322A7019
:1020A00046E72A78C8F8800001322A70D6E72A78F5
:1020B000C9F8680001322A702DE72A78C8F8600054
:1020C00001322A70DDE72A78C9F8480001322A7007
:1020D00014E700BF0496FF1FFC95FF1FF895FF1F34
:1020E000C800400088004000144E0000C420074093
:1020F000F995FF1FC8200740CC200740D02007409B
:10210000D42007400080FF1FC02007401C4E000065
:102110002A78C8F8400001322A705EE72A78C9F8A8
:10212000280001322A70DCE62A78C9F82000013242
:102130002A7068E72A78C9F8A80001322A7003E7F4
:102140002A78C4F8A00001322A7073E74028864636
:1021500028BF4FF0400E02EB0E0301930123CEEB9C
:1021600000004FEA0E48002502933EE500BE00BF86
:102170002DE9F843204C01F04FFA002204F1C00091
:1021800023461A605A60083383424FF00001F8D1A9
:102190001A4A1B4F13681B4D1B481C4EDFF87880F2
:1021A000DFF878C0DFF87890DFF878E043F4802338
:1021B0001360C4F307233B70C4F307432B70240E52
:1021C000FF2302F528320470114D88F800301148C1
:1021D0008CF80030D4323370012389F80030702637
:1021E0008EF800104FF40074102107F8183C2E7080
:1021F00004601170BDE8F8830080FF1F3480044044
:102200009C200740B0200740B42007401020074022
:1022100049E400E008E100E0802007408820074012
:102220009420074000210740F8B51C4D2B7893B34C
:102230001B4E41F6B56407E0013C2AD0337843BB1E
:1022400000F090FC2B7833B30520FFF7D3F9022878
:10225000F2D800F029F807460028EDD0DFF844E076
:1022600000230EF1400C337000F1080574460FCCCA
:10227000644528606960AA60EB60A64605F1100518
:10228000F4D140233B8039460520FFF73DFA00207A
:10229000F8BD012333704FF0FF30F8BD0496FF1FE7
:1022A0000D96FF1F2C97FF1F72B60D480268B2FAF9
:1022B00082F3132B10DC4FF00041D94022EA0102D7
:1022C000026062B6074803EBC303DB00C2180021BB
:1022D000C15010465160704762B60020704700BF81
:1022E0006889FF1FBC83FF1F0D4B0E4AC31AA2FB58
:1022F00003231B09132B0CD80B4A127852B972B660
:102300000A484FF00041026821FA03F31A430260C1
:1023100062B67047064A1278002AF0D0FFF780B9FB
:10232000BC83FF1F398EE338F995FF1F6889FF1FB3
:102330000496FF1F70B5124E33788BB1114D28688B
:1023400040B14388C218147A6CB9FFF7CDFF3378D7
:102350002C602BB10220FFF72FF928600028F0D164
:102360004FF0FF3070BD02880133934202D24380A8
:10237000204670BDFFF7B8FF002320462B6070BDDC
:102380000496FF1F1896FF1F70B50D4E33788BB162
:102390000C4D286840B1438803441C7A6CB9FFF7A0
:1023A000A3FF33782C602BB10220FFF705F92860DA
:1023B0000028F0D14FF0FF3070BD204670BD00BF47
:1023C0000496FF1F1896FF1F38B5164D2868E0B118
:1023D00001884488A14213DD03191B7A83B104F1FB
:1023E0000803C2180C1B002302E012F8011F21B1E0
:1023F0000133A342F9D1204638BD1C46204638BDE2
:10240000FFF772FF0020286038BD074B1B780BB91F
:10241000002038BD0220FFF7CFF828600028D7D170
:10242000F6E700BF1896FF1F0496FF1F2DE9F04F37
:102430003D4D012283B02A7071B3DFF8F8A0DFF8B8
:10244000F880DFF8E89083460E46DAF800000028AE
:1024500035D0364B01934488019BC4F14001B14211
:1024600028BF314667180022BFB21A70761A47801B
:1024700000F1080249B1013C224459441BF8014BC8
:1024800002F8014F5945F9D147883F2F09D8284B09
:1024900005221A70002ED8D10020287003B0BDE8A4
:1024A000F08F4022224B02800146002401201C7044
:1024B000FFF72AF9CAF80040002EC6D1ECE798F8D9
:1024C00000204AB3194B019341F6B56401270BE094
:1024D000013C17D099F80020A2B92A7000F042FB05
:1024E0002F7098F80020BAB10120FFF783F8052873
:1024F000EED82F70FFF7D8FECAF800000028AAD146
:10250000013CE7D10199012200234FF0FF300A700E
:102510002B7003B0BDE8F08F00234FF0FF302B701D
:1025200003B0BDE8F08F00BF0E96FF1F1496FF1F8B
:102530001C96FF1F1096FF1F0496FF1F00B583B067
:1025400002AB012103F8010D1846FFF76FFF03B03E
:102550005DF804FB38B50E4D0E4C2B680120207041
:102560002BB1588800232370C0F1400038BD0A4BBE
:102570001B7813B90020207038BDFFF73BF8052801
:10258000F8D8FFF791FE034628600028E9D1F1E76B
:102590001096FF1F0E96FF1F0496FF1F0F4B1B7810
:1025A000DBB110B50E4C2168B1B14B88A3B10D4819
:1025B00000223F2B027007DC07330B4401F1470078
:1025C00003F8012F8342FBD140230B800120FFF74A
:1025D0009BF80023236010BD10BD70470496FF1FB9
:1025E0001096FF1F1C96FF1F0D4B1B78BBB910B533
:1025F0000C4C216803F0FF024B883F2B07DC0733AC
:102600000B4401F1470003F8012F8342FBD1402323
:102610000B800120FFF778F80023236010BD70477E
:102620000E96FF1F1096FF1F70B5EFF3108272B663
:102630000C4C206880B10C4E00254369236073B1B7
:102640009D6102B962B6457783689847EFF31082BF
:1026500072B620680028F0D102B962B670BD33604E
:10266000EFE700BF2096FF1F2496FF1FFFF7DCBF98
:10267000024A136801331360704700BF1095FF1FB3
:102680000368C9B21B6818470368C9B21B681847BA
:102690000368C9B21B6818470368C9B21B681847AA
:1026A0004B0803F1377303F5D84310B50446B3FB69
:1026B000F1F000F04FFC044B1B7803B110BD204635
:1026C000BDE8104000F0EABF9089FF1F08B508463A
:1026D00000F00EFE012008BD08B5084600F008FE17
:1026E000012008BD38B508460D4602F029F8044619
:1026F0000146284600F006FE204638BD10B50846C3
:102700001446114600F0FEFD204610BD00F0D8BE74
:1027100008B5084600F0C4FD003018BF012008BD10
:1027200008B5084600F09AFD003018BF012008BD2A
:102730000846114600F02EBD084600F065BD00BFFA
:10274000084600F00BBD00BF00F0A6BC10B54B085A
:1027500003F13770144600F5D840B0FBF1F000F0FB
:10276000F9FB2046BDE8104000F06ABC00F090BEC6
:1027700000F05ABE00F048BE00F028BE00F032BEA5
:10278000704700BF0168A9B10B4BF0B40B441B119B
:102790000A4E0B4F0B4D46F8237003F1440202F032
:1027A0001F0401235211A340002445F822308C60FD
:1027B0000460F0BC704700BF008FFCBF8089FF1F22
:1027C0008127000080E100E0024A034B01211160F3
:1027D0001B6818470C7103408089FF1F024A034B96
:1027E000012111605B6818471C7103408089FF1F3D
:1027F000024A034B012111609B6818472C7103406A
:102800008089FF1F024A034B01211160DB681847D2
:102810003C7103408089FF1F2DE9F0438C688BB029
:10282000ECB10025064689462F462B46212201A9F8
:10283000484600F027F93268202C234628BF202381
:10284000D2F8048001A91A4630461D44E41AC04754
:102850000744002CE9D138460BB0BDE8F083274689
:10286000F9E700BF00B5064A036812885B6883B0C9
:1028700001A9ADF804200222984703B05DF804FBDB
:10288000EC4D0000F0B507468BB0002A33D0012A8A
:1028900008BF0A2251B3212400E0F4B2B1FBF2F5E3
:1028A00002FB1511C8B2092900F1300198BFC8B266
:1028B0000AA988BF3730214488BFC0B201F8240C70
:1028C000661E2946002DE8D133B1013CE4B20AABC3
:1028D00023442D2203F8242C3B6801AA11195B68BC
:1028E0003846C4F1220298470BB0F0BD30228DF873
:1028F00025202124E8E70368C9B21B6898470BB07C
:10290000F0BD00BF0029BABF49422D2300230A228F
:10291000FFF7B8BF10B50446006801F077F920460C
:1029200010BD00BF38B543688B4201D3012038BDCC
:102930000D4604460131006801F090FC0028F6D0F5
:10294000A36884E82100002BF0D10370EEE700BFFC
:10295000F8B50446154632B9036803B11A7000236E
:10296000A3602046F8BD0E461146FFF7DBFF074681
:1029700048B9206810B101F049F92760002363606D
:10298000A3602046F8BDA5603146206801F070FEC6
:10299000E7E700BF0023884210B5044603604360A8
:1029A0008360037303D08A680968FFF7D1FF20466C
:1029B00010BD00BF38B5054608460C4601F0C0FE04
:1029C000214602462846BDE83840FFF7C1BF00BF98
:1029D00010B50446002382B023606360A3602373B4
:1029E0000A22084601A901F08DFF01A92046FFF740
:1029F000E1FF204602B010BD2DE9F84303680F4601
:102A0000BB420446816815460AD85A18974207D235
:102A1000C3EB07094FF0010835B92046BDE8F8833C
:102A20004FF00008002DF8D04E1931462046FFF730
:102A300079FF0028F1D0B8F1000F0ED02368A0680C
:102A40002A4603EB0901184400F002F9236800222A
:102A50009A55A6602046BDE8F8832068A3683946E9
:102A6000184401F005FEF4E738B5044608460D4663
:102A700001F066FE294602462046FFF7BDFF2046CC
:102A800038BD00BFB2B1A9B138B584689C420ED937
:102A9000E41A013A0D469442016828BF14461944CD
:102AA0002246284601F0BAFE00232B5538BD0023EC
:102AB0000B7038BD704700BF08B5FDF7D7FCFDF7B8
:102AC00033FD00F04FF8FAE7704700BF704700BFD2
:102AD0000F4B1B78D3B910B50E4C2168A9B103F088
:102AE000FF024B888BB13F2B07DC07330B4401F10E
:102AF000470003F8012F8342FBD140230B800320C2
:102B0000FEF702FE0023236010BD10BD704700BF1A
:102B10003196FF1F3496FF1F044A054B126882B09E
:102B20000192019A1A6002B0704700BF1095FF1F12
:102B30003896FF1FFFF728BCFFF7FCBBFFF744BC2C
:102B4000FFF72CBDFFF706BD08461146FFF76EBC28
:102B50000846FFF7F3BC00BF0148FFF7B7BF00BF4F
:102B60003C96FF1F2DE9F843314E337893B1314F36
:102B70003A787AB90122D9073A7036D49A0719D42B
:102B800000225B073A7005D52B4B1A6812B1EFF3A0
:102B900005820AB1BDE8F883EFF3108172B61868B8
:102BA00018B1264C2278002A2ED00029F2D162B624
:102BB000BDE8F883DFF8908098F80020002ADFD085
:102BC000DFF88890002405E0013498F80030E4B282
:102BD000A34212D959F824502B6828461B699847FC
:102BE0000028F1D02B699847EEE7FFF7EDFBC8B955
:102BF000134B1B781BB93378C0E73378C0E73378C1
:102C000003F0FE033370B9E745691D6001232370AB
:102C10005DB1AA6101B962B600254577836898471E
:102C20002570B7E700F050FDE2E7064B1D60F1E7C5
:102C3000A489FF1F3E96FF1F2C96FF1F3096FF1F93
:102C40003E8BFF1F2896FF1FE896FF1FDC96FF1F95
:102C5000844641EA000313F003036DD1403A41D3A7
:102C600051F8043B40F8043B51F8043B40F8043B66
:102C700051F8043B40F8043B51F8043B40F8043B56
:102C800051F8043B40F8043B51F8043B40F8043B46
:102C900051F8043B40F8043B51F8043B40F8043B36
:102CA00051F8043B40F8043B51F8043B40F8043B26
:102CB00051F8043B40F8043B51F8043B40F8043B16
:102CC00051F8043B40F8043B51F8043B40F8043B06
:102CD00051F8043B40F8043B51F8043B40F8043BF6
:102CE000403ABDD2303211D351F8043B40F8043B96
:102CF00051F8043B40F8043B51F8043B40F8043BD6
:102D000051F8043B40F8043B103AEDD20C3205D3A5
:102D100051F8043B40F8043B043AF9D2043208D09D
:102D2000D2071CBF11F8013B00F8013B01D30B880F
:102D300003806046704700BF082A13D38B078DD0ED
:102D400010F003038AD0C3F10403D21ADB071CBFBF
:102D500011F8013B00F8013B80D331F8023B20F829
:102D6000023B7BE7043AD9D3013A11F8013B00F862
:102D7000013BF9D20B7803704B7843708B788370EA
:102D80006046704730B42948294A2A4B2A4D6024AE
:102D9000E121047011701B78284C082B30D00A2BCD
:102DA0002748284937D00C2B0CBF34223C22122351
:102DB0002A60236002600B60234B24491B78244A5D
:102DC000BBB101230B601360224B23491B78234ABC
:102DD000012B26D9042B0FD9082B1ED9102B94BFF9
:102DE000862387230B6013601D4B01221A7030BCB1
:102DF00070470B601360E7E784230B601360F3E711
:102E000000F58E200F490830002213232A6023602A
:102E100002600B60D0E73822F7E785230B60136070
:102E2000E2E780230B601360DEE700BF004007404D
:102E300001400740A589FF1F08B003400CB00340C4
:102E400008B00B400CB00B404096FF1F20B0034071
:102E500020B00B40A689FF1F24B0034024B00B40D4
:102E60003F96FF1FF0B44D1E2E46002400E00134B3
:102E7000B0FBF2F302FB1300092800F130078ABF10
:102E80003730F8B2C0B206F8010F1846002BEED169
:102E90000A1953704CB1107815F8016F287001337E
:102EA000E01A834202F80169F5DB0846F0BC70477E
:102EB0002DE9F84F214B1B6807460BB101221A7010
:102EC000DFF888901E4D99F80040DFF884801D4E91
:102ED00001343F2C8ABF4FF0000A5FFA84FA54464F
:102EE000AB462B78A34216D1FEF7ECF940281FDC45
:102EF00033791B06F5D59BF8003001333F2B86BF95
:102F000000221346DAB218F80330DBB2F3712A70EC
:102F10002B78A342E8D00C490A4BFFB208F80470A2
:102F20000120BC22087089F800A0DA70BDE8F88F93
:102F3000FF28D6DDFFF716FED3E700BFD496FF1FAC
:102F4000D196FF1F00A00640D096FF1FD896FF1F06
:102F50004C96FF1F2B4A2C491368F0B543F480634D
:102F600013600A78294F2A4E2A4D2B4C2B490023F7
:102F70003B7033702B7023700B70002A3DD0152AE4
:102F800021D0274B1B78012B25D0052B30D01F28B3
:102F900027D8002002460125224B234C1A702349D2
:102FA0005D7004224FF0020E88273C26402598725F
:102FB0009A704FF4005083F813E05A751F74DE7056
:102FC00025700860F0BD1A4B40F213321A60144BA2
:102FD0001B78012BD9D1174B4FF451721F281A605F
:102FE000D7D9C0F34432C0F3471500F01F00D3E730
:102FF000114B4FF451721A60C9E7104B40F2133273
:103000001A60BEE7348004408C96FF1F4896FF1F6D
:103010004996FF1FD896FF1FD196FF1FD096FF1F1E
:10302000A789FF1F00A006402DE400E004E100E0B6
:1030300018C0044044A004401CC0044040A0044008
:10304000144B14499B7803F0EC0200F00303134384
:10305000420700F00F0248BF43F01003042A8B70B0
:1030600013D00C4B0B4A5B79C10603F0EF0348BF4A
:1030700043F0100353719379820603F0EF03054A7E
:1030800048BF43F01003937170478B7943F04003BE
:103090008B71E6E700A00640234B1B685B0541D51A
:1030A00010B5224C237823B1FFF75CFD2378002B69
:1030B000FAD11F481F4A204B4FF4005400210460EE
:1030C000D1701B78FBB1152B03D11C4B40F20312BE
:1030D0001A601B4B1B7803F07F03012B1DD0052BBF
:1030E00003D1184B40F203121A60174A114B1748CC
:1030F000174912681C79DB79002303700B700AB141
:103100000123137010BD134B40F203121A600C4BD5
:103110001B7803F07F03012BE1D10F4B40F2031228
:103120001A60E2E7704700BF34800440D096FF1F6A
:1031300084E100E000A006408C96FF1F18C0044008
:10314000A789FF1F1CC004404496FF1F4896FF1F1D
:103150004996FF1F40A0044044A004400A4A38B5E5
:103160000546137803F0FF04002BFAD1012128460D
:10317000FEF73CF921462846FEF732F9034A044B94
:1031800052F835201A6038BDD096FF1F7C4C0000E5
:10319000D496FF1F09B140F08000174A1378984277
:1031A00016D010B4154C246864050FD503F07F03C6
:1031B000012B1CD0052B11D0002900F07F0114BF7A
:1031C0006023442301290DD0052902D0107010BCC2
:1031D00070470B4943F440730B60F7E7084B00243A
:1031E0001C60E9E7074943F440730B60EEE7054BC9
:1031F00000241C60E0E700BFA789FF1F3480044063
:103200001CC0044044A00440104B1A7882420AD0EB
:103210000F490968490505D5AAB1152A09D068B131
:10322000152801D0187070470A4A40F21331116016
:10323000F8E7084A002111600028F1D1064A40F25F
:1032400013311160EEE704490A60E8E78C96FF1F2E
:103250003480044018C0044040A004400D4B1B685B
:1032600013F4806305D0212805D90B4B002018608A
:10327000704718467047094B10B5074C53F830306B
:1032800023600121FEF7B2F8236800221A700120A2
:1032900010BD00BF348004404496FF1F7C4C0000EA
:1032A0000F4B1B6813F4806308D0122808D0142831
:1032B00011D00C4A537B03F0FE0353730020704778
:1032C000094B40F202321A60064A537B43F0010375
:1032D000537301207047054B40F202321A60F3E746
:1032E0003480044000A006400CA0044014C00440F8
:1032F000034B1B685B0501D5FFF7DABD704700BFC4
:10330000348004402DE9F84F294B1B685A0548D5F5
:10331000284B1B6805460BB101221A7005EB010A08
:10332000554540D2DFF89C80234CDFF89C90234F1A
:103330000AE015F8012B09F80B20214A0123AA45C0
:10334000137088F800602ED098F80030227803F1CE
:10335000010BBBF13F0F86BF0026B3465FFA8BF629
:103360009345E6D1BC22FA7005E03A7913060BD4F6
:1033700022789345DDD1FDF7A5FF4028F5DDFF2834
:10338000F6DDFFF7EFFBF3E7227801323F2A86BF35
:1033900000210A46D1B219F80220D2B2FA71217086
:1033A000E6E7BDE8F88F054BBC22DA70BDE8F88F80
:1033B00034800440D496FF1FD196FF1F00A0064022
:1033C000D096FF1FD896FF1F4C96FF1F10B5044CD8
:1033D000237823B1FFF7C6FB2378002BFAD110BD69
:1033E000D096FF1F064A074B1B781078DBB2C0B29D
:1033F00083422CBF3F3000F1FF30C01A704700BF3E
:10340000D196FF1FD896FF1F054A064B10781B78F0
:10341000C0B2DBB2984238BF4030C01A704700BF1C
:103420004896FF1F4996FF1F30B4154B154C1A786C
:103430002378D2B2DBB29A421ED001333F2B0ED991
:103440001149124B087819680023C0B2237021B1CA
:10345000D31A1A2B01DC00230B7030BC70470A48CA
:103460000A49C05C0968DDB2C0B225700029F4D0F9
:103470009A4238BF4032EBE74FF0FF30EDE700BF34
:103480004896FF1F4996FF1F9096FF1F4496FF1F07
:10349000084A094B12781B78DBB29A4207D00133F5
:1034A000402B28BF0023054AD05CC0B270474FF0C4
:1034B000FF3070474896FF1F4996FF1F9096FF1FE9
:1034C0000D4B1B685B0516D530B40C4B0C4CDA78F1
:1034D0000C480D4902F0CB024025DA705D74DA78B1
:1034E00042F03402DA7023780268DBB20B700AB162
:1034F0000023137030BC70473480044000A00640A5
:103500004996FF1F4496FF1F4896FF1FF0B4384BA3
:103510001A7912F0300F2CD072B6997D01F0FF02AB
:1035200000293DD062B6334F334938780D78334E99
:103530001C46C0B2EDB2431C402BE17928BF0023EA
:10354000AB4202F1FF32C9B21CBFF154184612F06F
:10355000FF02F0D12A4B1B68C2B23A704BB1A842AD
:1035600036BFC5F14005401B40192728C4BF0122C2
:103570001A701F49CA78D2B2150616D452060DD554
:103580001B4B1B795B0609D51E4B1F491B6800228C
:103590000A7003B11A70164B3C22DA70F0BC704707
:1035A0004022D9795A7462B6E3E70B791C06E5D557
:1035B000164B174E1C783378E4B2DBB29C420ED027
:1035C000144D01E0A3420AD00133402B28BF002351
:1035D0000879E85CC0B2C871087D0728F2D9DBB26F
:1035E000034933700B79180644BF7C23CB70C5E7C1
:1035F00000A006404896FF1F4996FF1F9096FF1FA8
:103600004496FF1FD496FF1FD096FF1FD896FF1F2A
:10361000D196FF1F4C96FF1F70B584B072B6194B40
:10362000194D1A48702241260F2480211A702E70DD
:103630001A460470197013781B06FCD5144B1868D1
:1036400062B6144B144C984298BF00EB800001A95D
:1036500098BF40000A22FFF705FC01A9204600237D
:1036600011F8012B01333AB10A2B20F8022FF7D1C0
:103670001623237004B070BD5B00DBB2237004B06E
:1036800070BD00BF0000024007000240060002407B
:10369000080002407F969800288BFF1F30B407492E
:1036A000074C0A782378074D42F0020245F82300C0
:1036B0000A700133237030BC704700BFA489FF1F1C
:1036C000E896FF1FDC96FF1F704700BF0B460146C0
:1036D000184600F05FBA00BF80F0004002E000BF73
:1036E00081F0004142001FBF5FEA410392EA030FED
:1036F0007FEA226C7FEA236C6AD04FEA1262D2EB37
:103700001363C1BFD218414048404140B8BF5B423B
:10371000192B88BF704710F0004F40F4000020F0D4
:103720007F4018BF404211F0004F41F4000121F0EA
:103730007F4118BF494292EA030F3FD0A2F1010234
:1037400041FA03FC10EB0C00C3F1200301FA03F172
:1037500000F0004302D5494260EB4000B0F5000F95
:1037600013D3B0F1807F06D340084FEA310102F154
:103770000102FE2A51D2B1F1004F40EBC25008BF06
:1037800020F0010040EA03007047490040EB0000D0
:1037900010F4000FA2F10102EDD1B0FA80FCACF1FF
:1037A000080CB2EB0C0200FA0CF0AABF00EBC250FE
:1037B00052421843BCBFD0401843704792F0000FEC
:1037C00081F4000106BF80F400000132013BB5E73F
:1037D0004FEA41037FEA226C18BF7FEA236C21D0B5
:1037E00092EA030F04D092F0000F08BF084670471A
:1037F00090EA010F1CBF0020704712F07F4F04D1E8
:10380000400028BF40F00040704712F100723CBFFA
:1038100000F50000704700F0004343F0FE4040F424
:10382000000070477FEA226216BF08467FEA2363E2
:103830000146420206BF5FEA412390EA010F40F4CD
:10384000800070474FF0000304E000BF10F0004319
:1038500048BF40425FEA000C08BF704743F0964300
:1038600001464FF000001CE050EA010208BF70471B
:103870004FF000030AE000BF50EA010208BF7047A2
:1038800011F0004302D5404261EB41015FEA010CB7
:1038900002BF84460146002043F0B64308BFA3F1AF
:1038A0008053A3F50003BCFA8CF2083AA3EBC25391
:1038B00010DB01FA02FC634400FA02FCC2F12002B0
:1038C000BCF1004F20FA02F243EB020008BF20F0E7
:1038D0000100704702F1200201FA02FCC2F120024D
:1038E00050EA4C0021FA02F243EB020008BF20EA42
:1038F000DC7070474FF0FF0C1CEAD0521EBF1CEA70
:10390000D15392EA0C0F93EA0C0F6FD01A4480EA5D
:10391000010C400218BF5FEA41211ED04FF0006346
:1039200043EA501043EA5111A0FB01310CF0004072
:10393000B1F5000F3EBF490041EAD3715B0040EA98
:10394000010062F17F02FD2A1DD8B3F1004F40EB68
:10395000C25008BF20F00100704790F0000F0CF03B
:10396000004C08BF49024CEA502040EA51207F3AFF
:10397000C2BFD2F1FF0340EAC250704740F40000DA
:103980004FF00003013A5DDC12F1190FDCBF00F0CB
:1039900000407047C2F10002410021FA02F1C2F179
:1039A000200200FA02FC5FEA310040F1000053EA15
:1039B0004C0308BF20EADC70704792F0000F00F063
:1039C000004C02BF400010F4000F013AF9D040EA69
:1039D0000C0093F0000F01F0004C02BF490011F4FD
:1039E000000F013BF9D041EA0C018FE70CEAD153FB
:1039F00092EA0C0F18BF93EA0C0F0AD030F0004C7B
:103A000018BF31F0004CD8D180EA010000F000402E
:103A1000704790F0000F17BF90F0004F084691F0EC
:103A2000000F91F0004F14D092EA0C0F01D1420226
:103A30000FD193EA0C0F03D14B0218BF084608D1EF
:103A400080EA010000F0004040F0FE4040F4000039
:103A5000704740F0FE4040F4400070474FF0FF0CCC
:103A60001CEAD0521EBF1CEAD15392EA0C0F93EA13
:103A70000C0F69D0A2EB030280EA010C49024FEA65
:103A8000402037D04FF0805343EA111143EA10131E
:103A90000CF000408B4238BF5B0042F17D024FF4D6
:103AA000000C8B4224BF5B1A40EA0C00B3EB510FB1
:103AB00024BFA3EB510340EA5C00B3EB910F24BF9A
:103AC000A3EB910340EA9C00B3EBD10F24BFA3EB1F
:103AD000D10340EADC001B0118BF5FEA1C1CE0D1E7
:103AE000FD2A3FF650AF8B4240EBC25008BF20F09A
:103AF000010070470CF0004C4CEA50207F32C2BFEE
:103B0000D2F1FF0340EAC250704740F400004FF08A
:103B10000003013A37E792F0000F00F0004C02BFBB
:103B2000400010F4000F013AF9D040EA0C0093F085
:103B3000000F01F0004C02BF490011F4000F013BDF
:103B4000F9D041EA0C0195E70CEAD15392EA0C0F47
:103B500008D142027FF47DAF93EA0C0F7FF470AF7F
:103B6000084676E793EA0C0F04D14B023FF44CAFC2
:103B700008466EE730F0004C18BF31F0004CCAD157
:103B800030F000427FF45CAF31F000437FF43CAF93
:103B90005FE700BF13460A460146022000F0B4BEAC
:103BA000014B1868704700BF688FFF1F70B50F4E3C
:103BB0000F4D761BB61018BF002405D0013455F800
:103BC000043B9847A642F9D10A4E0B4D761B01F0F3
:103BD00089F9B61018BF002406D0013455F8043B0B
:103BE0009847A642F9D170BD70BD00BFF04E0000ED
:103BF000F04E0000084F0000F04E0000024B01465E
:103C0000186800F00BB800BF688FFF1F024B014619
:103C1000186800F03DBF00BF688FFF1F2DE9F04F0F
:103C200001F10B05162D83B0064640F29F8035F05A
:103C3000070500F1BF80A94200F2BC8000F00AFB3A
:103C4000B5F5FC7FC0F09C826B0A00F0BA80042BB3
:103C500000F28381A80900F1390E4FEA4E03383093
:103C6000C44F07EB8303A3F108015C68A14207D1AD
:103C7000ACE0002A80F2AC80E468A14200F0A680AB
:103C8000636823F003035A1B0F2AF2DDB9493C692C
:103C900001F1080E744500F0B381636823F003035B
:103CA0005A1B0F2A00F39981002AC1F814E0C1F8C9
:103CB00010E080F29E80B3F5007F80F06781DB0822
:103CC00003F1010C01229B1002FA03F34A6851F838
:103CD0003C80C4F8088001EBCC091A43A9F1080321
:103CE000E3604A6041F83C40C8F80C40831001246E
:103CF0009C40944200F28A80144206D120F00300D6
:103D00006400144200F10400FAD007EBC009CC466D
:103D10008046DCF80C108C4507D173E1002A80F254
:103D20008181C9688C4500F06D814B6823F00303E5
:103D30005A1B0F2AF2DD0C46D1F80CC054F8088F3C
:103D40004B1945F001054D6042F00101C8F80CC067
:103D50003046CCF808807B613B61C3F80CE0C3F8C7
:103D600008E059609A5000F077FA1FE0102921D836
:103D700000F070FA1025062302207E4F07EB830324
:103D8000A3F108025C68944200F045816368E16831
:103D9000A56823F00303234430465A68E96042F0E3
:103DA00001028D605A6000F057FA0834204603B0D3
:103DB000BDE8F08F00240C232046336003B0BDE83B
:103DC000F08F80234FF0400E3F2049E770465DE7BB
:103DD0002344E1685A68A56842F00102E960304670
:103DE0008D605A6000F038FA0834204603B0BDE810
:103DF000F08F234430465A6842F001025A6000F0C6
:103E00002BFA0834204603B0BDE8F08FBC68636825
:103E100023F00308A84504D3C5EB08030F2B00F3D8
:103E20008C80554BDFF860911A68D9F80030013367
:103E30002A4404EB080A00F0608102F580520F3238
:103E400022F47F6222F00F0211463046019200F008
:103E5000FDFBB0F1FF3F8346019A00F05881824597
:103E600000F2FC80454B1968DA451144196000F0F6
:103E70005381D9F80000DFF810E101301BBFCAEB15
:103E80000B0A5144CEF800B019601BF0070100F096
:103E90001781C1F10800C1F58051834408315A44AB
:103EA000C2F30B02C2EB010949463046019300F010
:103EB000CDFB431C019B00F03F81CBEB00024A4449
:103EC00042F001021968C7F808B04944BC42CBF877
:103ED00004201960DFF8A49016D0B8F10F0F40F25B
:103EE000FD806268A8F10C0323F00703E01802F0DC
:103EF00001024FF0050E1A430F2B6260C0F804E078
:103F0000C0F808E000F21C811D4BBC681A689142A1
:103F100088BF19601B4B1A689142626888BF19609C
:103F200022F003029542A2EB050301D80F2B04DC1B
:103F3000304600F091F9002438E7621943F001039C
:103F400045F0010565603046BA60536000F084F9C1
:103F50000834204603B0BDE8F08F142B71D9542BE0
:103F600000F2A480280B00F16F0E4FEA4E036E3072
:103F700076E600BF6C8FFF1FF496FF1FF896FF1FB9
:103F8000F096FF1FEC96FF1F7893FF1F5A0A042A32
:103F90005ED9142A00F2B38002F15C0149005B3261
:103FA00007EB810C57F82110DFF8DC81ACF1080C2D
:103FB0008C4500F088804A6822F00302934202D2C6
:103FC00089688C45F7D1D1F80CC07A68C4F80CC068
:103FD000A160CCF80840CC6088E6631942F0010784
:103FE00045F00105656030464B610B61C3F80CE09C
:103FF000C3F808E05F609A50083400F02DF9D5E668
:104000004A6873E608F1010818F0030F0CF1080C78
:104010007FF47FAE30E0DC68A34208BF02303FF49B
:1040200035AEB3E60B440C465A68C96854F8085FCD
:1040300042F001025A603046E9608D6000F00CF9F0
:10404000B4E603F15C0E03F15B004FEA4E0307E6B2
:104050009A0902F1390149003832A1E7BC424A4BC2
:104060003FF400AF9C68626822F003025AE759F8F7
:104070000839994540F0828010F0030F00F1FF30BD
:10408000F5D17B6823EA04037B6064009C423FF621
:10409000BDAE002C3FF4BAAE1C4240467FF435AEB4
:1040A00064001C4200F10400FAD02EE6B3F5AA7FAA
:1040B00018D8E80B00F1780E4FEA4E037730CFE5C1
:1040C0004FF48051EBE60121D8F80430921001FA48
:1040D00002F21A43C8F80420614677E70123CBF8BF
:1040E000043025E740F25452934220D8A80C00F146
:1040F0007D0E4FEA4E037C30B2E51032A4E6542A1E
:1041000026D81A0B02F16F0149006E3248E7BC68ED
:10411000626822F0030205E7CAF30B0000287FF46F
:10412000A8AE4244BB6842F001025A60ECE6FE23AE
:104130004FF07F0E7E2093E501224FF00009C1E68B
:1041400004F10801304600F0A3FCD9F80010DBE6CA
:10415000B2F5AA7F05D8DA0B02F17801490077326F
:104160001EE740F254518A4205D89A0C02F17D01B3
:1041700049007C3214E7FE217E2211E77B6884E748
:10418000E808431C5B00F8E56C8FFF1F8842F0B520
:104190000DD98B1898420AD28118002A51D09A1A48
:1041A00013F8014D01F8014D9342F9D1F0BD0F2AEA
:1041B00048D941EA00039B0746D100F1100401F100
:1041C0001003154653F8106C44F8106C53F80C6C3F
:1041D00044F80C6C53F8086C44F8086C103D53F824
:1041E000046C44F8046C0F2D03F1100304F1100467
:1041F000E8D8A2F1100323F00F0302F00F0E1033E2
:10420000BEF1030F1944034421D91E1F0D46744605
:10421000043C55F8047B46F8047F032CF8D8AEF133
:10422000040424F0030404342344214402F0030270
:1042300062B1013B0A4411F8014B03F8014F8A4275
:10424000F9D1F0BD0346F3E70346F2E7F0BD72464D
:10425000EEE700BF704700BF704700BF024B0A4641
:104260000146186800F002B8688FFF1F2DE9F04F73
:10427000174683B0002900F0C1800E46814607F141
:104280000B05FFF7E7FF56F804EC162D2EF003049C
:10429000A6F1080840D810221546AF4241D89442F2
:1042A00075DAC94B996808EB04008842416800F050
:1042B000D98021F0010303445B68DB077DD51EF044
:1042C000010F35D039464846FFF7A8FC0746E0B154
:1042D00056F8043C23F001034344A0F108029A423B
:1042E00000F04481221F242A00F23181132A00F2B7
:1042F000048103463246116819605168596092681A
:104300009A603146484600F0C3FB4846FFF7A4FFD9
:10431000384603B0BDE8F08F25F00705002D2A468A
:10432000BBDA0C230020C9F8003003B0BDE8F08FE1
:1043300056F8083CC3EB080ADAF8043023F0030C03
:1043400004EB0C039342BDDB5746DAF80C1057F828
:10435000080F221F242AC160886000F21781132AE7
:1043600040F212813168CAF808107168CAF80C105E
:104370001B2A00F22B8108360AF110023168116005
:1043800071685160B16891603E461C46D046631B1F
:104390000F2B1DD8D8F8043003F001032343444405
:1043A000C8F80430636843F0010363604846FFF7D0
:1043B00053FF304603B0BDE8F08F21F003012144E4
:1043C000914221DBC36882680C46D3609A60DEE7C5
:1043D000D8F8042008EB050102F00102154343F070
:1043E00001020B44C8F804504A605A6842F00102C6
:1043F00008315A60484600F04BFBD7E7114603B03E
:10440000BDE8F04FFFF70ABC1EF0010F7FF45AAF72
:1044100056F8083CC3EB080ADAF8043023F0030C22
:1044200001EB0C0E96458BDBC36882685746D36060
:104430009A6057F8081FDAF80C30CB60221F242A44
:10444000996000F29980132A62D93368CAF808305B
:104450007368CAF80C301B2A00F2A08008360AF1F3
:10446000100356E021F0030BA34405F1100083452F
:1044700059DA1EF0010F7FF425AF56F8081CC1EB86
:10448000080ADAF8041021F0030CE34458453FF71A
:1044900057AF5746DAF80C1057F8080F221F242A96
:1044A000C160886000F2B480132A40F2A5803168B0
:1044B000CAF808107168CAF80C101B2A00F2AF8005
:1044C00008360AF110023168116071685160B168F4
:1044D00091600AEB0501C5EB0B0242F00102996005
:1044E0004A60DAF8043003F001031D434846CAF875
:1044F0000450FFF7B1FE38465CE733680360736829
:1045000043601B2A27D800F1080306F10802F2E6EF
:104510003B4632681A6072685A60B2689A603E46DA
:104520007446D04633E708EB0501C5EB0B0B4BF0A7
:10453000010299604A6056F8043C03F001031D43F0
:10454000484646F8045CFFF787FE304632E73146BE
:10455000FFF71CFED5E6B3688360F368C360242AC6
:1045600028D000F1100306F11002C4E650F8043C14
:1045700023F003031C440AE7314638467446D0460C
:10458000FFF704FE3E4602E73A46F7E63146384674
:104590001C46D046FFF7FAFD3E46F8E6B368CAF877
:1045A0001030F368CAF81430242A1BD010360AF1F0
:1045B0001803AEE7336903617369436106F11802BA
:1045C00000F1180397E600BF6C8FFF1FB168CAF8AF
:1045D0001010F168CAF81410242A0FD010360AF10E
:1045E0001802CBE63369CAF818307369CAF81C3070
:1045F00018360AF120038CE73A4664E73269CAF8B4
:1046000018207269CAF81C2018360AF12002B5E693
:10461000314638460193FFF7B9FD019B59E7B16870
:10462000CAF81010F168CAF81410242A03D0103602
:104630000AF1180247E73269CAF818207269CAF805
:104640001C2018360AF120023DE700BF38B5074CA0
:104650000023054608462360FCF714FE431C00D0E7
:1046600038BD2368002BFBD02B6038BD6C97FF1F33
:1046700080EA0102844612F0030F4FD111F0030FBC
:1046800032D14DF8044D11F0040F51F8043B0BD01A
:10469000A3F101329A4312F0803F04BF4CF8043B6F
:1046A00051F8043B16D100BF51F8044BA3F101327D
:1046B0009A4312F0803FA4F101320BD14CF8043B35
:1046C000A24312F0803F04BF51F8043B4CF8044B66
:1046D000EAD023460CF8013B13F0FF0F4FEA3323D7
:1046E000F8D15DF8044B704711F0010F06D011F8B6
:1046F000012B0CF8012B002A08BF704711F0020FA4
:10470000BFD031F8022B12F0FF0F16BF2CF8022B8E
:104710008CF8002012F47F4FB3D1704711F8012BB1
:104720000CF8012B002AF9D1704700BFFFFFFFFFF3
:10473000FFFFFFFFFFFFFFFFFFFFFFFFFFFFFFFF89
:1047400090F800F06DE9024520F007016FF0000CD1
:1047500010F0070491F820F040F049804FF0000479
:104760006FF00700D1E9002391F840F000F1080054
:1047700082FA4CF2A4FA8CF283FA4CF3A2FA8CF38C
:104780004BBBD1E9022382FA4CF200F10800A4FAF3
:104790008CF283FA4CF3A2FA8CF3E3B9D1E9042347
:1047A00082FA4CF200F10800A4FA8CF283FA4CF37E
:1047B000A2FA8CF37BB9D1E9062301F1200182FA38
:1047C0004CF200F10800A4FA8CF283FA4CF3A2FA3E
:1047D0008CF3002BC6D0002A04BF04301A4612BA4C
:1047E000B2FA82F2FDE8024500EBD2007047D1E94F
:1047F000002304F00305C4F100004FEAC50514F0DE
:10480000040F91F840F00CFA05F562EA05021CBFAE
:1048100063EA050362464FF00004A9E740EA01039A
:104820009B0770B42BD1032A29D90C460346214695
:1048300054F8046BA6F1013525EA060515F0803F12
:1048400006D1043A032A43F8046B2146EFD8A2B1FB
:104850000C781C70013A013301313CB16AB111F896
:10486000014B03F8014B013A002CF7D12AB11A444D
:10487000002103F8011B9A42FBD170BC704703462C
:10488000E5E700BFF0B5DFF878E0164604460F46CE
:10489000BEE80F008BB06D460FC5BEE80F000FC518
:1048A0009EE80300B31E45F8040B222B297022D882
:1048B0007D1E2846002200E01A46B4FBF6F10AAB42
:1048C00006FB114423440C4613F8283C00F8013F32
:1048D000531C0029F0D1F954BB184AB1197815F8C6
:1048E000010F29700134111B8C4203F80109F5DB1B
:1048F00038460BB0F0BD002038700BB0F0BD00BFE3
:10490000BC4E0000FFF7BEBF2DE9F047254C2568DF
:10491000D5F848410646884692469946C4B3606831
:104920001F2817DC431C76B104EB80050122C5F873
:1049300088A0D4F8881182401143022EC4F888114F
:10494000C5F808911ED00230636044F82080002032
:10495000BDE8F087144B03B34FF4C870FFF74EF96E
:104960000446D0B1D5F84831002780E88800C5F862
:10497000484138460123C4F88871C4F88C71002E70
:10498000E1D0D1E7D4F88C110A43C4F88C21DAE7DE
:1049900005F5A674C5F84841C1E74FF0FF30BDE802
:1049A000F08700BFB84E0000FD3B0000024B13B182
:1049B000024800F005B8704700000000CD49000033
:1049C000002301461A461846FFF79EBF38B5074D2B
:1049D000074C2C1BA41005D0013C55F8043D98470A
:1049E000002CF9D1BDE8384000F08EBA000000007C
:1049F00000000000F8B5234F0C460646FFF72AFCDE
:104A0000BB685D6825F00305291B01F6EF7121F4F1
:104A10007F6121F00F01A1F58054B4F5805F07DBC1
:104A200000213046FFF712FEBB682B44984204D0A9
:104A30003046FFF711FC0020F8BD61423046FFF719
:104A400005FE01300DD0104BBA6819682D1B45F0DA
:104A500001053046091B55601960FFF7FDFB012079
:104A6000F8BD00213046FFF7F1FDBA68831A0F2B1D
:104A7000DEDD064C0449246843F00103001B53604B
:104A80000860D5E76C8FFF1FF896FF1F7893FF1F14
:104A9000002945D02DE9F0410D468046FFF7DAFBAD
:104AA00055F8047C6A4927F00103A5F10804E218CF
:104AB0008E685068B24220F0030062D0FE0750605A
:104AC0000BD455F8087CE41B01F1080EA568754568
:104AD0003B446FD0E768EF60BD6015186D68ED0767
:104AE00042D543F001026260E350B3F5007F18D273
:104AF000DB085A1C4D6851F83270A76001209B10EA
:104B000000FA03F301EBC2001D430838E0604D607A
:104B100041F83240FC604046BDE8F041FFF79CBBE5
:104B200070475A0A042A53D89A0902F139077F00BC
:104B300002F1380501EB870051F827204449083875
:104B400090424DD0516821F003018B4202D292680D
:104B50009042F7D1D068E060A2608460D4604046A3
:104B6000BDE8F041FFF778BB95683A4FBD4203447A
:104B70003FD0D068E86043F0010285606260E35096
:104B8000B3E7FF07034407D455F8082CA41A1344CD
:104B9000A068E268C26090602F4A126843F001008A
:104BA000934260608C60B6D32C4B40461968FFF787
:104BB00021FFB0E711184968C90744D49168D26849
:104BC000CA60034443F0010091606060E350A2E7D3
:104BD000142A17D802F15C077F0002F15B05A9E7F0
:104BE000AA104B68012505FA02F213434B600246F6
:104BF000B1E743F001024C610C61E560A5606260C1
:104C0000E35088E7542A06D81A0B02F16F077F0099
:104C100002F16E058EE7B2F5AA7F06D8DA0B02F133
:104C200078077F0002F1770584E740F25450824212
:104C300006D89A0C02F17D077F0002F17C0579E726
:104C4000FE277E2576E743F001026260E35062E7CB
:104C50006C8FFF1F748FFF1F7493FF1FF496FF1F4D
:104C60004661696C736166653A20000009467261AD
:104C70006D65206C6F73743A2000FFFF4008FE439F
:104C800040A004404408FE4344A004400018FE43F2
:104C900000C004403000FE43309004403400FE4326
:104CA000349004401C18FE431CC004401018FE43FE
:104CB00010C004400818FE4308C004400C18FE430E
:104CC0000CC004400C10FE430CB004401010FE4316
:104CD00010B004401810FE4318B004401C10FE43EE
:104CE0001CB004401410FE4314B004400418FE43EA
:104CF00004C004400010FE4300B004400008FE431E
:104D000000A004400408FE4304A004400C08FE4335
:104D10000CA004400808FE4308A004401418FE43F9
:104D200014C004401818FE4318C004400410FE4389
:104D300004B004400810FE4308B004401400FE43D1
:104D4000149004404C08FE434CA004400420FE4351
:104D500004D004402410FE4324B004402010FE433D
:104D600020B004402810FE4328B004402C10FE431D
:104D70002CB004400020FE4300D004404808FE430D
:104D800048A004401000FE431090044000000000C2
:104D900000000000D9260000FD2600007D2700004D
:104DA0007927000075270000712700006D2700009B
:104DB000A12600004D2700004927000041270000E0
:104DC00039270000312700002127000011270000AB
:104DD0000D27000081260000892600009126000092
:104DE00099260000E5260000CD2600000D0AFFFFF1
:104DF0000000000000000000512B0000492B0000C3
:104E0000452B0000412B00003D2B0000392B0000FA
:104E1000352B00001519151915FFFFFF00010000C3
:104E2000C489FF1F1200000000020000F089FF1F6C
:104E30006200000000220100548AFF1F21000000D0
:104E400000210100228AFF1F090000000022020049
:104E5000788AFF1F7400000000210200428AFF1FB1
:104E60000900000000220000A889FF1F1C000000AC
:104E700000210000028AFF1F09000000000300005B
:104E8000248BFF1F0000000001030904D889FF1FC5
:104E90000000000002030904EC8AFF1F000000006C
:104EA00003030904288BFF1F00000000000000001E
:104EB0000000000000000000408BFF1F3031323343
:104EC0003435363738396162636465666768696AA4
:104ED0006B6C6D6E6F707172737475767778797AAA
:104EE00000000000F8B500BFF8BC08BC9E46704743
:104EF000AD49000035040000790E000001120000E9
:084F0000192B0000592B0000E1
:044F0800F8B500BF39
:084F0C00C0E7FF7F0100000077
:104F1400000000007097FF1FFFFFFFFF944D00008B
:104F240000000000E803000000000000C92A00009F
:104F340081270000812700008127000081270000CD
:104F440001000000F84D000000000000E80300002C
:104F540000000000010A0401061CFF0A39A7A10190
:104F64007508150026FF0095400901810295400946
:104F7400029102C01201100100000040C016880412
:104F840011020102030100001803540065006500CA
:104F94006E00730079006400750069006E006F0094
:104FA40009026200030100C0320904000002030088
:104FB4000000092111010001221C000705830340A0
:104FC4000001070504034000010904010002030075
:104FD400000009211101000122210007058103407D
:104FE4000001070502032000020904020001030076
:104FF4000000092111010001227400070585034006
:105004000001000006C9FF0904A15C75081500260B
:10501400FF00954009758102952009769102950457
:105024000976B102C000000005010904A1011500C0
:105034002501750195800509190129808102050161
:105044000901A100150027FFFF000075109517093D
:105054003009310932093309340935093609360969
:105064003609360936093609360936093609360944
:10507400360936093609360936093609368102C039
:10508400150025073500463B017504950465140594
:105094000109390939093909398142C036035400F3
:1050A400650065006E0073007900200046006C0006
:1050B40069006700680074002000530069006D00F7
:1050C400200043006F006E00740072006F006C00DB
:1050D40073000000040309040C0300000000000036
:1050E40000000000000000000000000000000100BB
:1050F400000000002C8EFF1F948EFF1FFC8EFF1FEC
:10510400000000000000000000000000000000009B
:10511400000000000000000000000000000000008B
:10512400000000000000000000000000000000007B
:10513400000000000000000000000000000000006B
:10514400000000000000000000000000000000005B
:10515400000000000000000000000000000000004B
:10516400000000000000000000000000000000003B
:10517400000000000000000000000000000000002B
:10518400000000000000000000000000000000001B
:10519400000000000000000001000000000000000A
:1051A4000E33CDAB34126DE6ECDE05000B000000CF
:1051B40000000000000000000000000000000000EB
:1051C40000000000000000000000000000000000DB
:1051D40000000000000000000000000000000000CB
:1051E40000000000000000000000000000000000BB
:105514000000000000000000408BFF1F000000009E
:10552400000000006C8FFF1F6C8FFF1F748FFF1F24
:10553400748FFF1F7C8FFF1F7C8FFF1F848FFF1FC3
:10554400848FFF1F8C8FFF1F8C8FFF1F948FFF1F73
:10555400948FFF1F9C8FFF1F9C8FFF1FA48FFF1F23
:10556400A48FFF1FAC8FFF1FAC8FFF1FB48FFF1FD3
:10557400B48FFF1FBC8FFF1FBC8FFF1FC48FFF1F83
:10558400C48FFF1FCC8FFF1FCC8FFF1FD48FFF1F33
:10559400D48FFF1FDC8FFF1FDC8FFF1FE48FFF1FE3
:1055A400E48FFF1FEC8FFF1FEC8FFF1FF48FFF1F93
:1055B400F48FFF1FFC8FFF1FFC8FFF1F0490FF1F42
:1055C4000490FF1F0C90FF1F0C90FF1F1490FF1FEF
:1055D4001490FF1F1C90FF1F1C90FF1F2490FF1F9F
:1055E4002490FF1F2C90FF1F2C90FF1F3490FF1F4F
:1055F4003490FF1F3C90FF1F3C90FF1F4490FF1FFF
:105604004490FF1F4C90FF1F4C90FF1F5490FF1FAE
:105614005490FF1F5C90FF1F5C90FF1F6490FF1F5E
:105624006490FF1F6C90FF1F6C90FF1F7490FF1F0E
:105634007490FF1F7C90FF1F7C90FF1F8490FF1FBE
:105644008490FF1F8C90FF1F8C90FF1F9490FF1F6E
:105654009490FF1F9C90FF1F9C90FF1FA490FF1F1E
:10566400A490FF1FAC90FF1FAC90FF1FB490FF1FCE
:10567400B490FF1FBC90FF1FBC90FF1FC490FF1F7E
:10568400C490FF1FCC90FF1FCC90FF1FD490FF1F2E
:10569400D490FF1FDC90FF1FDC90FF1FE490FF1FDE
:1056A400E490FF1FEC90FF1FEC90FF1FF490FF1F8E
:1056B400F490FF1FFC90FF1FFC90FF1F0491FF1F3D
:1056C4000491FF1F0C91FF1F0C91FF1F1491FF1FEA
:1056D4001491FF1F1C91FF1F1C91FF1F2491FF1F9A
:1056E4002491FF1F2C91FF1F2C91FF1F3491FF1F4A
:1056F4003491FF1F3C91FF1F3C91FF1F4491FF1FFA
:105704004491FF1F4C91FF1F4C91FF1F5491FF1FA9
:105714005491FF1F5C91FF1F5C91FF1F6491FF1F59
:105724006491FF1F6C91FF1F6C91FF1F7491FF1F09
:105734007491FF1F7C91FF1F7C91FF1F8491FF1FB9
:105744008491FF1F8C91FF1F8C91FF1F9491FF1F69
:105754009491FF1F9C91FF1F9C91FF1FA491FF1F19
:10576400A491FF1FAC91FF1FAC91FF1FB491FF1FC9
:10577400B491FF1FBC91FF1FBC91FF1FC491FF1F79
:10578400C491FF1FCC91FF1FCC91FF1FD491FF1F29
:10579400D491FF1FDC91FF1FDC91FF1FE491FF1FD9
:1057A400E491FF1FEC91FF1FEC91FF1FF491FF1F89
:1057B400F491FF1FFC91FF1FFC91FF1F0492FF1F38
:1057C4000492FF1F0C92FF1F0C92FF1F1492FF1FE5
:1057D4001492FF1F1C92FF1F1C92FF1F2492FF1F95
:1057E4002492FF1F2C92FF1F2C92FF1F3492FF1F45
:1057F4003492FF1F3C92FF1F3C92FF1F4492FF1FF5
:105804004492FF1F4C92FF1F4C92FF1F5492FF1FA4
:105814005492FF1F5C92FF1F5C92FF1F6492FF1F54
:105824006492FF1F6C92FF1F6C92FF1F7492FF1F04
:105834007492FF1F7C92FF1F7C92FF1F8492FF1FB4
:105844008492FF1F8C92FF1F8C92FF1F9492FF1F64
:105854009492FF1F9C92FF1F9C92FF1FA492FF1F14
:10586400A492FF1FAC92FF1FAC92FF1FB492FF1FC4
:10587400B492FF1FBC92FF1FBC92FF1FC492FF1F74
:10588400C492FF1FCC92FF1FCC92FF1FD492FF1F24
:10589400D492FF1FDC92FF1FDC92FF1FE492FF1FD4
:1058A400E492FF1FEC92FF1FEC92FF1FF492FF1F84
:1058B400F492FF1FFC92FF1FFC92FF1F0493FF1F33
:1058C4000493FF1F0C93FF1F0C93FF1F1493FF1FE0
:1058D4001493FF1F1C93FF1F1C93FF1F2493FF1F90
:1058E4002493FF1F2C93FF1F2C93FF1F3493FF1F40
:1058F4003493FF1F3C93FF1F3C93FF1F4493FF1FF0
:105904004493FF1F4C93FF1F4C93FF1F5493FF1F9F
:105914005493FF1F5C93FF1F5C93FF1F6493FF1F4F
:0C5924006493FF1F00000200FFFFFFFF64
:00000001FF
