:1000000000800020BD010000890E0000410E0000AC
:10001000410E0000410E0000410E0000410E0000A4
:10002000410E0000410E0000410E0000890E00004C
:10003000890E0000410E0000492000004D21000003
:10004000890E0000890E0000890E0000890E000054
:10005000890E0000890E0000890E0000890E000044
:10006000890E0000890E0000890E0000890E000034
:10007000890E0000890E0000890E0000890E000024
:10008000890E0000890E0000890E0000890E000014
:10009000890E0000890E0000890E0000890E000004
:1000A000890E0000890E0000890E0000890E0000F4
:1000B000890E0000890E0000890E0000890E0000E4
:1000C000890E0000890E0000890E0000890E0000D4
:1000D000890E0000890E0000890E0000890E0000C4
:1000E000890E0000890E0000890E0000890E0000B4
:1000F000890E0000CD2A0000890E0000F92B0000B7
:10010000890E0000252D0000890E0000890E0000D8
:10011000890E0000890E0000890E0000890E000083
:10012000890E0000890E0000890E0000890E000073
:10013000890E0000890E0000890E0000250E0000C7
:10014000890E0000890E0000890E0000890E000053
:1001500091220000A5220000B9220000CD2200005B
:10016000890E000069130000890E0000890E00004E
:10017000890E0000890E0000890E0000890E000023
:10018000890E0000890E0000890E0000890E000013
:10019000890E0000890E0000890E0000890E000003
:1001A000890E0000890E0000890E0000890E0000F3
:1001B000890E0000890E0000890E0000564B4CF29B
:1001C000205210B51A804DF628121A8000BF00BFC9
:1001D00000F05EFE514B4FF010621A60504A9A6078
:1001E000504ADA60504A136813F4807304D14F49BF
:1001F0000B604FF4A85313604D4B1A78110703D5C9
:100200001A7842F008021A704A4B4B492A221A7097
:100210004A4A4B4B8B4204D252F8040F43F8040B6A
:10022000F8E7484B484900228B4202D243F8042B9E
:10023000FAE74649464A002352F8230041F82300D2
:1002400001336F2BF8D1434B434A802103F8011B44
:100250009342FBD1414B3D4A1A60414B8A221A70AE
:10026000A3F5805324225A70A0221A709A7992071B
:10027000FCD59A79D406FCD43A4A937903F00C035E
:10028000082B384BF9D103221A7140225A719A79FE
:100290009006FCD5334A9179324B4906FBD5324A58
:1002A000324911600221516020221A709A7902F0BD
:1002B0000C020C2AFAD12E4B2E4A1A602E4B4BF60A
:1002C0007F321A6000225A60072243F8042C2B4A1E
:1002D000C3F80C2D62B600F00DFF144B1B68DA0753
:1002E00005D5274800F078FE264B274A1A60274B91
:1002F0001B785B0609D5234C234B22689A4204D114
:100300001F4800F069FE0023236003F053F800F05B
:10031000C5FD01F0E5FFFEE70E20054030800440FA
:10032000823F04000100002B10D0034014D0034092
:1003300002D0074000E007400493FF1F0C4000007C
:100340006089FF1F0493FF1FBC97FF1F0082FF1FE0
:100350000000000000E400E05FE400E008ED00E0E1
:100360000050064000400640448004400000131145
:1003700004800440C010050014E000E000002020CC
:1003800030F2BE5D1CE00340A5C3945A00F0074064
:10039000FFFFFFFFFFFFFFFFFFFFFFFFFFFFFFFF6D
:1003A000FFFFFFFFFFFFFFFFFFFFFFFFFFFFFFFF5D
:1003B000FFFFFFFFFFFFFFFFFFFFFFFFFFFFFFFF4D
:1003C000FFFFFFFFFFFFFFFFFFFFFFFFFFFFFFFF3D
:1003D000FFFFFFFFFFFFFFFFFFFFFFFFFFFFFFFF2D
:1003E000FFFFFFFFFFFFFFFFFFFFFFFFFFFFFFFF1D
:1003F000FFFFFFFFFFFFFFFFFFFFFFFFFFFFFFFF0D
:10040000FFFFFFFFFFFFFFFFFFFFFFFFDEF9FFFF23
:1004100010B5054C237833B9044B13B10448AFF33E
:1004200000800123237010BD0493FF1F0000000013
:1004300010400000084B10B51BB108490848AFF345
:1004400000800848036803B910BD074B002BFBD0A0
:10045000BDE81040184700BF000000000893FF1FD0
:10046000104000000493FF1F0000000001F0A6BC34
:10047000F8B51148114F124E124C134D00F038FBD5
:100480001249134B134A012008700020387045F6BA
:10049000C05111801A68186002F0400242F0280230
:1004A00031601A601A680C49256042F040024FF032
:1004B00000401A600860F8BD4493FF1F9C94FF1F22
:1004C000089003409894FF1F6D040000A895FF1F3B
:1004D000009003409E94FF1F04E100E02DE9F041ED
:1004E000CC4DCD4BCD4ACE48294600F0D3FB002859
:1004F00000F0F6806A88CB4FCB4ECC4C3378F03A84
:10050000C2EB024287FB0201D217C2EBE1124FF6A7
:10051000FF78424528BF42462282002B00F0E2804D
:100520002988AA88F039C1EB0141F03A87FB01E044
:10053000C2EB0242C917C1EBE01187FB02E7D217F9
:10054000C2EBE712414528BF4146424528BF42461B
:100550006182A282EA882989B248F03AC2EB02425B
:10056000F03980FB02E7C1EB0141D217C2EBE71281
:1005700080FB010E4FF6FF77C817C0EBEE11BA42B1
:1005800028BF3A46B94228BF39466283E1826A8968
:10059000A449F03AC2EB024281FB0201D217C2EB3E
:1005A000E1124FF6FF718A4228BF0A462283AA89C8
:1005B0009F49F03A02EB420281FB0201D217D2EBD3
:1005C000612200F0F081216821F001002060002B01
:1005D00000F0FD80012A00F0188221F00301AA89B1
:1005E0009348F03A02EB420280FB0270D217C2EB52
:1005F0006022022A00F0DD8121F004012160002B3D
:1006000000F06E81EA898A49F03A02EB420281FBEE
:100610000201D217D2EB612240F02481216841F01F
:10062000080121F01001EA898148F03A02EB420208
:1006300080FB0270D217C2EB6022022A00F0C58153
:1006400021F020012160002B00F07B812A8A78496B
:10065000F03A02EB420281FB0201D217D2EB612297
:1006600040F0E880216841F0400121F080012A8AB1
:100670006F48F03A02EB420280FB0270D217C2EBE5
:100680006022022A00F09D8121F480712160002BFC
:1006900000F0F4806A8A6649F03A02EB420281FB7C
:1006A0000201D217D2EB612240F0D180216841F4DF
:1006B000007121F480616A8A5D48F03A02EB4202DF
:1006C00080FB0250D217C2EB6022022A00F0758133
:1006D00021F4006121601BB9BDE8F04101F06EBB5F
:1006E000BDE8F08101F06AFB2A883378F03AC2EB6A
:1006F000024287FB0201D217C2EBE112424528BF3A
:1007000042466282002B40F0838101F057FBAA88A9
:100710003378F03AC2EB024287FB0201D217C2EBF8
:10072000E112424528BF4246A282002B7FF412AF5D
:1007300001F044FBEA883378F03AC2EB024287FBCF
:100740000201D217C2EBE112424528BF4246628342
:10075000002B40F0738101F031FB2A893378F03AA5
:10076000C2EB024287FB0201D217C2EBE112424503
:1007700028BF4246E282002B7FF409AF01F01EFB46
:100780006A893378F03AC2EB024287FB0217D2172C
:10079000C2EBE717474528BF47462783002B7FF466
:1007A00006AF01F00BFBAA8921493378F03A02EB3E
:1007B000420281FB0201D217D2EB61227FF403AF28
:1007C000216841F001012160002B40F0EF8001F031
:1007D000F5FAAA891648154F21683378F03A02EBEA
:1007E000420280FB02E0D217C2EB6022012A0AD04B
:1007F00021F002013960002B7FF4F1AE01F0DEFA46
:1008000021683378EBE641F002013960002BF5D026
:10081000F2E600BF2093FF1F4093FF1F8094FF1F4D
:100820004493FF1FA94AE914A895FF1F7897FF1F5B
:100830009D829753216821F040002060002B00F03A
:100840009680012A00F0D88021F0C0010FE72168CE
:1008500021F40070206033B3012A00F0D38021F42A
:10086000C06128E7216821F008002060002B4CD0EF
:10087000012A00F0C48021F01801D4E601F09EFAAC
:100880006A8A7B493378F03A02EB420281FB02012B
:10089000D217D2EB6122DAD1216841F400712160D4
:1008A000002B7FF406AF01F089FA6A8A7048714F15
:1008B00021683378F03A02EB420280FB02E0D21763
:1008C000C2EB6022012A00F0908021F4806139603F
:1008D000002B7FF4F0AE01F071FA33782168EAE67C
:1008E00001F06CFAEA8962493378F03A02EB42028D
:1008F00081FB0201D217D2EB6122B3D1216841F012
:1009000008012160002B7FF48CAE01F057FAEA89D0
:100910005748584F21683378F03A02EB420280FB87
:1009200002E0D217C2EB6022012A58D021F0100158
:100930003960002B7FF477AE01F040FA21683378FC
:1009400071E601F03BFA2A8A49493378F03A02EB22
:10095000420281FB0201D217D2EB61227FF46AAF1F
:10096000216841F040012160002B7FF47EAE01F050
:1009700025FA2A8A3E483F4F21683378F03A02EB45
:10098000420280FB02E0D217C2EB6022012A20D093
:1009900021F080013960002B7FF469AE01F00EFA7E
:1009A0002168337863E6216841F0010121F00201FA
:1009B00015E641F00401216021E641F40061216067
:1009C00089E641F48071216061E641F020012160F7
:1009D00039E641F080013960002BDFD054E641F068
:1009E00010013960002BA7D02AE641F480613960FC
:1009F000002B3FF470AF6BE640F0800144E640F01E
:100A000010011DE640F4806162E640F00201F3E56A
:100A1000AA88E988F03A40F21F67F039C2EB024237
:100A200092FBF7F2424528BF4246C1EB014191FBE0
:100A3000F7F7474528BF4746A28267832A89698915
:100A40004FF6FF70F03A40F21F67F039C2EB0242F6
:100A500092FBF7F2824228BF0246C1EB014191FBB3
:100A6000F7F1814228BF0146E28221839FE500BF62
:100A70009D8297537897FF1F10B5064C0649204674
:100A800000F016F82046054A0549BDE8104002F07E
:100A90007FBC00BF4493FF1F6C89FF1F6089FF1F4D
:100AA000850B000010B5044601F0D0FB204610BDB8
:100AB000F0B541F658320F24DFF830E0C0F83811B5
:100AC00008270021AC2640F2137582600422C0F88A
:100AD00000E080F82870468585850471C4714171F5
:100AE0004173827180F82720F0BD00BFA08601000D
:100AF0002DE9F84FB0F82A9000248046047305468B
:100B0000484602F09DFA35F82C7F8246384602F0BE
:100B100097FA514602F0E2F9014683464FF08040D1
:100B200002F09AFB4FF07C510646584602F0E0FA7C
:100B3000514602F0D5F9314600F1004002F0D8FAF2
:100B4000234608F16C0108F14C0408F1AC020233B1
:100B5000202B25F8029F24F8027F41F8046F42F809
:100B6000040FF4D1D8F83801D8F800100368362201
:100B70001B6A9847024BD8F838211A60BDE8F88FF5
:100B80009494FF1F38B5D0F8F030054663B10024C7
:100B90001859043418B102F03DFCD5F8F030402C5F
:100BA000F6D1184602F036FCD5F8F43063B10024D3
:100BB0001859043418B102F02DFCD5F8F430402C4B
:100BC000F6D1184602F026FC284638BDF8B52F4E5F
:100BD0003368DB07044647D52D4D00F01BFA2B6820
:100BE000A268C01A82423CBF00232373002601275B
:100BF000D4F8380103681B699847002832DD00F0FB
:100C000009FAD4F8383128601A68184653699847A9
:100C1000237BC0B2A0738BB92379834202D02673A1
:100C20006073E5E7627B6379934204D0E379A1794D
:100C300013409942F3D127736073D9E7182B04DC72
:100C4000E2180133DBB290732373192BE8D1637977
:100C5000834216D0E379A2791840824211D0002055
:100C60002073F8BD0020F8BD304600F02FF90028B1
:100C7000B2D000F0CFF9064D2860304600F02CF9D4
:100C8000ABE7002323730120F8BD00BF8C94FF1F46
:100C90009094FF1F2DE9F0410D46174698460446F3
:100CA000FFF794FF002800F0A580002D00F08E8053
:100CB000227CE37B43EA0223C3F30A032B80637C99
:100CC000227C5B0143EAD203C3F30A036B80A27C5C
:100CD000637CE17C920042EA931343EA8123C3F3ED
:100CE0000A03AB80237DE27CDB0143EA5203C3F3BA
:100CF0000A03EB80637D227D1B0143EA1213C3F3D9
:100D00000A032B81A27D637DE17D520042EAD31369
:100D100043EA4123C3F30A036B81237EE27D9B01F7
:100D200043EA9203C3F30A03AB81637E227EDB00B6
:100D300043EA5213EB81E27EA37E43EA0223C3F32C
:100D40000A032B82237FE27E5B0143EAD203C3F3D3
:100D50000A036B82217F637FA27F9B0043EA91118C
:100D600041EA8221C1F30A01A982E37FA27FDB016C
:100D700043EA5203C3F30A03EB8294F82030E27F84
:100D80001B0143EA1213C3F30A032B8394F8216077
:100D900094F8201094F82230760046EAD11141EA06
:100DA0004321C1F30A01698394F8233094F8222087
:100DB0009B0143EA9203C3F30A03AB8394F8243004
:100DC00094F82320DB0043EA5213EB83B8F1000FC1
:100DD00008D094F8253094F82720134018BF012339
:100DE00088F8003037B194F8253094F82820134063
:100DF00002D13B70BDE8F08101233B70BDE8F0817A
:100E000030B4054B054A0649802400251C711D603D
:100E1000184630BC02F0BCBA8494FF1F6089FF1FE3
:100E2000A50A0000044A1368190644BF03F07F03B3
:100E30001360024B1B681847009003409894FF1FF3
:100E400008B5104C08E0236859050DD423681A052D
:100E50000FD42368DB0411D423685803F3D500F0C2
:100E600083FA23685905F1D501F030FE23681A058D
:100E7000EFD501F0C1FE2368DB04EDD501F052FF90
:100E8000EAE700BF3480044008B5FFF7D9FF00BF90
:100E9000014B10221A80704700200540704700BFA8
:100EA000094908B50B6830B16A461844A2F580526A
:100EB000904202D20860184608BD02F075FA0C2371
:100EC00003604FF0FF3008BD6489FF1F0078B0FA5F
:100ED00080F04009704700BF01230370704700BFD6
:100EE000EFF3138070B9EFF310836BB9EFF3058262
:100EF0005AB94FF48070EFF311832BB1984228BF99
:100F0000184670474FF0FF3070470F2A01D8184637
:100F1000F1E7014BD05CEEE7F0E300E010B40F4BDB
:100F200053F8302092F880422CB1012369B182F845
:100F3000803010BC704703EBC0035B681A6841B98E
:100F400022F002021A6010BC704782F8003110BC17
:100F5000704742F003021A6010BC7047F43D000075
:100F60001C4A02EBC00301295B6811D004291BD085
:100F700052F83000002280F8802229B1022920D0C6
:100F8000032922D01A6070474FF480721A607047AC
:100F900052F830004FF4A27280F880121A601A687A
:100FA00022F020021A60704752F830104FF4A272FB
:100FB000012081F880021A601A6842F020021A604B
:100FC000704740F203121A6070474FF481721A6042
:100FD000704700BFF43D000030B4054B054D064C92
:100FE000002210211A602A602060196030BC70470E
:100FF00014D0034004D0034000D00340212801D87E
:10100000FFF78CBF704700BF212801D8FFF7A8BFAA
:10101000704700BF72B60C490C4B0D4A1B6808683C
:10102000126862B6520102D5322B88BF01300949DD
:10103000C3F53B434FF47A727F33A1FB031302FBEA
:1010400000F000EB53107047A094FF1F18E000E081
:1010500004ED00E0ABAAAAAA2DE9F843054672B652
:10106000204F214B214A1B683C68126862B652012E
:1010700002D5322B88BF013495B3C3F53B431C4ED8
:10108000DFF86490DFF864807F334FF47A72A6FB58
:10109000031302FB04F404EB531472B6D9F80010E6
:1010A0003A68D8F800E062B6C1F53B437F33A6FB4F
:1010B00003031EF0806FC4EB53134FF47A7002D019
:1010C000322988BF013200FB0233B3F57A7F04D3A3
:1010D000013D05D004F57A74DFE701F00BF9DCE798
:1010E000BDE8F883A094FF1F18E000E004ED00E0E5
:1010F000ABAAAAAAF8B52D4B2D49DFF8D0E0DFF84E
:10110000D0C02C4E2C4D2D4C2D4A2E4F4FF40000AC
:1011100018604FF0807018604FF0007018604FF04A
:10112000806018604FF0006018600020086028237D
:101130004BF6FF71CCF80010CEF80030336013602E
:101140002B6023603B60B3629362092245F8242C34
:10115000C4F8D80F05F57F65C7F8D41F07F5FF273A
:1011600007F5FA67C6F8F83F2B6006F5FF26C4F8C6
:10117000D42F05F5FD2504F5FF24386006F2F4763A
:101180001148316005F5FF6504F5FD642B602360AF
:10119000026001F0FDF81920FFF75EFF00F0ACFDE2
:1011A00040F21310BDE8F840FFF756BF08E100E039
:1011B0000480034014800340248003402C800340BB
:1011C0001C8003403480034000800B400C800340AF
:1011D00008800340431E022B14D872B60A4951F806
:1011E000230068B170B4094C058834F813204668B0
:1011F00041F82360521B24F8132062B670BC70477C
:1012000062B6704700207047F894FF1F7097FF1F69
:10121000013802280BD872B6074B53F8203043B17F
:1012200000205B680130002BFBD162B670470020C4
:1012300070471846F9E700BF4895FF1F30B472B6F3
:10124000234A13781C0705D5224B196AE1B1996A24
:10125000002928D05378190706D51E4B196C002990
:1012600031D0996C00292CD093781B0705D5194BE8
:101270001A6E52B39A6E0D24B2B162B6164B0022AA
:101280001A7030BC00F0FABD0422134C134D2178C3
:1012900043F8325003EBC20308304A1E58602270F4
:1012A00062B630BC704705240B490D4D0A7843F8EF
:1012B000345003EBC4030830013A58600A7062B638
:1012C000EFE70924F0E70822DFE70C22DDE700BFA3
:1012D000643F00000080FF1F6995FF1F88004000E9
:1012E000C8004000431E022B1DD81B4A400140F09D
:1012F000100030B4104472B6184CE25C032A1BD8BC
:10130000DFE802F00212151703220D88E25410F0F4
:10131000080F14BFC823882343EA0543083103603C
:10132000416062B630BC704708300222EDE705220A
:10133000EBE708300422E8E7094A52F8230038B105
:10134000084A52F82300416042F8231062B6E9E7E8
:1013500042F82310034AF7E70080FF1F7895FF1F2C
:101360004895FF1F5495FF1F2DE9F04FDFF814A398
:10137000DFF8149385B044E0AC4E9F0806EBC70835
:10138000013DD8F8042003F00803EDB2A2F10800F3
:1013900003F0FF04002B40F0008156F837301B0C9F
:1013A00099B222F8081C002B00F0EE80A04B22F826
:1013B000064C42F8044C53F82520002A00F0CE8158
:1013C0009C4C54F8253058609B4B44F82500184637
:1013D00033F81530194420F8151000F02FFD0028BF
:1013E00000F0C081954A964B18F0080F00F10800F4
:1013F00018BF1346C8F8040046F8373008238AF8A7
:1014000000309AF80040E4B265071AD58D4B1B787E
:10141000A3B18D490A7802F0FF0322B1013BDBB290
:101420000B7003B900BE89490A7802F0FF032AB1A4
:10143000013BDBB20B70002B00F0668104238AF8BD
:10144000003004F0080303F0FF02002B00F0C98015
:1014500099F80030DBB21D098ED19A08DFF8CCB1C3
:101460005BF832100BEBC200C1F383010139406815
:101470000C2900F28580DFE801F07A7A8383838388
:1014800083834683838307000168714F4068714EF0
:10149000714D7860396088B240F281610024674BF9
:1014A0004BF832304FF0010E88423460CBF81040D8
:1014B000CBF8184085F800E05C4A00F2E780B0F510
:1014C000D06F80F01B82B0F5817F00F0D98100F2EF
:1014D0006981802800F02A82822840F0D781B9886B
:1014E00001F07F01032900F2D1815C485C4A890048
:1014F00008441470547001788C0740F12B8382F8F3
:1015000000E0022173E1534E32682AB3554B524D2D
:10151000554819882C78077840298E4647F00208EC
:1015200028BF4FF0400E002C84F001042C70CEEB4D
:1015300001010CBF8824C8240BEBC80589B287F0D1
:10154000010744EA0E446A6019804BF8384072443F
:101550000770002965D032603D4B1A88B2F5A06F44
:101560000ED100219A785970404B1A7008E0384922
:101570003F4C0D68A54200F0988030494BF832107E
:101580003C4A0123137039E72C4A2D4B18F0080F01
:1015900018BF134646F8373030E700F06FFC364A84
:1015A000364952F82530002B00F0E38058684C5D36
:1015B00042F8250003F10802C8F80420032C05D8DE
:1015C000DFE804F02C02292602224A551A8818F076
:1015D000080F0CBF8823C82343EA024346F837307C
:1015E0000CE7E00700F19380210600F1D180A2070B
:1015F00006D5234A234913780220DBB21370087002
:10160000E30602D51F4B10221A7005B0BDE8F08F1B
:1016100004224A55DAE705224A55D7E703224A55FC
:10162000D4E7BEF1400F18BF002294E70080FF1FEF
:10163000F894FF1FA894FF1F7097FF1FC800400079
:10164000880040007495FF1F0595FF1F8895FF1FB8
:101650006095FF1FA494FF1F0495FF1FC020074043
:101660006C95FF1FB494FF1F6895FF1F98200740DB
:1016700021090003942007404895FF1F7895FF1F1C
:10168000882007408020074090200740B0F5106F69
:1016900000F07A8140F2A38040F62112904240F09F
:1016A0004682A54A012313706AE74968B1F5802F85
:1016B0007FF463AF0178A9297FF45FAF41784529B2
:1016C0007FF45BAF8178C2297FF457AFC1786B2973
:1016D0007FF453AF99489A4D01782C7881F0010638
:1016E000002C41F0020106700CBF8820C82084F055
:1016F00001044BF831000BEBC10192482C7000251E
:1017000005244D60047038E700F010FC96E68E4B1F
:1017100089488A491A614FF0020E80F800E08B4F29
:101720000A708B49196099608A4E8B4D8B4C9A6177
:101730000D213970FF213170DFF848E229702270E5
:10174000874D884A8EF800109F27012406F8047CF4
:101750005D600470DA6005B0BDE8F08F43F82500E5
:10176000814C31E6814A46F8370013780133137013
:1017700044E64B5D032B00F2BA8001A252F823F03D
:10178000FD130000FD130000D9170000D31700005F
:101790006E49714B80220D2008701A70A2077FF5E8
:1017A0002FAF26E740F20232904240F0B881BA886B
:1017B00002F07F02032A69D87F88002F66D163492F
:1017C000CDF804E0920011440A7842F002020A7057
:1017D0008CE101234B5511E600234B550EE6B0F585
:1017E000086F53D16249634A097811707146FF88C6
:1017F0008F4280F0708251480478402FBE4644F0FA
:10180000020C28BF4FF0400E02EB0E030BEBCC0195
:10181000029301234A604FEA0E48CEEB0701019381
:101820000027C82242EA080384F001024BF83C304A
:101830002F700270DFF810C1414BDFF8008149BB07
:10184000BEF1400F7FF42DAF42F0020C0BEBCC0346
:10185000029ADFF8F4E05A608FBB0F0447F0880764
:101860009DF804304EF83C700A442B700470134607
:1018700040297FF416AF00213F4A3360118010E702
:10188000BA8802F07F02032A40F256812F4A0F23C2
:10189000137006E74029D7D942F002020CEBC200D0
:1018A000029D4560BFB19DF8047034481F702B46FF
:1018B000403988F8004040334CF83200DCE79DF8AE
:1018C00004302B700F04029B047047F0C8070B44D0
:1018D0004EF83C70CCE79DF804501D70029B1C48EC
:1018E00088F80040403940334CF83200C4E718F023
:1018F000080F0CBF022303234B557FE520494A689C
:10190000002AC3D07C88B7F804E003E00C314A68B1
:10191000002ABBD00B88A342F8D14B887345F5D180
:10192000240A032C0CBF1178098960E7114A0221AF
:10193000147054705BE700BF942007406895FF1F48
:101940000495FF1F0595FF1F0080FF1FC020074063
:1019500088004000882007408020074098200740EA
:10196000B894FF1F0895FF1FA894FF1F6995FF1FDC
:101970007495FF1F6C95FF1FB494FF1FC8004000B3
:10198000683F00008C200740B048116ABC780470A2
:101990000C0600F1E180DBF82820AD49100600F1CB
:1019A000E580DBF83020AA49120600F1DA80DBF886
:1019B0003820A749130600F1ED80DBF84020A44948
:1019C000170600F1E280DBF84820A149140600F177
:1019D000D780DBF850209E49100600F1CC80DBF860
:1019E00058209B49120600F12C81DBF860209849B1
:1019F000130600F12181DBF868209549170600F1F4
:101A0000FC80DBF870209249140600F1F180DBF8CD
:101A100078208F49100600F10A818E4A8E498F4C3A
:101A200002960023019190461E4603958C4B53F875
:101A30002600B70028B1456800F020FA2846002D9E
:101A4000F9D1884BD859864B0022DA51E25128B19E
:101A5000456800F013FA2846002DF9D1814A98F81C
:101A600000300021D151804AD151019A023B22F825
:101A70001610032B07D8DFE803F04D024D024FF09C
:101A8000010388F800300136032E08F10108CDD19A
:101A9000764F774C3A78774B029E039D0021217058
:101AA00011071A7000F1AE807A787349DFF8A081CF
:101AB0000A7000211207CBF83010CBF8381000F173
:101AC0008280BA786D49624F0A7013074FF00001A7
:101AD000CBF85010CBF8581061D42B78019300222A
:101AE00083F00107CBF87020CBF878200021029119
:101AF00088468E460A466248047844F0020C0BEB96
:101B0000CC030393019B002B039B5A600CBF8822DC
:101B1000C82287E64FF0000388F80030B3E7B0F53D
:101B2000A06F7FF4B3AE012300270193DEE740F6F8
:101B300021229042F7D0A9E67F88002F7FF4A6AE3D
:101B40005049CDF804E0920011440A7822F00202D4
:101B50000A70CBE702214AE6506A083800F08EF995
:101B600019E7486B083800F089F920E7C86A083897
:101B700000F084F915E7486D083800F07FF92EE78A
:101B8000C86C083800F07AF923E7486C083800F090
:101B900075F918E7C86B083800F070F90DE700F028
:101BA0004DF9002800F086800830374A78663A669A
:101BB00000F044F9002877D00830344ACBF86C00A4
:101BC000CBF8682089E700F039F9002866D00830A2
:101BD0002D4AC8F84400C8F8402000F02FF900282A
:101BE00056D00830294ACBF84C00CBF8482068E79B
:101BF000486F083800F042F909E7C86E083800F06D
:101C00003DF9FEE600F01AF900285ED008301E4AC1
:101C1000CBF82400CBF8202000F010F900284ED09B
:101C200008301A4ACBF82C00CBF828203CE7C86FC4
:101C3000083800F023F9F0E6486E083800F01EF985
:101C4000D9E6C86D083800F019F9CEE67495FF1F83
:101C50000080FF1F7895FF1F7097FF1FA894FF1F3C
:101C6000F894FF1F4895FF1F5495FF1F643F000025
:101C70006995FF1FC4200740C8200740CC200740BB
:101C80006895FF1FC020074088004000C800400042
:101C90002278CBF848000132227012E72278C8F887
:101CA00040000132227098E72278CBF868000132B8
:101CB000227012E7227838660132227078E72278A3
:101CC000CBF8280001322270EEE62278CBF8200013
:101CD00001322270A0E740298E4628BF4FF0400E07
:101CE00002EB0E0302930123CEEB01014FEA0E48F3
:101CF00000270193FFE600BFF8B501F07FF8244B01
:101D00002448254C254F264DDFF8A8C0DFF8A8E071
:101D1000244E00221A6001685A6041F480219A60C2
:101D2000DA601A615A619A61DA611A625A629A62D9
:101D3000DA621A635A639A63DA631A645A649A64B9
:101D4000DA641A655A659A65DA651A665A66016038
:101D5000C3F307212170C3F30740134938701B0EEA
:101D60002B70FF238CF80030104D8EF80030104897
:101D70000B700123337084F8642070264FF40074D4
:101D8000102207F82C3C2E70046081F8F820F8BD72
:101D90000080FF1F348004409C200740B020074093
:101DA000B4200740942007401020074049E400E099
:101DB00008E100E08020074088200740F8B51C4D6E
:101DC0002B7893B31B4E43F2292407E0013C2AD021
:101DD000337843BB00F08EFA2B7833B30320FFF740
:101DE00017FA0228F2D800F029F807460028EDD0AB
:101DF000DFF844E000230EF1400C337000F10805D9
:101E000074460FCC644528606960AA60EB60A64602
:101E100005F11005F4D140233B8039460320FFF73C
:101E200061FA0020F8BD012333704FF0FF30F8BD98
:101E30007495FF1F7B95FF1F7897FF1F72B60D48A3
:101E40000268B2FA82F3132B10DC4FF00041D94044
:101E500022EA0102026062B6074803EBC303DB001B
:101E6000C2180021C15010465160704762B6002070
:101E7000704700BF6889FF1FBC83FF1F0D4B0E4AD0
:101E8000C31AA2FB03231B09132B0CD80B4A12788D
:101E900052B972B60A484FF00041026821FA03F3C2
:101EA0001A43026062B67047064A1278002AF0D0E0
:101EB000FFF7C4B9BC83FF1F398EE3386995FF1F54
:101EC0006889FF1F7495FF1F38B5164D2868E0B16B
:101ED00001884488A14213DD03191B7A83B104F100
:101EE0000803C2180C1B002302E012F8011F21B1E5
:101EF0000133A342F9D1204638BD1C46204638BDE7
:101F0000FFF7BCFF0020286038BD074B1B780BB9DA
:101F1000002038BD0220FFF75DF928600028D7D1E6
:101F2000F6E700BF8495FF1F7495FF1F0D4B1B78CC
:101F3000BBB910B50C4C216803F0FF024B883F2B56
:101F400007DC07330B4401F1470003F8012F8342FC
:101F5000FBD140230B800120FFF7C4F9002323604D
:101F600010BD70477C95FF1F8095FF1F10B4EFF3E5
:101F7000108272B6437F33B9017F012907D003294C
:101F80000FD00123437702B962B610BC7047124CE0
:101F90002168A1B1114943610B68836108605861F0
:101FA000EFE70F4C216881B10E4943610B688361F3
:101FB000086058610C4B4FF080511960E1E7074B06
:101FC0004161816120601860DBE7064B41618161FE
:101FD00020601860EEE700BF9C95FF1F9895FF1FDB
:101FE0008C95FF1F9095FF1F04ED00E010B4047F57
:101FF0004160022CC26002D010BCFFF7B7BF8368FB
:1020000010BC184770B5EFF3108272B60C4C206804
:1020100080B10C4E00254369236073B19D6102B904
:1020200062B6457783689847EFF3108272B62068EE
:102030000028F0D102B962B670BD3360EFE700BF8F
:102040008C95FF1F9095FF1FFFF7DCBF184A30B437
:102050001468002C27D0036821688B420ED2CB1A5B
:1020600000218460C1602360E0601060022303757A
:1020700030BC704711688B42144608D3A2685B1AC3
:102080000360002AF6D18260C460A060EEE7D268E7
:10209000C2608460E060C568CB1A0222A860236039
:1020A000027530BC70478460C4601060DEE700BF1A
:1020B0009495FF1FF8B5224E34682CB32368002B8B
:1020C0003AD1204F1D4604E03468ECB12368002B60
:1020D00032D1A36803B1DD602069336003682575E0
:1020E0001B68BB4221D1037F4560022BC46020D016
:1020F000FFF73CFF6368002BE6D023602046FFF724
:10210000A5FF3468002CE1D1EFF3108372B60E4ABC
:1021100000211068116003B962B628B18468FFF726
:1021200095FF20460028F9D1F8BD224600219847A6
:10213000E0E783689847DDE7013B2360E4E700BF01
:102140009495FF1FED1F0000A495FF1F024A13681E
:1021500001331360FFF7AEBFA094FF1F0368C9B23D
:102160001B6818470368C9B21B6818470368C9B2DF
:102170001B6818470368C9B21B68184708B50846AA
:1021800000F096FB012008BD08B5084600F090FB62
:10219000012008BD38B508460D4601F011FC044683
:1021A0000146284600F08EFB204638BD10B5084693
:1021B0001446114600F086FB204610BD00F060BCBE
:1021C00008B5084600F04CFB003018BF012008BDE0
:1021D00008B5084600F022FB003018BF012008BDFA
:1021E0000846114600F0B6BA084600F0EDBA00BF46
:1021F000084600F093BA00BF00F02EBA4B0803F176
:10220000B76000F55840B0FBF1F000F083B900BFB3
:1022100010B54B0803F1B760144600F55840B0FB09
:10222000F1F000F077F92046BDE8104000F0E8B981
:1022300000F00EBC00F0D8BB00F0C6BB00F0A6BB9F
:1022400000F0B0BB704700BF704700BF0168A9B184
:102250000B4BF0B40B441B110A4E0B4F0B4D46F8C1
:10226000237003F1440202F01F0401235211A34022
:10227000002445F822308C600460F0BC704700BF39
:10228000008FFCBF7C89FF1F4922000080E100E035
:10229000024A034B012111601B6818470C7103406F
:1022A0007C89FF1F024A034B012111605B681847BC
:1022B0001C7103407C89FF1F024A034B01211160FE
:1022C0009B6818472C7103407C89FF1F024A034B0F
:1022D00001211160DB6818473C7103407C89FF1FB6
:1022E00008B5FEF7C5F8FEF7F9F800F003F8FAE7CD
:1022F000704700BF38B5224C237803B138BD0123A5
:102300002370FFF7E1FD70BB00F05EFB40BB00F007
:1023100063FC10BB00F0F6FCE0B900232370EFF380
:102320000583002BEAD1EFF3108172B6154B1868C4
:10233000E0B1154C2278CAB945691D6001232370AC
:10234000C5B1AA6101B962B600254577836898478F
:102350002570D3E700F096FDDFE700F091FDD9E7A7
:10236000FFF770FFD3E7FFF7C3FFCDE70029C5D123
:1023700062B638BD054B1D600029E5D1E3E700BF1B
:10238000A995FF1F9C95FF1FA095FF1F9895FF1F04
:1023900030B42948294A2A4B2A4D6024E12104708F
:1023A00011701B78284C082B30D00A2B274828495D
:1023B00037D00C2B0CBF35223D2212232A6023601C
:1023C00002600B60234B24491B78244ABBB10123D4
:1023D0000B601360224B23491B78234A012B26D91B
:1023E000042B0FD9082B1ED9102B94BF86238723CB
:1023F0000B6013601D4B01221A7030BC70470B60DC
:102400001360E7E784230B601360F3E700F58E2089
:102410000F490830012213232A60236002600B60F9
:10242000D0E73922F7E785230B601360E2E78023CA
:102430000B601360DEE700BF00400740014007402B
:102440008C89FF1F08B003400CB0034008B00B405C
:102450000CB00B40AB95FF1F20B0034020B00B40E9
:102460008D89FF1F24B0034024B00B40AA95FF1FA5
:102470002DE9F84F214B1B6807460BB101221A705A
:10248000DFF888901E4D99F80040DFF884801D4EDB
:1024900001343F2C8ABF4FF0000A5FFA84FA544699
:1024A000AB462B78A34216D1FEF71AFD40281FDC5D
:1024B00033791B06F5D59BF8003001333F2B86BFDF
:1024C00000221346DAB218F80330DBB2F3712A7037
:1024D0002B78A342E8D00C490A4BFFB208F80470ED
:1024E0000120BC22087089F800A0DA70BDE8F88FDE
:1024F000FF28D6DDFFF7FEFED3E700BF3C96FF1FA7
:102500003996FF1F00A006403896FF1F4096FF1F18
:10251000B495FF1F2B4A2C491368F0B543F4806330
:1025200013600A78294F2A4E2A4D2B4C2B49002341
:102530003B7033702B7023700B70002A3DD0152A2E
:1025400021D0274B1B78012B25D0052B30D01F28FD
:1025500027D8002002460125224B234C1A7023491C
:102560005D7004224FF0020E88273C2640259872A9
:102570009A704FF4005083F813E05A751F74DE70A0
:1025800025700860F0BD1A4B40F213321A60144BEC
:102590001B78012BD9D1174B4FF451721F281A60A9
:1025A000D7D9C0F34432C0F3471500F01F00D3E77A
:1025B000114B4FF451721A60C9E7104B40F21332BD
:1025C0001A60BEE734800440F495FF1FB095FF1FEA
:1025D000B195FF1F4096FF1F3996FF1F3896FF1FCA
:1025E0008E89FF1F00A006402DE400E004E100E01A
:1025F00018C0044044A004401CC0044040A0044053
:10260000144B14499B7803F0EC0200F003031343CE
:10261000420700F00F0248BF43F01003042A8B70FA
:1026200013D00C4B0B4A5B79C10603F0EF0348BF94
:1026300043F0100353719379820603F0EF03054AC8
:1026400048BF43F01003937170478B7943F0400308
:102650008B71E6E700A00640234B1B685B0541D564
:1026600010B5224C237823B1FFF744FE2378002BCA
:10267000FAD11F481F4A204B4FF400540021046038
:10268000D1701B78FBB1152B03D11C4B40F2031208
:102690001A601B4B1B7803F07F03012B1DD0052B09
:1026A00003D1184B40F203121A60174A114B174816
:1026B000174912681C79DB79002303700B700AB18B
:1026C0000123137010BD134B40F203121A600C4B20
:1026D0001B7803F07F03012BE1D10F4B40F2031273
:1026E0001A60E2E7704700BF348004403896FF1F4D
:1026F00084E100E000A00640F495FF1F18C00440EC
:102700008E89FF1F1CC00440AC95FF1FB095FF1FB2
:10271000B195FF1F40A0044044A004400A4A38B5C8
:102720000546137803F0FF04002BFAD10121284657
:10273000FEF76AFC21462846FEF760FC034A044B7C
:1027400052F835201A6038BD3896FF1FF43D00005E
:102750003C96FF1F09B140F08000174A1378984259
:1027600016D010B4154C246864050FD503F07F0310
:10277000012B1CD0052B11D0002900F07F0114BFC4
:102780006023442301290DD0052902D0107010BC0C
:1027900070470B4943F440730B60F7E7084B002484
:1027A0001C60E9E7074943F440730B60EEE7054B13
:1027B00000241C60E0E700BF8E89FF1F34800440C6
:1027C0001CC0044044A00440104B1A7882420AD036
:1027D0000F490968490505D5AAB1152A09D068B17C
:1027E000152801D0187070470A4A40F21331116061
:1027F000F8E7084A002111600028F1D1064A40F2AA
:1028000013311160EEE704490A60E8E7F495FF1F11
:102810003480044018C0044040A004400D4B1B68A5
:1028200013F4806305D0212805D90B4B00201860D4
:10283000704718467047094B10B5074C53F83030B5
:1028400023600121FEF7E0FB236800221A700120BB
:1028500010BD00BF34800440AC95FF1FF43D000064
:102860000F4B1B6813F4806308D0122808D014287B
:1028700011D00C4A537B03F0FE03537300207047C2
:10288000094B40F202321A60064A537B43F00103BF
:10289000537301207047054B40F202321A60F3E790
:1028A0003480044000A006400CA0044014C0044042
:1028B000034B1B685B0501D5FFF7DABD704700BF0E
:1028C000348004402DE9F84F294B1B685A0548D540
:1028D000284B1B6805460BB101221A7005EB010A53
:1028E000554540D2DFF89C80234CDFF89C90234F65
:1028F0000AE015F8012B09F80B20214A0123AA450B
:10290000137088F800602ED098F80030227803F118
:10291000010BBBF13F0F86BF0026B3465FFA8BF673
:102920009345E6D1BC22FA7005E03A7913060BD440
:1029300022789345DDD1FEF7D3FA4028F5DDFF2854
:10294000F6DDFFF7D7FCF3E7227801323F2A86BF96
:1029500000210A46D1B219F80220D2B2FA712170D0
:10296000E6E7BDE8F88F054BBC22DA70BDE8F88FCA
:10297000348004403C96FF1F3996FF1F00A006409C
:102980003896FF1F4096FF1FB495FF1F10B5044CEB
:10299000237823B1FFF7AEFC2378002BFAD110BDCA
:1029A0003896FF1F064A074B1B781078DBB2C0B27F
:1029B00083422CBF3F3000F1FF30C01A704700BF88
:1029C0003996FF1F4096FF1F054A064B10781B786B
:1029D000C0B2DBB2984238BF4030C01A704700BF67
:1029E000B095FF1FB195FF1F30B4154B154C1A78E9
:1029F0002378D2B2DBB29A421ED001333F2B0ED9DC
:102A00001149124B087819680023C0B2237021B114
:102A1000D31A1A2B01DC00230B7030BC70470A4814
:102A20000A49C05C0968DDB2C0B225700029F4D043
:102A30009A4238BF4032EBE74FF0FF30EDE700BF7E
:102A4000B095FF1FB195FF1FF895FF1FAC95FF1FB5
:102A5000084A094B12781B78DBB29A4207D001333F
:102A6000402B28BF0023054AD05CC0B270474FF00E
:102A7000FF307047B095FF1FB195FF1FF895FF1FFE
:102A80000D4B1B685B0516D530B40C4B0C4CDA783B
:102A90000C480D4902F0CB024025DA705D74DA78FB
:102AA00042F03402DA7023780268DBB20B700AB1AC
:102AB0000023137030BC70473480044000A00640EF
:102AC000B195FF1FAC95FF1FB095FF1FF0B4384BB9
:102AD0001A7912F0300F2CD072B6997D01F0FF02F6
:102AE00000293DD062B6334F334938780D78334EE4
:102AF0001C46C0B2EDB2431C402BE17928BF002335
:102B0000AB4202F1FF32C9B21CBFF154184612F0B9
:102B1000FF02F0D12A4B1B68C2B23A704BB1A842F7
:102B200036BFC5F14005401B40192728C4BF01220C
:102B30001A701F49CA78D2B2150616D452060DD59E
:102B40001B4B1B795B0609D51E4B1F491B680022D6
:102B50000A7003B11A70164B3C22DA70F0BC704751
:102B60004022D9795A7462B6E3E70B791C06E5D5A1
:102B7000164B174E1C783378E4B2DBB29C420ED071
:102B8000144D01E0A3420AD00133402B28BF00239B
:102B90000879E85CC0B2C871087D0728F2D9DBB2B9
:102BA000034933700B79180644BF7C23CB70C5E70B
:102BB00000A00640B095FF1FB195FF1FF895FF1FBD
:102BC000AC95FF1F3C96FF1F3896FF1F4096FF1FD6
:102BD0003996FF1FB495FF1F054A064B10781B78E6
:102BE000C0B2DBB2984238BF4030C01A704700BF55
:102BF000B496FF1F4996FF1FF0B4384B1A7912F0B4
:102C0000300F2CD072B6997D01F0FF0200293DD023
:102C100062B6334F334938780D78334E1C46C0B214
:102C2000EDB2431C402BE17928BF0023AB4202F1F7
:102C3000FF32C9B21CBFF154184612F0FF02F0D1A6
:102C40002A4B1B68C2B23A704BB1A84236BFC5F1DD
:102C50004005401B40192728C4BF01221A701F4994
:102C6000CA78D2B2150616D452060DD51B4B1B7965
:102C70005B0609D51E4B1F491B6800220A7003B171
:102C80001A70164B3C22DA70F0BC70474022D9799A
:102C90005A7462B6E3E70B791C06E5D5164B174E5E
:102CA0001C783378E4B2DBB29C420ED0144D01E0C4
:102CB000A3420AD00133282B28BF00230879E85CFF
:102CC000C0B2C871087D0728F2D9DBB2034933705E
:102CD0000B79180644BF7C23CB70C5E700B00640D3
:102CE000B496FF1F4996FF1F7496FF1F4496FF1F5F
:102CF000B896FF1F4896FF1FBC96FF1FB596FF1F93
:102D00004C96FF1F054A064B10781B78C0B2DBB209
:102D1000984238BF4030C01A704700BFC496FF1FAA
:102D2000C596FF1F30B42B4B1A7994061FD52A483D
:102D3000DA790378294901333F2B0978C8BF00238A
:102D40008B42D2B203D0264CD9B2E2540170254A4C
:102D5000116861B1244A1278D2B2934236BFC2F1EF
:102D600040029B1A9B18272BC4BF01230B70194AE2
:102D7000D378DBB2180611D45A060DD5154B1B7942
:102D80005B0609D5194B1A491B6800220A7003B16A
:102D90001A70104B2C22DA7030BC7047117909067A
:102DA000EAD5144910480C780178C9B28C420DD08C
:102DB0004A1C272A84BF00210A460F4D054C98BFA4
:102DC000D1B2AA5CD2B2E2710170D5E76C21D170A8
:102DD000D2E700BF00C00640C496FF1FC596FF1F84
:102DE000F096FF1FC096FF1F3197FF1F3497FF1FFC
:102DF0003097FF1F3897FF1FC896FF1F70B584B02C
:102E000072B6194B194D1A48702241260F248021A1
:102E10001A702E701A460470197013781B06FCD5B0
:102E2000144B186862B6144B144C984298BF00EBD0
:102E3000800001A998BF40000A2200F025F801A9EE
:102E40002046002311F8012B01333AB10A2B20F858
:102E5000022FF7D11623237004B070BD5B00DBB2E4
:102E6000237004B070BD00BF0000024007000240A4
:102E700006000240080002407F969800B08AFF1FBB
:102E8000704700BF704700BFF0B44D1E2E460024AF
:102E900000E00134B0FBF2F302FB1300092800F15B
:102EA00030078ABF3730F8B2C0B206F8010F1846B3
:102EB000002BEED10A1953704CB1107815F8016F40
:102EC00028700133E01A834202F80169F5DB0846F5
:102ED000F0BC704780F0004002E000BF81F000418C
:102EE00042001FBF5FEA410392EA030F7FEA226CB0
:102EF0007FEA236C6AD04FEA1262D2EB1363C1BF40
:102F0000D218414048404140B8BF5B42192B88BFAE
:102F1000704710F0004F40F4000020F07F4018BFD1
:102F2000404211F0004F41F4000121F07F4118BFF1
:102F3000494292EA030F3FD0A2F1010241FA03FC99
:102F400010EB0C00C3F1200301FA03F100F0004381
:102F500002D5494260EB4000B0F5000F13D3B0F149
:102F6000807F06D340084FEA310102F10102FE2AB8
:102F700051D2B1F1004F40EBC25008BF20F0010028
:102F800040EA03007047490040EB000010F4000FD6
:102F9000A2F10102EDD1B0FA80FCACF1080CB2EB69
:102FA0000C0200FA0CF0AABF00EBC25052421843C8
:102FB000BCBFD0401843704792F0000F81F400016D
:102FC00006BF80F400000132013BB5E74FEA410340
:102FD0007FEA226C18BF7FEA236C21D092EA030FAC
:102FE00004D092F0000F08BF0846704790EA010F26
:102FF0001CBF0020704712F07F4F04D1400028BF53
:1030000040F00040704712F100723CBF00F5000034
:10301000704700F0004343F0FE4040F4000070476A
:103020007FEA226216BF08467FEA23630146420216
:1030300006BF5FEA412390EA010F40F48000704729
:103040004FF0000304E000BF10F0004348BF4042CF
:103050005FEA000C08BF704743F0964301464FF00B
:1030600000001CE050EA010208BF70474FF0000367
:103070000AE000BF50EA010208BF704711F00043A8
:1030800002D5404261EB41015FEA010C02BF844678
:103090000146002043F0B64308BFA3F18053A3F5D7
:1030A0000003BCFA8CF2083AA3EBC25310DB01FA1E
:1030B00002FC634400FA02FCC2F12002BCF1004FA2
:1030C00020FA02F243EB020008BF20F00100704733
:1030D00002F1200201FA02FCC2F1200250EA4C0087
:1030E00021FA02F243EB020008BF20EADC707047CD
:1030F0004FF0FF0C1CEAD0521EBF1CEAD15392EADB
:103100000C0F93EA0C0F6FD01A4480EA010C4002B6
:1031100018BF5FEA41211ED04FF0006343EA501010
:1031200043EA5111A0FB01310CF00040B1F5000F52
:103130003EBF490041EAD3715B0040EA010062F101
:103140007F02FD2A1DD8B3F1004F40EBC25008BFEB
:1031500020F00100704790F0000F0CF0004C08BF09
:1031600049024CEA502040EA51207F3AC2BFD2F1D6
:10317000FF0340EAC250704740F400004FF00003E4
:10318000013A5DDC12F1190FDCBF00F0004070471E
:10319000C2F10002410021FA02F1C2F1200200FA5C
:1031A00002FC5FEA310040F1000053EA4C0308BF23
:1031B00020EADC70704792F0000F00F0004C02BF74
:1031C000400010F4000F013AF9D040EA0C0093F0EF
:1031D000000F01F0004C02BF490011F4000F013B49
:1031E000F9D041EA0C018FE70CEAD15392EA0C0FB7
:1031F00018BF93EA0C0F0AD030F0004C18BF31F022
:10320000004CD8D180EA010000F00040704790F0F7
:10321000000F17BF90F0004F084691F0000F91F09B
:10322000004F14D092EA0C0F01D142020FD193EA61
:103230000C0F03D14B0218BF084608D180EA0100E9
:1032400000F0004040F0FE4040F40000704740F0C5
:10325000FE4040F4400070474FF0FF0C1CEAD05293
:103260001EBF1CEAD15392EA0C0F93EA0C0F69D0EF
:10327000A2EB030280EA010C49024FEA402037D05A
:103280004FF0805343EA111143EA10130CF0004051
:103290008B4238BF5B0042F17D024FF4000C8B4241
:1032A00024BF5B1A40EA0C00B3EB510F24BFA3EB21
:1032B000510340EA5C00B3EB910F24BFA3EB9103F1
:1032C00040EA9C00B3EBD10F24BFA3EBD10340EA4B
:1032D000DC001B0118BF5FEA1C1CE0D1FD2A3FF691
:1032E00050AF8B4240EBC25008BF20F00100704746
:1032F0000CF0004C4CEA50207F32C2BFD2F1FF03E9
:1033000040EAC250704740F400004FF00003013A19
:1033100037E792F0000F00F0004C02BF400010F4BD
:10332000000F013AF9D040EA0C0093F0000F01F0D1
:10333000004C02BF490011F4000F013BF9D041EAF3
:103340000C0195E70CEAD15392EA0C0F08D1420226
:103350007FF47DAF93EA0C0F7FF470AF084676E7F9
:1033600093EA0C0F04D14B023FF44CAF08466EE7D2
:1033700030F0004C18BF31F0004CCAD130F00042A0
:103380007FF45CAF31F000437FF43CAF5FE700BFF8
:103390000B460146184600F001B800BF13460A4626
:1033A0000146022000F07ABB014B1868704700BF4D
:1033B000F08EFF1F70B50F4E0F4D761BB61018BF65
:1033C000002405D0013455F8043B9847A642F9D1B2
:1033D0000A4E0B4D761B00F00BFEB61018BF0024F2
:1033E00006D0013455F8043B9847A642F9D170BD88
:1033F00070BD00BFFC3F0000FC3F00000C4000001F
:10340000FC3F0000024B0146186800F00BB800BFFB
:10341000F08EFF1F024B0146186800F003BC00BF8E
:10342000F08EFF1F2DE9F04F01F10B05162D83B033
:10343000064640F29F8035F0070500F1BF80A942A3
:1034400000F2BC8000F0A6FAB5F5FC7FC0F09C82CB
:103450006B0A00F0BA80042B00F28381A80900F106
:10346000390E4FEA4E033830C44F07EB8303A3F104
:1034700008015C68A14207D1ACE0002A80F2AC8070
:10348000E468A14200F0A680636823F003035A1B9E
:103490000F2AF2DDB9493C6901F1080E744500F0CC
:1034A000B381636823F003035A1B0F2A00F3998149
:1034B000002AC1F814E0C1F810E080F29E80B3F554
:1034C000007F80F06781DB0803F1010C01229B1073
:1034D00002FA03F34A6851F83C80C4F8088001EB13
:1034E000CC091A43A9F10803E3604A6041F83C4063
:1034F000C8F80C40831001249C40944200F28A805A
:10350000144206D120F003006400144200F10400CC
:10351000FAD007EBC009CC468046DCF80C108C458D
:1035200007D173E1002A80F28181C9688C4500F0DF
:103530006D814B6823F003035A1B0F2AF2DD0C4602
:10354000D1F80CC054F8088F4B1945F001054D60B7
:1035500042F00101C8F80CC03046CCF808807B610D
:103560003B61C3F80CE0C3F808E059609A5000F0E2
:1035700013FA1FE0102921D800F00CFA10250623B9
:1035800002207E4F07EB8303A3F108025C6894429C
:1035900000F045816368E168A56823F003032344D4
:1035A00030465A68E96042F001028D605A6000F0CE
:1035B000F3F90834204603B0BDE8F08F00240C2353
:1035C0002046336003B0BDE8F08F80234FF0400EFB
:1035D0003F2049E770465DE72344E1685A68A568E3
:1035E00042F00102E96030468D605A6000F0D4F983
:1035F0000834204603B0BDE8F08F234430465A68B3
:1036000042F001025A6000F0C7F90834204603B0C6
:10361000BDE8F08FBC68636823F00308A84504D3B5
:10362000C5EB08030F2B00F38C80554BDFF860913E
:103630001A68D9F8003001332A4404EB080A00F074
:10364000608102F580520F3222F47F6222F00F0275
:1036500011463046019200F0A1F9B0F1FF3F8346D8
:10366000019A00F05881824500F2FC80454B1968B0
:10367000DA451144196000F05381D9F80000DFF8F1
:1036800010E101301BBFCAEB0B0A5144CEF800B069
:1036900019601BF0070100F01781C1F10800C1F5A6
:1036A0008051834408315A44C2F30B02C2EB010932
:1036B00049463046019300F071F9431C019B00F02C
:1036C0003F81CBEB00024A4442F001021968C7F87F
:1036D00008B04944BC42CBF804201960DFF8A4903C
:1036E00016D0B8F10F0F40F2FD806268A8F10C030C
:1036F00023F00703E01802F001024FF0050E1A4311
:103700000F2B6260C0F804E0C0F808E000F21C81F2
:103710001D4BBC681A68914288BF19601B4B1A6820
:103720009142626888BF196022F003029542A2EBC1
:10373000050301D80F2B04DC304600F02DF90024DE
:1037400038E7621943F0010345F001056560304632
:10375000BA60536000F020F90834204603B0BDE899
:10376000F08F142B71D9542B00F2A480280B00F198
:103770006F0E4FEA4E036E3076E600BFF48EFF1FE9
:103780004497FF1F4897FF1F4097FF1F3C97FF1F5D
:103790000093FF1F5A0A042A5ED9142A00F2B3804C
:1037A00002F15C0149005B3207EB810C57F82110F4
:1037B000DFF8DC81ACF1080C8C4500F088804A68A9
:1037C00022F00302934202D289688C45F7D1D1F8E6
:1037D0000CC07A68C4F80CC0A160CCF80840CC607A
:1037E00088E6631942F0010745F00105656030463F
:1037F0004B610B61C3F80CE0C3F808E05F609A50BE
:10380000083400F0C9F8D5E64A6873E608F1010803
:1038100018F0030F0CF1080C7FF47FAE30E0DC6889
:10382000A34208BF02303FF435AEB3E60B440C466A
:103830005A68C96854F8085F42F001025A6030467D
:10384000E9608D6000F0A8F8B4E603F15C0E03F1C6
:103850005B004FEA4E0307E69A0902F1390149007D
:103860003832A1E7BC424A4B3FF400AF9C68626823
:1038700022F003025AE759F80839994540F082804E
:1038800010F0030F00F1FF30F5D17B6823EA040349
:103890007B6064009C423FF6BDAE002C3FF4BAAEA4
:1038A0001C4240467FF435AE64001C4200F1040027
:1038B000FAD02EE6B3F5AA7F18D8E80B00F1780EFF
:1038C0004FEA4E037730CFE54FF48051EBE601210C
:1038D000D8F80430921001FA02F21A43C8F8042012
:1038E000614677E70123CBF8043025E740F25452D4
:1038F000934220D8A80C00F17D0E4FEA4E037C3095
:10390000B2E51032A4E6542A26D81A0B02F16F0150
:1039100049006E3248E7BC68626822F0030205E79E
:10392000CAF30B0000287FF4A8AE4244BB6842F003
:1039300001025A60ECE6FE234FF07F0E7E2093E5F5
:1039400001224FF00009C1E604F10801304600F001
:1039500069F9D9F80010DBE6B2F5AA7F05D8DA0BD1
:1039600002F17801490077321EE740F254518A4251
:1039700005D89A0C02F17D0149007C3214E7FE2142
:103980007E2211E77B6884E7E808431C5B00F8E5CA
:10399000F48EFF1F704700BF704700BF38B5074C5B
:1039A0000023054608462360FDF77AFA431C00D041
:1039B00038BD2368002BFBD02B6038BDB897FF1FA4
:1039C00090F800F06DE9024520F007016FF0000C5F
:1039D00010F0070491F820F040F049804FF0000407
:1039E0006FF00700D1E9002391F840F000F10800E2
:1039F00082FA4CF2A4FA8CF283FA4CF3A2FA8CF31A
:103A00004BBBD1E9022382FA4CF200F10800A4FA80
:103A10008CF283FA4CF3A2FA8CF3E3B9D1E90423D4
:103A200082FA4CF200F10800A4FA8CF283FA4CF30B
:103A3000A2FA8CF37BB9D1E9062301F1200182FAC5
:103A40004CF200F10800A4FA8CF283FA4CF3A2FACB
:103A50008CF3002BC6D0002A04BF04301A4612BAD9
:103A6000B2FA82F2FDE8024500EBD2007047D1E9DC
:103A7000002304F00305C4F100004FEAC50514F06B
:103A8000040F91F840F00CFA05F562EA05021CBF3C
:103A900063EA050362464FF00004A9E72DE9F04709
:103AA000254C2568D5F848410646884692469946F1
:103AB000C4B360681F2817DC431C76B104EB800593
:103AC0000122C5F888A0D4F8881182401143022E43
:103AD000C4F88811C5F808911ED00230636044F81C
:103AE00020800020BDE8F087144B03B34FF4C8706A
:103AF000FFF788FC0446D0B1D5F84831002780E8AC
:103B00008800C5F8484138460123C4F88871C4F8D4
:103B10008C71002EE1D0D1E7D4F88C110A43C4F89F
:103B20008C21DAE705F5A674C5F84841C1E74FF0E6
:103B3000FF30BDE8F08700BFEC3F00000534000017
:103B4000024B13B1024800F005B8704700000000B6
:103B5000613B0000002301461A461846FFF79EBF4E
:103B600038B5074D074C2C1BA41005D0013C55F867
:103B7000043D9847002CF9D1BDE8384000F046BA22
:103B80000000000000000000F8B5234F0C46064678
:103B9000FFF700FFBB685D6825F00305291B01F6F0
:103BA000EF7121F47F6121F00F01A1F58054B4F58C
:103BB000805F07DB00213046FFF7F0FEBB682B4437
:103BC000984204D03046FFF7E7FE0020F8BD61427E
:103BD0003046FFF7E3FE01300DD0104BBA6819688C
:103BE0002D1B45F001053046091B55601960FFF794
:103BF000D3FE0120F8BD00213046FFF7CFFEBA68A2
:103C0000831A0F2BDEDD064C0449246843F00103C0
:103C1000001B53600860D5E7F48EFF1F4897FF1F15
:103C20000093FF1F002945D02DE9F0410D46804645
:103C3000FFF7B0FE55F8047C6A4927F00103A5F1AF
:103C40000804E2188E685068B24220F0030062D087
:103C5000FE0750600BD455F8087CE41B01F1080EF8
:103C6000A56875453B446FD0E768EF60BD601518E7
:103C70006D68ED0742D543F001026260E350B3F591
:103C8000007F18D2DB085A1C4D6851F83270A760CB
:103C900001209B1000FA03F301EBC2001D4308381A
:103CA000E0604D6041F83240FC604046BDE8F041C4
:103CB000FFF772BE70475A0A042A53D89A0902F1D4
:103CC00039077F0002F1380501EB870051F8272002
:103CD0004449083890424DD0516821F003018B428D
:103CE00002D292689042F7D1D068E060A26084600E
:103CF000D4604046BDE8F041FFF74EBE95683A4FAC
:103D0000BD4203443FD0D068E86043F001028560C3
:103D10006260E350B3E7FF07034407D455F8082C6B
:103D2000A41A1344A068E268C26090602F4A126827
:103D300043F00100934260608C60B6D32C4B404648
:103D40001968FFF721FFB0E711184968C90744D483
:103D50009168D268CA60034443F0010091606060DA
:103D6000E350A2E7142A17D802F15C077F0002F1A2
:103D70005B05A9E7AA104B68012505FA02F2134377
:103D80004B600246B1E743F001024C610C61E56013
:103D9000A5606260E35088E7542A06D81A0B02F146
:103DA0006F077F0002F16E058EE7B2F5AA7F06D895
:103DB000DA0B02F178077F0002F1770584E740F221
:103DC0005450824206D89A0C02F17D077F0002F11E
:103DD0007C0579E7FE277E2576E743F001026260E5
:103DE000E35062E7F48EFF1FFC8EFF1FFC92FF1F63
:103DF0004497FF1F4008FE4340A004404408FE4390
:103E000044A004400018FE4300C004403000FE43BC
:103E1000309004403400FE43349004401C18FE43AC
:103E20001CC004401018FE4310C004400818FE4394
:103E300008C004400C18FE430CC004400C10FE43A4
:103E40000CB004401010FE4310B004401810FE43A4
:103E500018B004401C10FE431CB004401410FE4374
:103E600014B004400418FE4304C004400010FE4394
:103E700000B004400008FE4300A004400408FE43D4
:103E800004A004400C08FE430CA004400808FE43B4
:103E900008A004401418FE4314C004401818FE4340
:103EA00018C004400410FE4304B004400810FE4350
:103EB00008B004401400FE43149004404C08FE4334
:103EC0004CA004400420FE4304D004402410FE43D0
:103ED00024B004402010FE4320B004402810FE43CC
:103EE00028B004402C10FE432CB004400020FE43B8
:103EF00000D004404808FE4348A004401000FE43A0
:103F00001090044000000000000000008921000023
:103F1000AD210000412200003D22000039220000B6
:103F20003522000031220000FD2100001122000096
:103F3000F9210000F1210000E9210000E121000049
:103F4000D1210000C1210000BD2100005D21000041
:103F5000652100006D210000752100009521000001
:103F60007D210000151915FF000100009089FF1F39
:103F70001200000000020000AC89FF1F4200000098
:103F800000220000F089FF1F210000000021000036
:103F9000BE89FF1F0900000000220100148AFF1FD4
:103FA0007400000000210100DE89FF1F09000000ED
:103FB00000030000AC8AFF1F000000000103090499
:103FC000A489FF1F0000000002030904888AFF1F64
:103FD0000000000003030904B08AFF1F0000000076
:103FE000000000000000000000000000C88AFF1F61
:103FF000F8B500BFF8BC08BC9E467047413B0000C6
:0C40000035040000790A0000010E0000E9
:04400C00F8B500BF44
:1040100000000000BC97FF1FFFFFFFFF0C3F0000E8
:1040200000000000E803000000000000492200003A
:104030004922000049220000492200000A04010030
:104040001201100100000040C01688041102010294
:104050000301000008035500470048000902420020
:10406000020100C03209040000020300000009211F
:10407000110100012221000705810340000107050D
:1040800002032000020904010001030000000921CD
:1040900011010001227400070583034000010000A4
:1040A00006C9FF0904A15C7508150026FF009540AC
:1040B0000975810295200976910295040976B1026D
:1040C000C000000005010904A101150025017501CA
:1040D0009580050919012980810205010901A100C6
:1040E000150027FFFF0000751095170930093109E9
:1040F00032093309340935093609360936093609D2
:1041000036093609360936093609360936093609B7
:104110003609360936093609368102C015002507E9
:104120003500463B017504950465140501093909FC
:1041300039093909398142C024034B0077006100F5
:1041400064002000530069006D0020004A006F00E9
:10415000790073007400690063006B0004030904B4
:104160000C03000000000000000000000000000040
:10417000000000000000000000000000B48DFF1FE0
:104180001C8EFF1F848EFF1F000000000000000037
:10419000000000000000000000000000000000001F
:1041A000000000000000000000000000000000000F
:1041B00000000000000000000000000000000000FF
:1041C00000000000000000000000000000000000EF
:1041D00000000000000000000000000000000000DF
:1041E00000000000000000000000000000000000CF
:1041F00000000000000000000000000000000000BF
:1042000000000000000000000000000000000000AE
:10421000000000000000000000000000000000009E
:1042200001000000000000000E33CDAB34126DE63B
:10423000ECDE05000B0000000000000000000000A4
:10424000000000000000000000000000000000006E
:10425000000000000000000000000000000000005E
:10426000000000000000000000000000000000004E
:10427000000000000000000000000000000000003E
:1045A000C88AFF1F0000000000000000F48EFF1FFB
:1045B000F48EFF1FFC8EFF1FFC8EFF1F048FFF1F5A
:1045C000048FFF1F0C8FFF1F0C8FFF1F148FFF1F07
:1045D000148FFF1F1C8FFF1F1C8FFF1F248FFF1FB7
:1045E000248FFF1F2C8FFF1F2C8FFF1F348FFF1F67
:1045F000348FFF1F3C8FFF1F3C8FFF1F448FFF1F17
:10460000448FFF1F4C8FFF1F4C8FFF1F548FFF1FC6
:10461000548FFF1F5C8FFF1F5C8FFF1F648FFF1F76
:10462000648FFF1F6C8FFF1F6C8FFF1F748FFF1F26
:10463000748FFF1F7C8FFF1F7C8FFF1F848FFF1FD6
:10464000848FFF1F8C8FFF1F8C8FFF1F948FFF1F86
:10465000948FFF1F9C8FFF1F9C8FFF1FA48FFF1F36
:10466000A48FFF1FAC8FFF1FAC8FFF1FB48FFF1FE6
:10467000B48FFF1FBC8FFF1FBC8FFF1FC48FFF1F96
:10468000C48FFF1FCC8FFF1FCC8FFF1FD48FFF1F46
:10469000D48FFF1FDC8FFF1FDC8FFF1FE48FFF1FF6
:1046A000E48FFF1FEC8FFF1FEC8FFF1FF48FFF1FA6
:1046B000F48FFF1FFC8FFF1FFC8FFF1F0490FF1F55
:1046C0000490FF1F0C90FF1F0C90FF1F1490FF1F02
:1046D0001490FF1F1C90FF1F1C90FF1F2490FF1FB2
:1046E0002490FF1F2C90FF1F2C90FF1F3490FF1F62
:1046F0003490FF1F3C90FF1F3C90FF1F4490FF1F12
:104700004490FF1F4C90FF1F4C90FF1F5490FF1FC1
:104710005490FF1F5C90FF1F5C90FF1F6490FF1F71
:104720006490FF1F6C90FF1F6C90FF1F7490FF1F21
:104730007490FF1F7C90FF1F7C90FF1F8490FF1FD1
:104740008490FF1F8C90FF1F8C90FF1F9490FF1F81
:104750009490FF1F9C90FF1F9C90FF1FA490FF1F31
:10476000A490FF1FAC90FF1FAC90FF1FB490FF1FE1
:10477000B490FF1FBC90FF1FBC90FF1FC490FF1F91
:10478000C490FF1FCC90FF1FCC90FF1FD490FF1F41
:10479000D490FF1FDC90FF1FDC90FF1FE490FF1FF1
:1047A000E490FF1FEC90FF1FEC90FF1FF490FF1FA1
:1047B000F490FF1FFC90FF1FFC90FF1F0491FF1F50
:1047C0000491FF1F0C91FF1F0C91FF1F1491FF1FFD
:1047D0001491FF1F1C91FF1F1C91FF1F2491FF1FAD
:1047E0002491FF1F2C91FF1F2C91FF1F3491FF1F5D
:1047F0003491FF1F3C91FF1F3C91FF1F4491FF1F0D
:104800004491FF1F4C91FF1F4C91FF1F5491FF1FBC
:104810005491FF1F5C91FF1F5C91FF1F6491FF1F6C
:104820006491FF1F6C91FF1F6C91FF1F7491FF1F1C
:104830007491FF1F7C91FF1F7C91FF1F8491FF1FCC
:104840008491FF1F8C91FF1F8C91FF1F9491FF1F7C
:104850009491FF1F9C91FF1F9C91FF1FA491FF1F2C
:10486000A491FF1FAC91FF1FAC91FF1FB491FF1FDC
:10487000B491FF1FBC91FF1FBC91FF1FC491FF1F8C
:10488000C491FF1FCC91FF1FCC91FF1FD491FF1F3C
:10489000D491FF1FDC91FF1FDC91FF1FE491FF1FEC
:1048A000E491FF1FEC91FF1FEC91FF1FF491FF1F9C
:1048B000F491FF1FFC91FF1FFC91FF1F0492FF1F4B
:1048C0000492FF1F0C92FF1F0C92FF1F1492FF1FF8
:1048D0001492FF1F1C92FF1F1C92FF1F2492FF1FA8
:1048E0002492FF1F2C92FF1F2C92FF1F3492FF1F58
:1048F0003492FF1F3C92FF1F3C92FF1F4492FF1F08
:104900004492FF1F4C92FF1F4C92FF1F5492FF1FB7
:104910005492FF1F5C92FF1F5C92FF1F6492FF1F67
:104920006492FF1F6C92FF1F6C92FF1F7492FF1F17
:104930007492FF1F7C92FF1F7C92FF1F8492FF1FC7
:104940008492FF1F8C92FF1F8C92FF1F9492FF1F77
:104950009492FF1F9C92FF1F9C92FF1FA492FF1F27
:10496000A492FF1FAC92FF1FAC92FF1FB492FF1FD7
:10497000B492FF1FBC92FF1FBC92FF1FC492FF1F87
:10498000C492FF1FCC92FF1FCC92FF1FD492FF1F37
:10499000D492FF1FDC92FF1FDC92FF1FE492FF1FE7
:1049A000E492FF1FEC92FF1FEC92FF1F0000020039
:0449B000FFFFFFFF07
:00000001FF
